:020000040800F2
:10000000E806002091010008352C0008372C000874
:100010003B2C00083F2C0008432C00080000000087
:10002000000000000000000000000000492C000853
:10003000472C0008000000004B2C00084D2C000845
:10004000AB010008AB010008AB010008AB010008E0
:10005000AB010008AB010008AB010008AB010008D0
:10006000AB010008AB010008AB010008AB010008C0
:10007000AB010008AB010008AB010008AB010008B0
:10008000AB010008AB010008AB010008AB010008A0
:10009000AB010008AB010008AB010008AB01000890
:1000A000AB010008AB010008AB010008AB01000880
:1000B000AB010008AF330008692B0008AB01000852
:1000C000AB010008AB010008AB010008AB01000860
:1000D000AB010008AB010008AB010008AB01000850
:1000E000AB010008AB010008AB01000800F002F80A
:1000F00000F03FF80AA090E8000C82448344AAF183
:100100000107DA4501D100F034F8AFF2090EBAE880
:100110000F0013F0010F18BFFB1A43F0010318473B
:100120004C5000006C500000103A24BF78C878C1D1
:10013000FAD8520724BF30C830C144BF04680C60ED
:10014000704700000023002400250026103A28BF35
:1001500078C1FBD8520728BF30C148BF0B60704739
:10016000642903F01F82002070471FB51FBD10B522
:1001700010BD03F0B1FB1146FFF7F7FF02F052FC90
:1001800003F0CFFB03B4FFF7F2FF03BC03F0D6FB91
:100190000948804709480047FEE7FEE7FEE7FEE71B
:1001A000FEE7FEE7FEE7FEE7FEE7FEE70448054957
:1001B000054A064B70470000AF020008ED0000083A
:1001C000E8000020E8060020E8020020E802002005
:1001D0000CB50020019000906C48006840F480301D
:1001E0006A49086000BF6948006800F40030009068
:1001F0000198401C0190009818B90198B0F5A06FC3
:10020000F1D16248006800F4003010B10120009084
:1002100001E0002000900098012843D15C4800686C
:1002200040F010005A4908600846006820F00300BA
:1002300008600846006840F00200086053484068C3
:10024000524948600846406848600846406840F4A3
:10025000806048600846406820F47C10486008468A
:10026000406840F4E81048600846006840F080703C
:10027000086000BF4548006800F000700028F9D011
:100280004248406820F00300404948600846406802
:1002900040F00200486000BF3C48406800F00C009D
:1002A0000828F9D10CBD10B5FFF792FF10BD10B5AD
:1002B0003648006840F0010034490860084640684C
:1002C00034490840314948600846006832490840CE
:1002D0002E4908600846006820F48020086008461F
:1002E000406820F4FE0048604FF41F008860FFF76C
:1002F000DAFF4FF000602949086010BD10B50021F9
:1003000000200022214B5B6803F00C0121B104297D
:1003100006D0082928D107E0214B224C236027E092
:100320001F4B204C236023E0184B5B6803F47010D4
:10033000164B5B6803F48032022303EB904022B932
:10034000194B4343174C23600DE0104B5B6803F4DB
:10035000003323B1144B4343124C236003E0104B92
:100360004343104C236003E00D4B0E4C236000BF51
:1003700000BF064B5B68C3F303130C4CE15C094BF5
:100380001B68CB40074C236010BD000000100240EA
:10039000002002400000FFF8FFFFF6FE08ED00E03D
:1003A00000127A000000002000093D000400002037
:1003B00010B50446CC48844208D10121042000F045
:1003C0002DFB0021042000F029FB46E0C7488442B1
:1003D00008D10121082000F021FB0021082000F0B5
:1003E0001DFB3AE0C248844208D10121102000F0F0
:1003F00015FB0021102000F011FB2EE0BD488442C7
:1004000008D10121202000F009FB0021202000F06C
:1004100005FB22E0B848844208D10121402000F0C9
:10042000FDFA0021402000F0F9FA16E0B3488442BA
:1004300008D10121802000F0F1FA0021802000F095
:10044000EDFA0AE0AE48844207D10121801500F0A0
:10045000E5FA0021A01500F0E1FA10BD10B5012168
:10046000084600F0DBFA0021012000F0D7FA10BDA9
:100470002DE9F0410246002500260020002300243B
:10048000002791F803C00CF00F0591F803C00CF0A1
:10049000100CBCF1000F03D091F802C04CEA050526
:1004A00091F800C0BCF1000F31D0146800202BE09F
:1004B0004FF0010C0CFA00F3B1F800C00CEA03068F
:1004C0009E4220D183004FF00F0C0CFA03F7BC437F
:1004D00005FA03FC4CEA040491F803C0BCF1280FB0
:1004E00006D14FF0010C0CFA00FCC2F814C00AE06F
:1004F00091F803C0BCF1480F05D14FF0010C0CFA84
:1005000000FCC2F810C0401C0828D1D31460B1F818
:1005100000C0BCF1FF0F34DD546800202EE000F174
:10052000080C4FF0010808FA0CF3B1F800C00CEA0F
:1005300003069E4221D183004FF00F0C0CFA03F703
:10054000BC4305FA03FC4CEA040491F803C0BCF177
:10055000280F05D100F1080C08FA0CF8C2F8148035
:1005600091F803C0BCF1480F07D100F1080C4FF01F
:10057000010808FA0CF8C2F81080401C0828CED3F5
:100580005460BDE8F0814FF6FF7101800221817057
:100590000421C17070470246002093680B400BB1E4
:1005A000012000E0002070470146886880B2704753
:1005B00002460020D3680B400BB1012000E0002070
:1005C00070470146C86880B2704701617047416159
:1005D00070470AB1016100E041617047C160704736
:1005E0004FF480320A43826181618261826982694B
:1005F000704702460020434B18684FF6807318403E
:1006000040EA021008433F4B186070473E49C861FA
:100610007047F0B50A46002300240021002500F0B1
:100620000046B6F1004F02D1364EF16901E0354E79
:100630007168C0F3034583B200F44016B6F5401F5D
:1006400008D121F070612F4E766826F070662D4F2C
:100650007E6012E000F48016B6F5801F06D10326F6
:1006600006FA05F4A14341F0706106E0460D36013B
:1006700003FA06F6B14341F0706122B1460D36012E
:1006800003FA06F6314300F00046B6F1004F02D1FE
:100690001C4EF16101E01B4E7160F0BD30B50022CF
:1006A0008B071C0F0F2303FA04F2164B08338C1030
:1006B00053F824309343134C08348D1044F82530FC
:1006C00023468C1053F824308C07240F00FA04F4CE
:1006D00023430C4C08348D1044F8253030BD0A49B2
:1006E000DC3108607047000000080140000C014048
:1006F000001001400014014000180140001C01409E
:10070000002001400000014000002042DF48006856
:1007100040F00100DD49086008464068DC490840B7
:10072000DA49486008460068DA490840D749086055
:100730000846006820F4802008600846406820F4DD
:10074000FE0048604FF41F0088607047CF49096879
:1007500021F48031CD4A11601146096821F48021CD
:100760001160B0F5803F03D0B0F5802F0ED106E0C8
:10077000C649096841F48031C44A116007E0C349A1
:10078000096841F4A021C14A116000E000BF00BF28
:10079000704710B501460022002300204A11012AAB
:1007A00002D1BA4C236806E0022A02D1B74C236A70
:1007B00001E0B64C636A01F01F02012494401C4022
:1007C0000CB1012000E0002010BD38B500200090E1
:1007D0000024002500BF3120FFF7DBFF054600980D
:1007E000401C00900098B0F5A06F01D0002DF2D011
:1007F0003120FFF7CEFF08B1012400E0002420469D
:1008000038BD01460020A14A106820F0F80040EAF7
:10081000C10010607047A049086070470246002080
:100820009A4B586820F47C1042EA01031843974B16
:100830005860704798490866704701460020934AFF
:10084000506820F003000843506070478F484068AC
:1008500000F00C007047014600208C4A506820F0E0
:10086000F00008435060704701460020874A5068F6
:1008700020F4E06008435060704701460020834A3E
:10088000506820F4605040EAC1005060704729B1C0
:100890007E4A527A02437D4B5A7204E07B4A527A76
:1008A00082437A4B5A7270477B49D831086070474F
:1008B00001460020754A506820F4404008435060CB
:1008C00070470021714A20321170704A82F820105E
:1008D000012802D004280AD104E001216B4A203209
:1008E000117005E00521694A2032117000E000BF57
:1008F00000BF70476949086070476449096A01434D
:10090000624A11627047654944390860704730B5E2
:1009100000210022002400235C4D6D6805F00C01CD
:1009200021B1042905D0082923D105E05C4D0560DB
:1009300022E05B4D05601FE0544D6D6805F47012B8
:10094000524D6D6805F48034022505EB92421CB9C6
:10095000544D554305600BE04C4D6D6805F4003572
:100960001DB1504D5543056002E04D4D55430560A6
:1009700002E04B4D056000BF00BF444D6D6805F0BF
:10098000F0010909484D6B5C0568DD4045603F4D4D
:100990006D6805F4E061090A434D6B5C4568DD4014
:1009A00085603A4D6D6805F46051C90A3E4D6B5C37
:1009B0004568DD40C560354D6D6805F44041890BE3
:1009C0003A4D6B5CC568B5FBF3F5056130BD29B1E7
:1009D0002E4A526902432D4B5A6104E02B4A526958
:1009E00082432A4B5A61704729B1284A92690243CF
:1009F000264B9A6104E0254A92698243234B9A610F
:100A0000704729B1214AD2690243204BDA6104E0E0
:100A10001E4AD26982431D4BDA61704729B11B4AD5
:100A2000D2680243194BDA6004E0184AD268824364
:100A3000164BDA60704729B1144A12690243134B0E
:100A40001A6104E0114A12698243104B1A6170471F
:100A500012494039086070470F49C86470470B4914
:100A6000C87170470948406A40F080700749486281
:100A7000704701460020054A92680A400AB10120E9
:100A800000E0002070470149887270470010024062
:100A90000000FFF8FFFFF6FE0000424280044242E1
:100AA00000127A0000093D001400002024000020FC
:100AB00031490143314A1160704770B5002100236C
:100AC0000F22C47804B32D4C246804F4E064C4F508
:100AD000E064210AC1F10403CA40447804FA03F136
:100AE0008478144021430901254C0678A1550478E7
:100AF00004F01F050124AC4005786D11AD0005F12F
:100B0000E025C5F8004109E0047804F01F05012440
:100B1000AC401C4D0678761145F8264070BD1A4A47
:100B20000A400243154B1B1F1A60704739B1134A24
:100B3000121D12680243114B1B1D1A6006E00F4A7A
:100B4000121D126882430D4B1B1D1A60704704284A
:100B500008D14FF0E021096941F004014FF0E02293
:100B6000116107E04FF0E021096921F004014FF025
:100B7000E0221161704700000000FA050CED00E072
:100B800000E400E080E100E080FFFF1F10B50446B4
:100B9000FE48844208D10121C014FFF73FFF002125
:100BA000E014FFF73BFFC4E0B4F1804F08D101210E
:100BB0000846FFF740FF00210120FFF73CFFB8E0A7
:100BC000F348844208D101210220FFF734FF0021BD
:100BD0000220FFF730FFACE0EE48844208D101214B
:100BE0000420FFF728FF00210420FFF724FFA0E0E6
:100BF000E948844208D101210820FFF71CFF0021A9
:100C00000820FFF718FF94E0E448844208D101214E
:100C10001020FFF710FF00211020FFF70CFF88E0E5
:100C2000DF48844208D101212020FFF704FF002182
:100C30002020FFF700FF7CE0DA48844208D1012140
:100C40004014FFF7EBFE00216014FFF7E7FE70E0B1
:100C5000D548844209D10121C804FFF7DFFE0021F5
:100C60004FF40020FFF7DAFE63E0D048844209D158
:100C700001210805FFF7D2FE00214FF48010FFF795
:100C8000CDFE56E0CA48844209D101214805FFF74C
:100C9000C5FE00214FF40010FFF7C0FE49E0C54833
:100CA000844208D101214020FFF7C5FE00214020E9
:100CB000FFF7C1FE3DE0C048844208D101218020F9
:100CC000FFF7B9FE00218020FFF7B5FE31E0BB48F9
:100CD000844208D101218015FFF7ADFE0021A01547
:100CE000FFF7A9FE25E0B648844209D10121080496
:100CF000FFF794FE00214FF48030FFF78FFE18E0DD
:100D0000B048844209D101214804FFF787FE002141
:100D10004FF40030FFF782FE0BE0AB48844208D16D
:100D200001218804FFF77AFE00214FF48020FFF7AD
:100D300075FE10BD00220288944B98420ED0994B4C
:100D400098420BD0B0F1804F08D0914B984205D01B
:100D5000904B984202D0904B984204D14FF68F733B
:100D60001A404B881A438D4B984207D08C4B9842BF
:100D700004D04FF6FF431A40CB881A4302808B8879
:100D800083850B880385814B98420BD0854B984215
:100D900008D08B4B984205D08A4B984202D08A4BA0
:100DA000984201D10B7A038601238382704770B584
:100DB000002400220023058C4FF6FE763540058482
:100DC000028C8388048B4FF68F752C40B51E2C4007
:100DD0000D882C43751E2A400D892A434D882A43CD
:100DE0006A4DA8420BD06F4DA84208D0744DA8425E
:100DF00005D0744DA84202D0734DA84213D14FF6CE
:100E0000F7752A404D892A434FF6FB752A408D8895
:100E10002A434FF6FF652B404FF6FF552B408D8937
:100E20002B43CD892B4383800483CD888586028420
:100E300070BD70B5002400220023058C4FF6EF76BC
:100E400035400584028C8388048B48F6FF752C405E
:100E50004FF6FF452C400D884FF6FF7606EA052534
:100E60002C434FF6DF752A400D8906EA05152A4303
:100E70004D8806EA05152A43444DA84202D0494D43
:100E8000A8421DD14FF67F752A404D894FF6FF7657
:100E900006EA05152A434FF6BF752A408D8806EAF3
:100EA00005152A434FF6FF352B404FF2FF752B40B7
:100EB0008D8906EA85052B43CD8906EA85052B43F6
:100EC00083800483CD880587028470BD70B50024BB
:100ED00000220023058C4FF6FF6635400584028C06
:100EE0008388848B4FF68F752C404FF6FC752C4011
:100EF0000D882C434FF6FF552A400D894FF6FF769B
:100F000006EA05252A434D8806EA05252A431F4D92
:100F1000A84202D0234DA8421DD14FF2FF752A40AE
:100F20004D894FF6FF7606EA05252A434FF6FF3531
:100F30002A408D8806EA05252A434EF6FF752B4088
:100F40004DF6FF752B408D8906EA05152B43CD899B
:100F500006EA05152B4383808483CD888587028428
:100F600070BD70B5002200230024058C4EF6FF767C
:100F700035400584038C8488828B48F6FF752A40AF
:100F80004FF6FF452A400D8820E00000002C01406C
:100F90000004004000080040000C00400010004029
:100FA0000014004000340140004C0140005001405A
:100FB0000054014000180040001C00400020004088
:100FC0000040014000440140004801404FF6FF76D8
:100FD00006EA05252A434DF6FF752B400D8906EAE2
:100FE00005352B434D8806EA05352B43FA4DA842BB
:100FF00002D0FA4DA84208D14BF6FF752C408D89DE
:101000004FF6FF7606EA85152C4384808283CD88CF
:10101000A0F84050038470BD828B4FF2FF331A401A
:101020008283828B4FF6FF7303EA01231A43828384
:101030007047F0B50C461546002200210026078CAB
:101040004EF6FF7C07EA0C070784828B018C4FF673
:10105000FF7707EA043640F6FF473A404FF6FF773E
:1010600007EA05273A434FF6FF7707EA03373A4383
:10107000D94FB8420ED0D94FB8420BD0B0F1804F03
:1010800008D0D74FB84205D0D64FB84202D0D64F7D
:10109000B84206D14DF6FF77394046F480573943C0
:1010A00005E047F6FF57394044F4805739438283BF
:1010B0000184F0BD828B4FF6F3731A408283828BDA
:1010C0000A4382837047F0B50C4615460022002182
:1010D0000026078C4FF6FF6C07EA0C070784828B0B
:1010E000018C4FF6FF7707EA04264FF60C773A405B
:1010F0004FF6FF7707EA03172F433A43B64FB8423C
:101100000ED0B64FB8420BD0B0F1804F08D0B44FDC
:10111000B84205D0B34FB84202D0B34FB84206D15F
:101120004FF6FF57394046F48077394305E04FF2D8
:10113000FF57394044F48077394382830184F0BDFE
:10114000028B4FF2FF331A400283028B4FF6FF737C
:1011500003EA01231A4302837047F0B50C46154693
:10116000002200210026078C4FF6EF7C07EA0C07CF
:101170000784028B018C4FF6FF7707EA041640F6CE
:10118000FF473A404FF6FF7707EA03373A434FF6F7
:10119000FF7707EA05273A438F4FB8420ED08F4FAB
:1011A000B8420BD0B0F1804F08D08D4FB84205D077
:1011B0008C4FB84202D08C4FB84206D14FF6DF7741
:1011C000394046F01007394305E04FF65F77394064
:1011D00044F01007394302830184F0BD028B4FF6BF
:1011E000F3731A400283028B0A4302837047F0B5FF
:1011F0000C46154600220021068C4FF6FE773E4035
:101200000684028B018C4FF60C7632407E1C06EA77
:1012100003162E433243704EB0420ED06F4EB04292
:101220000BD0B0F1804F08D06D4EB04205D06D4E5E
:10123000B04202D06C4EB04206D14FF6FD7631403E
:1012400044F00106314305E04FF6F576314044F0B5
:101250000106314302830184F0BD70B505460C469A
:101260005D4885420ED05D4885420BD0B5F1804F78
:1012700008D05B48854205D05A48854202D05A487A
:10128000854200D100E000BF208850B92389A288A0
:1012900061882846FFF7ABFFE1882846FFF79EFFED
:1012A00025E0208804280AD12389A288618828465D
:1012B000FFF753FFE1882846FFF742FF17E0208839
:1012C00008280AD12389A28861882846FFF7FBFEF7
:1012D000E1882846FFF7EEFE09E02389A2886188AD
:1012E0002846FFF7A6FEE1882846FFF795FE70BD69
:1012F0002DE9F04105460C4600260127608808B913
:10130000022600E00026A088012801D1022700E083
:1013100001272088A0B92389A28861882846FFF781
:1013200066FFE1882846FFF759FF23893A46314690
:101330002846FFF712FFE1882846FFF701FF13E078
:101340002389A28861882846FFF707FFE18828469D
:10135000FFF7F6FE23893A4631462846FFF747FF56
:10136000E1882846FFF73AFFBDE8F0810A884B88FC
:101370001A438B881A43CB881A430B891A434B892B
:101380001A438B891A43A0F8442070474FF6FF7127
:10139000818000210180C18041800172704700215D
:1013A000018041808180C180018141818181C18131
:1013B0007047002101804180012181800021C1808E
:1013C000018170470021018041808180C1800181BD
:1013D0004181818170470000002C014000340140B0
:1013E0000004004000080040000C004021B10288C9
:1013F00042F00102028004E002884FF6FE731A40B8
:101400000280704731B1B0F8442042F40042A0F8A5
:10141000442005E0B0F84420C2F30E02A0F84420B6
:1014200070471AB183890B43838102E083898B4320
:10143000838170478182704741EA0203A0F84830F7
:1014400070471AB183890B43838102E083898B4300
:101450008381704701894FF6F8721140018170470E
:101460000A46002101894FF68F731940114301810B
:10147000704730B504460D4629462046FFF7F0FF79
:10148000208940F00700208130BD2DE9F04104465D
:101490000D4616461F46602D06D13B4601223146B9
:1014A0002046FFF75AFE05E03B4601223146204622
:1014B000FFF79DFE29462046FFF7D2FF208940F026
:1014C00007002081BDE8F08130B50C46002101897C
:1014D000C9B24FF6FF7505EA032515432543294395
:1014E000018130BD2DE9F04105460E46174698466C
:1014F000002443463A4631462846FFF7E5FF2C894B
:101500004FF6F870044044F007044FF68F70044023
:1015100044F070042C81BDE8F081F0B504460D461E
:1015200016461F463B46324629462046FFF7CCFF6B
:10153000208940F480402081F0BD0185828270477F
:101540000A46002101884FF68F731940114301802C
:101550007047F0B50C4615461E46002100220023B8
:101560000189028B038C4FF6F877394021434FF6FF
:10157000FC473A4040F201173A434FF6DD773B40D3
:101580004FF6FF7707EA06172F433B43018102839B
:101590000384F0BD0A460021018B4FF68F7319407A
:1015A0001143018370470A460021018B48F6FF73FF
:1015B00019404FF6FF7303EA022319430183704772
:1015C0000A460021818B4FF68F73194011438183A6
:1015D00070470A460021818B48F6FF7319404FF689
:1015E000FF7303EA022319438183704721B1028804
:1015F00042F08002028004E002884FF67F731A40B6
:101600000280704721B1828842F00402828004E0A7
:1016100082884FF6FB731A408280704721B182881E
:1016200042F00802828004E082884FF6F7731A4085
:101630008280704721B1828842F00102828004E0FA
:1016400082884FF6FE731A40828070470A46002156
:10165000018B4FF6F77319401143018370470A4617
:101660000021018B4FF2FF7319404FF6FF7303EA1D
:1016700002231943018370470A460021818B4FF6EC
:10168000F77319401143818370470A460021818B0B
:101690004FF2FF7319404FF6FF7303EA0223194319
:1016A000818370470A460021018B4FF6FB73194076
:1016B0001143018370470A460021018B4FF6FF3327
:1016C00019404FF6FF7303EA022319430183704761
:1016D0000A460021818B4FF6FB7319401143818329
:1016E00070470A460021818B4FF6FF3319404FF6B1
:1016F000FF7303EA02231943818370470A460021DE
:10170000018B4FF67F7319401143018370470A46DE
:101710000021018BC1F30E014FF6FF7303EA022390
:101720001943018370470A460021818B4FF67F736E
:1017300019401143818370470A460021818BC1F310
:101740000E014FF6FF7303EA0223194381837047AA
:101750000A460021018C4FF6FD73194011430184A4
:1017600070470A460021018C4FF6F7731940114368
:10177000018470470A460021018C4FF6DF7319403F
:101780004FF6FF7303EA02131943018470470A46B8
:101790000021018C4FF67F7319404FF6FF7303EA67
:1017A00002131943018470470A460021018C4FF649
:1017B000FF5319404FF6FF7303EA022319430184D4
:1017C00070470A460021018C4FF2FF7319404FF613
:1017D000FF7303EA02231943018470470A4600217C
:1017E000018C4DF6FF7319404FF6FF7303EA023385
:1017F00019430184704730B5002301248C40A3B203
:10180000048C9C430484048C02FA01F5ADB22C4391
:10181000048430BD30B5002304248C40A3B2048C72
:101820009C430484048C02FA01F5ADB22C43048479
:1018300030BD70B50346002000241846183001253D
:101840008D40ACB21D8CA5431D8409B1082909D176
:1018500000EB6100056825F070050560056815431B
:1018600005600EE00D1FC5F34E052844056825F4FC
:10187000E045056005684FF6FF7606EA0226354327
:10188000056070BD21B1028842F00202028004E0CE
:1018900002884FF6FD731A400280704721B102881A
:1018A00042F00402028004E002884FF6FB731A4003
:1018B0000280704721B1828842F08002828004E079
:1018C00082884FF67F731A408280704702884FF6F5
:1018D000F7731A40028002880A43028070478288A8
:1018E0004FF68F731A40828082880A438280704745
:1018F00002894FF6F8731A40028102890A43028175
:10190000704702894FF67F731A40028102890A43A9
:101910000281704781847047818570478186704756
:101920000187704781877047A0F840107047028890
:101930004FF6FF431A40028002880A430280704734
:101940000146888E70470146088F70470146888F90
:1019500070470146B1F8400070470146888C7047D7
:101960000146088D704702460020138A0B400BB1D8
:10197000012000E000207047CA430282704730B562
:101980000246002000230024158A05EA01039589F8
:1019900005EA010413B10CB1012000E0002030BDC4
:1019A000CA4302827047000010B50120FFF750F8CB
:1019B0000020FFF74DF810BD2A49086070472949FB
:1019C000091F086070472749843108607047014645
:1019D0000020254A10884FF67F4210400843224AD3
:1019E00010807047014600201F4A10884FF6807211
:1019F000104008431C4A1080704708B5002200922E
:101A0000194A2C3A0092009A02440092009A1160FE
:101A100008BD08B501460020009013482C380090FE
:101A20000098084400900098008808BD0D489C303C
:101A30000068C0B270470C480830008840F00100D0
:101A400009490831088070470648A0300068C0B2D4
:101A5000704705480830008840F00200024908310C
:101A60000880704704860D422C6C004029B1504A12
:101A7000128802434E4B1A8004E04D4A128882437A
:101A80004B4B1A8070474A48001D008840F01000F8
:101A90004749091D088070474548001D00884FF6DA
:101AA000EF7108404249091D0880704700214048F5
:101AB0001C300188001F008841EA0040704700B5D3
:101AC0000246FFF7E0FF100C394918310880091D64
:101AD0000A80FFF7E1FF00BD00B50246FFF7D3FF24
:101AE000C2F30340324908310880091D0A80FFF71C
:101AF000D3FF00BD00B50246FFF7C5FF100C2C490F
:101B000020310880091D0A80FFF7C6FF00BD0020B4
:101B10002749103109880907080B2549143109881C
:101B20000843704700BF2248001D008800F02000D5
:101B30000028F8D070471E48001D00884FF6F77146
:101B400008401B49091D088000BF1948001D008876
:101B500000F008000028F8D0704701460020144A21
:101B6000121D12880A400AB1012000E000207047CF
:101B70000F49091D098881430D4A121D11807047C4
:101B8000014600200A4A121D12880A40D0B2084AB3
:101B900012880A4012B108B1012000E0002070470D
:101BA0000349091D09888143014A121D11807047AC
:101BB0000028004010B501210807FEF73CFF002176
:101BC0004FF08050FEF737FF10BD2A49086270477A
:101BD00028490861704701460020274A106820F014
:101BE000E0000843106070472249A0310860704748
:101BF00010B502460020204B186820F00300104367
:101C000018601E4B1B6843F004031C4C2360012921
:101C100001D130BF00E020BF184B1B6823F0040344
:101C2000164C236010BD1448006840F004001249AF
:101C300008600846006840F0020008600F4800682D
:101C400040F004000D49086000BF00BF30BF70477E
:101C500001460020084A52680A400AB1012000E00B
:101C6000002070470449096841EA8001024A116076
:101C70007047000000000E420070004010ED00E0D0
:101C8000002109E0002201E0531C9AB240F6B8336B
:101C90009A42F9DB4B1C99B28142F3DB704710B5D5
:101CA000FD4BDB689AB24FF40073FC4C23605B1071
:101CB00023602023241F2360F74BD8602023241D9A
:101CC0002360241F2360DB002360F34BD9602023B3
:101CD000241D2360241F2360DB002360EE4BDA60A9
:101CE00010BD00B501210020FFF7D9FF4FF47A7035
:101CF000FFF7C6FF00210120FFF7D1FF41F29071ED
:101D00001020FFF7CCFF4FF41C516020FFF7C7FFF6
:101D100001216120FFF7C3FF02214620FFF7BFFF2B
:101D200048F210011320FFF7BAFF48F2FE0112201B
:101D3000FFF7B5FF4FF4A0610220FFF7B0FF41F2BB
:101D400030010320FFF7ABFF40F203313020FFF7F3
:101D5000A6FF40F203313120FFF7A1FF40F203312B
:101D60003220FFF79CFF4FF440713320FFF797FFBD
:101D700003213420FFF793FF40F203313520FFF7B2
:101D80008EFF14213620FFF78AFF40F203313720FF
:101D9000FFF785FF40F203313820FFF780FF40F264
:101DA00003313920FFF77BFF4FF440713A20FFF7F2
:101DB00076FF03213B20FFF772FF40F203313C2006
:101DC000FFF76DFF4FF4A0513D20FFF768FF4FF480
:101DD00000719220FFF763FF40F203319320FFF779
:101DE0005EFF40F60D019020FFF759FF41F2180108
:101DF0000320FFF754FF40F273110720FFF74FFF56
:101E000000BD00B543F20801E320FFF748FF1221AF
:101E1000E720FFF744FF41F23121EF20FFF73FFFBA
:101E200000210120FFF73BFF4FF4E0610220FFF7A4
:101E300036FF41F230010320FFF731FF002104207B
:101E4000FFF72DFF40F207210820FFF728FF0021B0
:101E50000920FFF724FF00210A20FFF720FF0021BF
:101E60000C20FFF71CFF00210D20FFF718FF0021B9
:101E70000F20FFF714FF00211020FFF710FF0721AC
:101E80001120FFF70CFF00211220FFF708FF0021AF
:101E90001320FFF704FF4FF47A70FFF7F1FE41F2D1
:101EA00090611020FFF7FBFE40F227211120FFF781
:101EB000F6FE3220FFF7E4FE1D211220FFF7EFFEB1
:101EC0003220FFF7DDFE4FF400611320FFF7E7FE3D
:101ED00014212920FFF7E3FE0B212B20FFF7DFFE63
:101EE0003220FFF7CDFE00212020FFF7D8FE002191
:101EF0002120FFF7D4FE07213020FFF7D0FE40F26B
:101F000007713120FFF7CBFE06213220FFF7C7FE15
:101F100040F204713520FFF7C2FE41F6047136200D
:101F2000FFF7BDFE04213720FFF7B9FE002138205E
:101F3000FFF7B5FE40F206713920FFF7B0FE40F220
:101F400001713C20FFF7ABFE0F213D20FFF7A7FEFC
:101F500000215020FFF7A3FEEF215120FFF79FFE45
:101F600000215220FFF79BFE40F23F115320FFF764
:101F700096FE4FF41C516020FFF791FE0121612075
:101F8000FFF78DFE00216A20FFF789FE00218020E7
:101F9000FFF785FE00218120FFF781FE00218220CE
:101FA000FFF77DFE00218320FFF779FE00218420CA
:101FB000FFF775FE00218520FFF771FE10219020AC
:101FC000FFF76DFE00219220FFF769FE03219320A9
:101FD000FFF765FE4FF488719520FFF760FE002142
:101FE0009720FFF75CFE00219820FFF758FE41F292
:101FF00018010320FFF753FE40F273110720FFF78B
:102000004EFE00BD08B54FF6FF70ADF8000003208E
:102010008DF8020010208DF8030069461E48FEF777
:1020200027FA08BD08B54FF6FF70ADF80000032091
:102030008DF8020048208DF8030069461648FEF727
:1020400017FA08BD70B504464FF4007013490860D4
:10205000401008602020091F08600F48C46020203D
:10206000091D0860091F0860C0000860FFF7DAFF5B
:102070004FF48060094908600748806885B20815F8
:10208000091F0860FFF7BEFF4FF400700349091FE6
:102090000860284670BD000000100140140C01408B
:1020A00008B501211820FEF79FFC01212020FEF732
:1020B0009BFC4FF4E460ADF8000001208DF80200B5
:1020C00010208DF803006946F648FEF7D1F9FFF7B6
:1020D00099FFF4481030006840F4C460F1491031B1
:1020E000086008BD10B5FFF7DBFF0020FFF7AAFF6F
:1020F000ED4908800846008848F23021884202D124
:10210000FFF7EFFD01E0FFF77CFE0020FFF79AFFED
:10211000E549088010BD01B5BDF80000E34908801D
:1021200008BD01B5BDF80000E149088008BD30B523
:1021300004460D4621462020FFF7B1FD2946212007
:10214000FFF7ADFD30BDDB4AD26891B24FF40072AB
:10215000D44B14331A6052101B1F1A6020221A60CD
:10216000D44AD06020221B1D1A601B1F1A60D200A7
:102170001A6052001A60CF4AD1607047CD49C968D1
:1021800088B24FF40071C74A1432116049101160CF
:102190002021121F11602221C64AD1602021C14A8C
:1021A00014321160121F1160C900116049001160E2
:1021B000C049C86070472DE9F04306468946174676
:1021C00000240025A046B04649464046FFF7AFFF31
:1021D00000BF1EE0FFF7D2FF00250FE037F8140024
:1021E0000121A940084020B9B1480088FFF7ABFFA2
:1021F00003E0AE480088FFF7A6FF6D1C102DEDD35D
:1022000008F1010000F0FF0849464046FFF78FFF44
:10221000641C182CDED3BDE8F08370B505460E466D
:102220001446A4F12000C4B204EB4400A24901EB1F
:10223000001231462846FFF7BEFF70BDF0B50746D5
:102240000C46002540F23F1609E022783146384618
:10225000FFF7E3FFA6F1100086B2641C6D1C207826
:1022600008B1142DF1D3F0BD10B5044693A120465A
:10227000FFF7E4FF10BD30B50546002400210846F5
:10228000FFF755FFFFF77AFF00BF03E02846FFF78F
:102290005AFF641CB4F5963FF8D330BDF0B5044640
:1022A0000D4616461F46B44206DBA01B401C81B2F9
:1022B0005020FFF7F4FC03E000215020FFF7EFFC73
:1022C00021465120FFF7EBFCBD4206DBE81B401C1A
:1022D00081B25220FFF7E3FC03E000215220FFF718
:1022E000DEFC29465320FFF7DAFC29462046FFF79B
:1022F0001EFFF0BD00B54FF4A073F022591EEF2071
:10230000FFF7CCFF41F218010320FFF7C8FC00BD26
:102310002DE9F0410646884615461F4600244146F1
:102320003046FFF704FF5FB9FFF728FF00BF04E066
:102330005E480088FFF707FF641CAC42F8D310E04A
:1023400000240CE0FFF71AFF58480088FFF7FBFE57
:10235000701CC6B241463046FFF7E9FE641CAC4231
:10236000F0D3BDE8F081F0B505460E4617461C4691
:102370000023224631462846FFF7CAFFE919C8B2B2
:10238000002322463146FFF7C3FF01233A46314678
:102390002846FFF7BDFF301B401C81B201233A469F
:1023A0002846FFF7B5FFF0BD2DE9F04306460F467E
:1023B00090460320A0EB4809002445466EE07A19B8
:1023C00091B23219D0B2FFF7B2FEFFF7D7FE37480D
:1023D0000088FFF7B8FE7A1B91B23219D0B2FFF72E
:1023E000A6FEFFF7CBFE31480088FFF7ACFE7A1956
:1023F00091B2321BD0B2FFF79AFEFFF7BFFE2B4817
:102400000088FFF7A0FE7A1B91B2321BD0B2FFF713
:102410008EFEFFF7B3FE25480088FFF794FE3A19B9
:1024200091B27219D0B2FFF782FEFFF7A7FE1F48E4
:102430000088FFF788FE3A1B91B27219D0B2FFF7FD
:1024400076FEFFF79BFE19480088FFF77CFE3A19DD
:1024500091B2721BD0B2FFF76AFEFFF78FFE1348EE
:102460000088FFF770FE3A1B91B2721BD0B2FFF7E3
:102470005EFEFFF783FE0D480088FFF764FEB9F1AA
:10248000000F04DA062000EB8400814405E0601BA5
:102490000A2101EB800081446D1E641CAC428ED980
:1024A000BDE8F083000C01402C0000202800002033
:1024B0002A000020001001408A3F00082020202030
:1024C000202020202020202020202020202020200C
:1024D0000000000070B506460024002540F23F11C0
:1024E0000020FFF724FEFFF749FE00BF14E000259F
:1024F0000FE056F824000121A940084020B95F48A8
:102500000088FFF720FE03E05D480088FFF71BFE10
:102510006D1C202DEDD3641CB4F5166FE7D370BD90
:1025200070B50446002500266688A08846EA004665
:102530006589A08945EA0045701B46082C4441F294
:1025400008010320FFF7ABFBFFF718FE002504E0AE
:102550002088FFF7F8FDA41C6D1CB542F8D341F2AA
:1025600018010320FFF79BFB70BD10B54FF40070FE
:1025700044490860401008602020091F086022209C
:102580004149C86020203F490860091F0860C00019
:102590000860FFF747FD4FF480603A4908603A4809
:1025A000806884B20815091F0860FFF72BFD4FF4FF
:1025B00000703449091F0860204610BD00B5002195
:1025C0001020FFF76CFB00211120FFF768FB0021B2
:1025D0001220FFF764FB00211320FFF760FB14209B
:1025E000FFF74EFB41F2B0711020FFF758FB40F2AD
:1025F00037111120FFF753FB0520FFF741FB40F295
:1026000039111220FFF74BFB0520FFF739FB4FF480
:10261000E8511320FFF743FB13212920FFF73FFB6D
:102620000520FFF72DFB40F273110720FFF737FB62
:1026300000BD00B540F273110720FFF730FB00BD6D
:1026400000B500210720FFF72AFB00BD30B5054685
:1026500000210846FFF76BFDFFF790FD002409E01D
:1026600015F814206100491C695C42EA0120FFF75B
:102670006AFD641CB4F5963FF2DB30BD2A000020F1
:1026800028000020140C014000100140FE490860A1
:1026900000BFFD4909680029FBD1704710B5FB4810
:1026A000007818B1F9480078012849D100F06EFC93
:1026B000F7480078012811D1F6480088B0F5807FEE
:1026C0003ED0F548008880F48070F34908800120EE
:1026D000F24908700020F249088031E0EC480078A7
:1026E00002280CD1EC48008880F40070EA49088088
:1026F0000120EA4908700020E949088020E0E44808
:10270000007804280CD1E448008880F48060E24915
:1027100008800120E14908700020E14908800FE0AD
:10272000DB48007808280BD1DB48008880F4006083
:10273000D94908800120D94908700020D84908806B
:1027400010BDF8B5D7A13020FFF778FD1421DA4885
:1027500001F000F8CF480688F01706EB106007126A
:1027600007EBD7704010401C052801D1042009E078
:10277000C8480488E01704EB1060051205EBD5701B
:102780004010401C0246CDA1CB4800F0CFFECA4904
:102790006020FFF753FD1421C74800F0DBFFCD4850
:1027A00000680090CC480368CC48CDA10268C248BC
:1027B00000F0BCFEC0499020FFF740FDF8BD10B509
:1027C000B2480078042805D000214FF4704000F092
:1027D00047FC39E0C848007808B30020C6490870B3
:1027E0000121C648008800F03BFCC4490A884FF428
:1027F000704121EA0200002100F032FCC04800785C
:10280000012812D1BD480088B0F5004F08D0BB4860
:1028100000884FF6FF7101EA4000B849088013E0D4
:102820004FF48050B54908800EE0B4480088B0F5F8
:10283000805F05D0B14800884010B049088003E0AF
:102840004FF40040AD49088001219348008800F012
:1028500007FC91490A884FF4706121EA02000021C7
:1028600000F0FEFB10BD8C4800888A490988884228
:1028700003DD0120A249087002E00020A049087091
:10288000704700B59E480078012808D1814800882B
:102890004FF6FF7101EA40007E49088004E07D4860
:1028A000008840107B4908807B4800887949098866
:1028B000884379490880FFF7D6FF00BD00B573480B
:1028C0000078012807D10320704908704FF47A700E
:1028D0008C4908802BE06D480078032807D104203C
:1028E0006A49087041F27070864908801FE06748A5
:1028F0000078042807D10220644908704FF47A70E8
:102900008049088013E06148007802280FD1FFF762
:10291000B8FF6148008818B900205C49087002E0DF
:1029200001205A4908704FF4FA607649088000BDCA
:1029300010B5754800785549097888422BD053481E
:10294000007804280DD16E480078012804D10021B8
:10295000502000F09FFC1AE000213C2000F09AFC7F
:1029600015E04A480078022804D13C21002000F0FC
:1029700091FC0CE045480078032804D13221002066
:1029800000F088FC03E00021084600F083FC3F488B
:1029900000785D49087010BD08B501210420FEF7DC
:1029A00023F83020ADF8000003208DF8020010203D
:1029B0008DF8030069465548FDF75AFD53480C3021
:1029C000006820F0300051490C31086008BD4C48C7
:1029D0000078012808D14D480C30006840F0100004
:1029E0004A490C31086007E048480C30006820F084
:1029F000100046490C31086024480078022808D1AC
:102A000042480C30006840F0200040490C3108601A
:102A100007E03E480C30006820F020003B490C31B4
:102A2000086070473A4800684FF47A72B0FBF2F1E0
:102A3000481EB0F1807F00D31BE0481E4FF0E0221B
:102A4000506150170F22002807DA13071D0E314B73
:102A500000F00F04241F1D5503E013071C0E2E4B1E
:102A60001C5400BF00204FF0E0229061072010614D
:102A700000BFC820FFF70AFE00F0C4FAFFF732FBE0
:102A80000020FFF7F8FB49E03C0000204000002058
:102A90005000002048000020380000204A0000209C
:102AA0004C000020202043555252454E542D504C8E
:102AB0004154464F524D200070000020202020201D
:102AC00020202020202564202020202020202020BD
:102AD000200000005C00002058000020540000206E
:102AE000202020202020253032643A253032643ADC
:102AF0002530326400000000420000204600002023
:102B000030000020320000204E000020000801406C
:102B10000000002018ED00E000E400E00020FFF7D6
:102B200000FB4FF6FF70FFF7F6FA00F017FA00F01F
:102B3000DFFA00F0C9F900F00DFB372232210C203A
:102B400000F037FBFFF728FF0021084600F0A2FB4A
:102B500009E000F041FBFFF7F4FDFFF730FEFFF75F
:102B6000E7FEFFF734FFF4E710B501212848FEF730
:102B700006FF00284BD001212548FEF711FF25480C
:102B80000078401CC0B2234908700A2803D10020F5
:102B90000870FFF783FD2048007804280DD11F48F6
:102BA0000088401C80B21D490880B0F5C87F04D160
:102BB0000020088001201A4908701A48007888B956
:102BC0001548007870B118480088401C80B216493A
:102BD000088016490988884204D1002012490880DB
:102BE000FFF76CFE0F48007888B111480088401C40
:102BF00080B20F490880B0F57A7F08D100200880A4
:102C000008490870032004490870FFF72CFE10BD26
:102C10000008004041000020400000204400002047
:102C2000420000204A000020340000203200002032
:102C30004C000020704700BFFEE700BFFEE700BF6A
:102C4000FEE700BFFEE77047704770470248006824
:102C5000401E0149086070473C00002008B58020F4
:102C6000ADF8000002208DF8020028208DF8030046
:102C70006946B948FDF7FCFB08BD08B58020ADF8F2
:102C8000000002208DF8020010208DF80300694634
:102C9000B148FDF7EDFB08BD10B5044624B1802115
:102CA000AD48FDF792FC03E08021AB48FDF78FFCB7
:102CB00010BD10B5044624B14021A748FDF785FC9E
:102CC00003E04021A448FDF782FC10BD10B580212F
:102CD000A148FDF760FC10BD002100E0491C8142C5
:102CE000FCD3704710B50120FFF7D6FF4FF4FA7000
:102CF000FFF7F2FF0120FFF7DCFF4FF4FA70FFF758
:102D0000EBFF0020FFF7C8FF4FF4FA70FFF7E4FF76
:102D10000020FFF7CEFF4FF4FA70FFF7DDFF10BD84
:102D200010B50020FFF7C5FF4FF4FA70FFF7D4FF8E
:102D30000020FFF7B1FF4FF4FA70FFF7CDFF01203D
:102D4000FFF7B7FF4FF4FA70FFF7C6FF0120FFF758
:102D5000A3FF4FF4FA70FFF7BFFF10BD10B50524B5
:102D6000FFF77CFF4FF4FA70FFF7B6FF0120FFF783
:102D7000A0FF4FF4FA70FFF7AFFF0CE0601E84B2C3
:102D80004FF4FA70FFF7A8FF2CB9FFF776FFFFF7B3
:102D9000C7FF002010BDFFF799FF0028EED1FFF715
:102DA0006CFF0020FFF785FF4FF4FA70FFF794FFE8
:102DB0000120EFE710B50020FFF76EFF4FF4FA7027
:102DC000FFF78AFF4FF4FA70FFF786FF0120FFF745
:102DD00070FF4FF4FA70FFF77FFF0020FFF769FFE5
:102DE0004FF4FA70FFF778FF10BD10B50120FFF720
:102DF00053FF4FF4FA70FFF76FFF0120FFF759FF01
:102E00004FF4FA70FFF768FF0020FFF752FF4FF40E
:102E1000FA70FFF761FF10BD70B5044608251BE08E
:102E20000020FFF746FF4FF4FA70FFF755FF04F05C
:102E30008000FFF731FF4FF4FA70FFF74DFF600697
:102E4000040E4FF4FA70FFF747FF0120FFF731FF40
:102E50004FF4FA70FFF740FF281EA5F10101CDB233
:102E6000DED1FFF726FF4FF4FA70FFF735FF70BD94
:102E700070B508250024FFF7F1FE16E06006040E89
:102E80000020FFF716FF4FF4FA70FFF725FF4FF40D
:102E9000FA70FFF721FF0120FFF70BFF4FF4FA70E4
:102EA000FFF71AFFFFF712FF0443281EA5F10101E7
:102EB000CDB2E3D1FFF7FDFE4FF4FA70FFF70CFF40
:102EC000FFF7DBFE204670BD08B501210820FDF7A5
:102ED0008BFDC020ADF8000002208DF8020010200C
:102EE0008DF8030069461C48FDF7C2FA08BD70B5AD
:102EF00005460C46FFF7F6FEA020FFF78DFFFFF713
:102F00002DFF2846FFF788FFFFF728FF2046FFF731
:102F100083FFFFF723FFFFF703FF70BD70B5044683
:102F2000FFF7E0FEA020FFF777FFFFF717FF20462F
:102F3000FFF772FFFFF712FFFFF7D4FEA120FFF7A4
:102F40006BFFFFF70BFFFFF793FF0546FFF74DFF02
:102F5000FFF7E6FE284670BD000C014008B50121D0
:102F60000C20FDF741FD40F20110ADF800000420F7
:102F70008DF8030069461E48FDF77AFA0620ADF881
:102F8000000069461B48FDF773FA08BD70B5F024D0
:102F900001211748FDF7FFFA05464FF480711448E8
:102FA000FDF7F9FA45EA400502211248FDF7F3FA68
:102FB00045EA800504210F48FDF7EDFA45EAC00017
:102FC0002043C4B284F0FF040B48007860402040E6
:102FD0000A4908700CB9012000E000200649097870
:102FE00061400840064908700348047070BD000045
:102FF00000080140000C01404F000020500000205C
:103000005100002008B501213020FDF7EDFC4FF400
:103010007F40ADF8000003208DF8020010208DF8ED
:10302000030069462548FDF723FA0420ADF80000A7
:1030300069462348FDF71CFA2048C06840F47F40E9
:103040001E49C8601E480C30006840F004001C494E
:103050000C3108600846006820F00400086008BDD4
:10306000012905D0154AD2680243144BDA6004E006
:10307000124AD2688243114BDA60114A0C3212684C
:1030800042F004020E4B0C331A601A46126822F00A
:1030900004021A6070470949C9684140074AD16073
:1030A00007490C31096841F00401054A0C321160EE
:1030B0001146096821F004011160704700100140B9
:1030C0000014014010B501210420FDF79AFC10BD49
:1030D00008B51E208DF8000000208DF801008DF845
:1030E000020001208DF803006846FDF7E6FC08BDEC
:1030F0003EB50024FFF7E6FFFFF7EAFF124800683D
:103100001249B0FBF1F0401E84B240F2E730ADF856
:103110000400ADF800400020ADF80600ADF8020054
:1031200069460B48FDF706FE012221460848FEF7D6
:1031300004FA012211460648FEF773F901210448FA
:10314000FEF754F93EBD00000000002040420F0091
:103150000008004010B501214FF0C050FDF751FCB0
:103160000120FEF732FDFEF71FFC0120FDF7C2FB38
:1031700000BF6120FDF70DFB0028FAD04FF400706E
:10318000FDF7BBFB0120FDF7BEFBFEF7D4FCFEF70D
:10319000C9FC01210846FEF769FCFEF7C3FC49F6AD
:1031A0004040FEF799FCFEF7BDFC0020FEF707FC4F
:1031B00010BD70B504460D461646FEF7B3FC4FF43D
:1031C00061616143C5EB051201EB82018819FEF7CD
:1031D00076FCFEF7A7FC70BD10B5FEF767FC044651
:1031E0001348844204D10020FEF769FCFEF79AFCE4
:1031F0004FF46160B4FBF0F00E4908604FF4616079
:10320000B4FBF0F100FB11403C21B0FBF1F00A49A6
:1032100008604FF46160B4FBF0F100FB11403C2109
:10322000B0FBF1F201FB12000449086010BD000080
:103230008051010054000020580000205C00002054
:1032400010B501210220FDF7DCFB01210520FDF76F
:10325000CBFB10BD08B5C020ADF8000018208DF8DC
:10326000030003208DF802006946A448FDF700F929
:1032700008BD08B51D208DF8000001208DF8010063
:1032800000208DF8020001208DF803006846FDF74C
:1032900014FC08BD2DE9F04788B081460C464FF07C
:1032A000000AFFF7CDFFFFF7D5FF9548FDF76EFC4D
:1032B000B9F1000F00D10CB3FFF7DBFF91480068B4
:1032C0009149B0FBF1F0401E1FFA80FA4FF6FF70F3
:1032D000ADF81800ADF814A00020ADF81A00ADF854
:1032E000160005A98648FDF725FD3020ADF804003D
:1032F0000120ADF806000220ADF80C00B9F1000F76
:1033000008D102217E48FEF723FA50217C48FEF7BF
:1033100041F91DE0484600F050FB07467B4A7C4BD4
:1033200000F05EFB054600F017FB7A4908607A481A
:103330000088ADF80A0001A97148FDF738FD0021A9
:103340006F48FEF783F9012202216D48FEF769F804
:1033500044B902216A48FEF70DFA50216848FEF789
:1033600022F91DE0204600F028FB0746674A684B1B
:1033700000F036FB054600F0EFFA6849086068483F
:103380000088ADF80A0001A95D48FDF752FD002153
:103390005B48FEF764F9012204215948FEF741F821
:1033A00001215748FEF722F808B0BDE8F0872DE963
:1033B000F047002402215248FEF7E1FA00284AD0E3
:1033C00002214F48FEF7ECFA4D48FEF7B9FA0446E1
:1033D00054480078D0B15048008800F081FC814604
:1033E0004C480168484600F08FFC0746204600F034
:1033F00077FC8046394600F0F1FB064600F050FCB1
:1034000085B229463E48FEF789FA1EE04148016828
:103410004FF07E5000F044FD81463F48008800F0A8
:103420005FFC8246494600F06FFC0746204600F0EC
:1034300057FC8046394600F0D1FB064600F030FCD0
:1034400085B229462E48FEF769FA3648007880F0A2
:1034500001003449087004212948FEF790FA002839
:103460004AD004212648FEF79BFA2548FEF76BFA5E
:1034700004462D480078D0B12948008800F030FC7F
:10348000814626480168484600F03EFC0746204633
:1034900000F026FC8046394600F0A0FB064600F00E
:1034A000FFFB85B229461648FEF73AFA1EE01B4894
:1034B00001684FF07E5000F0F3FC81461848008808
:1034C00000F00EFC8246494600F01EFC07462046EE
:1034D00000F006FC8046394600F080FB054600F00F
:1034E000DFFB86B231460648FEF71AFA0E4800782E
:1034F00080F001000C490870BDE8F0870008014029
:10350000000400400000002040420F007B14AE4742
:10351000E17A843F64000020600000206800002001
:10352000620000206C0000206D0000200FB41CB56C
:10353000074B06AA7B4469460090059800F08DF978
:103540000020694600F09CF91CBC5DF814FB0000EB
:103550004903000070B5044685690068C10601D5BD
:10356000302600E02026C00707D070BDD4E9012135
:1035700030469047206A401C20626D1EF6D570BD13
:1035800070B5044685690078C00707D170BDD4E9DD
:10359000012120209047206A401C20626D1EF6D534
:1035A00070BD00002DE9F041064600241068752921
:1035B000314616A510D0AFF30080002802DA404251
:1035C00013A507E031688A0701D512A502E0490773
:1035D00004D511A5012401E0AFF3008000210A22E7
:1035E00006F1240709E0B0FBF2FCB0FBF2F302FBAA
:1035F0001C00303078541846491C0028F3D123466B
:103600002A463046BDE8F04100F0C9B8000000008D
:103610002D0000002B000000200000002DE9F05FCD
:10362000894604464FF0000ADFF824B1FB44C0F895
:1036300020A02046E168884700287DD0252806D0B4
:10364000D4E901219047206A401C2062F1E700255F
:103650005F462046E16888472028064607DB312E72
:1036600005D2B81910F8200C08B10543F1E7A807F6
:1036700001D525F00405C4F81CA00027C4F818A043
:103680002A2E09D0304600F060F938B304EB8708E1
:10369000303EC8F8186019E059F8041B204604EBC6
:1036A00087029161E1688847012F064618D1E069D9
:1036B000002820DA25F020051DE0D8F8180000EBDE
:1036C000800006EB40003038C8F818002046E1685A
:1036D0008847064600F039F90028EED1012F0AD0BC
:1036E0002E2E08D12046E16888477F1C0646022F0F
:1036F00045F02005C4DBA069002803DA404245F00C
:103700000105A061E80701D025F01005A6B1A6F1DA
:103710004100192802D8203645F400654A46314652
:10372000204625604D46FCF71BFD60B1012807D0FF
:10373000ED1D25F0070000E007E000F1080978E73B
:1037400005F1040975E730467AE7206ABDE8F09F85
:103750002A1B00004FF000020429C0F0128010F074
:10376000030C00F09480CCF1040CBCF1020F18BFE4
:1037700000F8012BA8BF20F8022BA1EB0C0100F0F0
:1037800086B85FEAC17C24BF00F8012B00F8012B4A
:1037900048BF00F8012B70477047704770472DE90C
:1037A000F0470D4699469246044600F12408016808
:1037B000880604D5E06921F01001216000E00120B5
:1037C000A84201DD471B00E00027A1697A1902EB3E
:1037D0000900081AA0612078C00602D42046FFF72D
:1037E000B9FE002608E0D4E901211AF80600904746
:1037F000206A401C761C20624E45F4DB2078C0060F
:103800000AD52046FFF7A6FE06E0D4E901213020C4
:103810009047206A401C2062381EA7F10107F4DCA3
:1038200007E0D4E9012118F805009047206A401C00
:103830002062281EA5F10105F3DC2046FFF7A0FE5B
:103840002078000602D50220BDE8F0870120FBE7C2
:1038500001694A1C02610878704700B58FB0CDE954
:1038600001310021059105497944CDE90310114644
:103870006846FFF7D3FE0FB000BD0000E5FFFFFF75
:103880000A6802F8010B0A6070474FF0000200B5A9
:10389000134694469646203922BFA0E80C50A0E873
:1038A0000C50B1F12001BFF4F7AF090728BFA0E821
:1038B0000C5048BF0CC05DF804EB890028BF40F8ED
:1038C000042B08BF704748BF20F8022B11F0804F2F
:1038D00018BF00F8012B7047754600F02BF8AE4674
:1038E00005006946534620F00700854618B020B50C
:1038F000FCF75CFCBDE820404FF000064FF00007ED
:103900004FF000084FF0000B21F00701AC46ACE887
:10391000C009ACE8C009ACE8C009ACE8C0098D46F4
:10392000704710B50446AFF300802046BDE8104054
:10393000FCF728BC0048704784000020014918208B
:10394000ABBEFEE726000200704730380A2801D2DD
:10395000012070470020704721F00042A2F1605220
:10396000B2F5801F01F0004328BFD2F17F6C0BD964
:103970005FEA001C43EAC20242EB507018BF704776
:1039800028BF20F001007047B2F5801FBCBF184669
:1039900070474FEA410C1CF5001F02D2084600F0A8
:1039A0007ABA70B500F0C6F800000089FFF7F6BFDC
:1039B0004FF00040A0F580007047B0FA80F310FA95
:1039C00003F10AD0C3F11D0303F580634FEA4150B0
:1039D0004FEA035202EBD12170474FF000007047CD
:1039E000DFF848C170B51CEA111E1EBF1CEA131592
:1039F0009EEA0C0F95EA0C0F00F06F8081EA030439
:103A000023EA4C134EEAD47E21EA4C1141F4801192
:103A100043F48013AE44A1FB024CA0FB0365AEF15E
:103A20007F7E361955EB0C05A1FB034C4CF10003CE
:103A3000A0FB021C16EB0C06654153F10003094282
:103A400018BF46F0010613F4007F0BD14FEA033193
:103A50004FEA0530340341EA155140EA16506FF041
:103A600003020AE04FEAC3214FEAC520F40241EA0B
:103A7000555140EA56506FF0020202EB2E4201EB24
:103A8000025585EACE710AD05FEA440C18BF24F0D3
:103A9000004450F1000041F1000120EAD47040F2EE
:103AA000FE7C624500D270BDA84214BF4FF0804436
:103AB0004FF04044002E08BF0024BEF1806FA8BF25
:103AC000A1F1C041BDE8704080F282804FF000005B
:103AD00001F1C04101F0004170479EEA0C0F0CEA71
:103AE000131518BF95EA0C0F06D04FF0000081EABD
:103AF000030E0EF0004170BD00F01CF88900013E7D
:103B000000F007B800F009B84FEA430C5FEA5C5CCC
:103B100008D081EA030100F05BB84FEA410C5FEA8C
:103B20005C5CF6D14FF00000014970470000FF07D0
:103B30000000F87F0EF1020E2EF0030E5EF8046B0B
:103B4000364205D4012A43EB030515F5001F12D8B0
:103B5000012841EB010C1CF5001F0CD80ED14FEAD7
:103B6000D17C15F5001F0CEB4C0C0CF1020C08BFBE
:103B70004CEBD37C04E04FF0080C01E04FEAD37C1F
:103B80000CEB4C0526FA05F606F00706B6F1040C18
:103B900006D20EEB860CBDE870404CF0010C60477D
:103BA000DFE80CF0090B02024FF000414FF000007B
:103BB000A1F5002170BD19461046012851EB010402
:103BC00018BFD4F5001484BF002001F0004170BD7F
:103BD0000808A0F500114FEA3101704790EA010F83
:103BE00048BF81F0004100F16281421A3CBF801A57
:103BF00089184FEAD0524FF07F4C1CEA410FA2EBDC
:103C0000D15318BF9CEA026F00F03B804FF0004C8C
:103C10004CEA00204CEA012121FA03FC10EB0C0CC9
:103C20001ED202F1FF325FEA1C2040EBC25038BFC7
:103C300070471CF07F0F4FEA400C18BFBCF17F4F5C
:103C400038BF7047C3F12003994008BF20F001003E
:103C5000BCF17F4F38BF7047A0F1C04000F01BB9E6
:103C60004FEA3C00000A40EBC25028BF1CF0FF0F97
:103C70004FEA400CE6D018BFBCF17F4F38BF704709
:103C8000EAE79CEA026F05D010EA5C0F08BF00F07B
:103C90000040704710B500F0B8F800BF64FBBE3EAE
:103CA000C10DD1F19E0206DB4FEA002343F0004331
:103CB00023FA02F07047004207D54FEA4001B1F104
:103CC000FE4F02D24FF00000704710B500F09DF893
:103CD00049922480002070476FEA2000704700005E
:103CE000B0FA80F310FA03F2C3F19D030AD0D905AC
:103CF00001EB1220530638BF704700F1010008BFE6
:103D000020F00100704700004FF47F0C1CEAD01235
:103D10001EBF1CEAD11392EA0C0F93EA0C0F00F0BD
:103D2000478090EA010F48BF42F480724FF0004C88
:103D30004CEA00204CEA012102EB0302A0FB011334
:103D4000A2F50002002918BF43F001035B0028BF61
:103D50004FEA330342EB22425FEA132C4CEBC25092
:103D60002EBFBCEB436FB2F57C0F70474FEA036C7C
:103D7000BCF1004F08BF20F00100B2F57C0F38BF46
:103D800070470BD582F0FF0212F5803FC8BF704725
:103D900000F1C040D8BF00F00040704700F5000CB3
:103DA0005FEA4C0C48BF7047B0F1C04000F073B8F8
:103DB00090EA010F0CEAD11348BF42F480726245C9
:103DC00038BF634504D280EA010000F0004070472C
:103DD00010B500F01AF800BF8900013E00F007B8E6
:103DE00000F009B85FEA410C5FEA1C6C08D080EA79
:103DF000010000F050B85FEA400C5FEA1C6CF6D19D
:103E00004FF00040A0F5800070470EF1020E2EF03A
:103E1000030E5EF8044B244204D44FEA4102B2F18F
:103E20007F4F11D84FEA4003B3F17F4F0CD80ED12A
:103E30004FEAD07CB2F17F4F0CEB4C0C0CF1020C32
:103E400008BF4CEBD17C04E04FF0080C01E04FEAD6
:103E5000D17C0CEB4C0324FA03F404F00704B4F116
:103E6000040C06D20EEB840CBDE810404CF0010CA3
:103E70006047DFE80CF0070802024FF00040A0F5B1
:103E8000800010BD0846420018BFD2F1807288BF82
:103E900000F0004010BDFF2141EAD050C00570473E
:103EA00090EA010F48BF81F000413FF59EAE421AF3
:103EB00004D882F00042A0EB020011444FEAD05235
:103EC0004FF07F4C1CEA410FA2EBD15318BF9CEA84
:103ED000026F4AD04FF0004C4CEA00204CEA01211E
:103EE00021FA03FCB0EB0C0C0FD412F0FE0F36D00D
:103EF0005FEA4C001DD5001240EBC25038BF70473E
:103F00001CF03F0F18BF70470BE0A2F101025FEAFF
:103F10001C2040EBC25038BF70471CF07F0F18BF09
:103F20007047C3F12003994014BF401E20F00100E8
:103F3000704780084FEA122308BF7047B0FA80FC30
:103F4000A2EB0C02CCF1280C60FA0CF093EA122FD1
:103F500004BF00EBC25070474FEAC3707047130AAA
:103F60005FEADC1008BF7047F6E79CEA026F04D0F6
:103F700010EA5C0F08BF0020704710B5FFF745FF3F
:103F800040DFF63E81F00040704700000000000076
:103F90000000000000000000000000000000000021
:103FA0000000000000000000000000000000000011
:103FB00000000000000000000000000080018001FF
:103FC00080018001800180018001800180018001E9
:103FD000800180018001000000008001800100005C
:103FE0000000000000000000000000000000CC0005
:103FF000CC00CC00CC00CC00CC00000000000000C5
:1040000000000000000000000000000000000000B0
:1040100000000000000000000000000000000000A0
:10402000000000000000600C600C600C30063006E0
:10403000FE1FFE1F300638071803FE1FFE1F180361
:1040400018038C018C018C01000000008000E0034B
:10405000F80F9C0E8C1C8C188C009800F801E0075F
:10406000800E801C8C188C189C18B80CF00FE00384
:104070008000800000000000000000000000000040
:104080000E181B0C110C11061106110311039B01D4
:104090008E01C038C06C60446044304430441844E1
:1040A000186C0C380000000000000000E001F00374
:1040B0003807180618063003F001F000F8009C31AC
:1040C0000E33061E061C061C063FFC73F021000082
:1040D00000000000000000000000000000000C00D4
:1040E0000C000C000C000C000C0000000000000094
:1040F00000000000000000000000000000000000C0
:1041000000000000000000000000000000020003AA
:104110008001C000C000600060003000300030004E
:104120003000300030003000300060006000C0001F
:10413000C0008001000300020000000020006000B9
:10414000C000800180010003000300060006000695
:1041500000060006000600060006000300038001BA
:104160008001C0006000200000000000000000008E
:10417000000000000000C000C000D806F807E00101
:1041800030033807000000000000000000000000BD
:10419000000000000000000000000000000000001F
:1041A000000000000000800180018001800180018A
:1041B000FC3FFC3F80018001800180018001000004
:1041C00000000000000000000000000000000000EF
:1041D00000000000000000000000000000000000DF
:1041E00000000000000000000000000080018001CD
:1041F000000100018000000000000000000000003D
:1042000000000000000000000000000000000000AE
:104210000000E007E00700000000000000000000D0
:10422000000000000000000000000000000000008E
:10423000000000000000000000000000000000007E
:10424000000000000000000000000000C000C000EE
:10425000000000000000000000000000000C000C46
:10426000000600060006000300030003800380012F
:1042700080018001C000C000C0006000600000003C
:10428000000000000000000000000000E003F00754
:10429000380E180C0C180C180C180C180C180C18DC
:1042A0000C180C180C18180C380EF007E00300005E
:1042B000000000000000000000000000000180017C
:1042C000C001F00198018801800180018001800116
:1042D0008001800180018001800180018001000057
:1042E000000000000000000000000000E003F80FE4
:1042F000180C0C180C1800180018000C000600030D
:104300008001C000600030001800FC1FFC1F00008E
:10431000000000000000000000000000E001F807BD
:10432000180E0C0C0C0C000C0006C003C007000C8F
:10433000001800180C180C18180CF807E0030000FF
:10434000000000000000000000000000000C000E53
:10435000000F000F800DC00C600C600C300C180CAE
:104360000C0CFC3FFC3F000C000C000C000C00008F
:10437000000000000000000000000000F80FF80F2F
:10438000180018000C00EC03FC071C0E001C0018A1
:10439000001800180C181C0C180EF807E003000099
:1043A000000000000000000000000000C007F00F47
:1043B000381C181818000C00CC03EC0F3C0E1C1C09
:1043C0000C180C180C18181C380EF007E00300002D
:1043D000000000000000000000000000FC1FFC1FA7
:1043E000000C00060006000380038001C001C0002D
:1043F000E00060006000700030003000300000001D
:10440000000000000000000000000000E003F007D2
:10441000380E180C180C180C3806F007F007180C9A
:104420000C180C180C180C18380CF80FE0030000CE
:10443000000000000000000000000000E003F007A2
:10444000380E1C0C0C180C180C181C1C381EF81BF1
:10445000E0190018000C000C1C0EF807F001000019
:10446000000000000000000000000000000000004C
:10447000000000000000800180010000000000003A
:10448000000000000000000000008001800100002A
:10449000000000000000000000000000000000001C
:1044A000000000000000800180010000000000000A
:1044B00000000000000000000000800180010001F9
:1044C000000180000000000000000000000000006B
:1044D000000000000000000000000010001C800F21
:1044E000E003F8001800F800E003800F001C001043
:1044F00000000000000000000000000000000000BC
:1045000000000000000000000000F81F0000000094
:104510000000F81F00000000000000000000000084
:10452000000000000000000000000000000000008B
:104530000000000000000000000008003800F0014A
:10454000C007001F0018001FC007F0013800080056
:10455000000000000000000000000000E003F80F71
:10456000180C0C180C180018000C00060003800131
:10457000C000C000C00000000000C000C00000007B
:104580000000000000000000000000000000E00744
:1045900018180420C229224A114409440944094434
:1045A00009221113E20C024004201818E007000051
:1045B00000000000000000000000000080038003F5
:1045C000C006C006C006600C600C301830183018E9
:1045D000F83FF83F1C700C600C6006C006C000007D
:1045E000000000000000000000000000FC03FC0FC1
:1045F0000C0C0C180C180C180C0CFC07FC0F0C18ED
:104600000C300C300C300C300C18FC1FFC07000078
:10461000000000000000000000000000C007F01FC4
:1046200038381C300C7006600600060006000600D4
:104630000600060006600C701C30F01FE00700004A
:10464000000000000000000000000000FE03FE0F5C
:10465000060E0618061806300630063006300630FC
:104660000630063006180618060EFE0FFE03000080
:10467000000000000000000000000000FC3FFC3FC4
:104680000C000C000C000C000C00FC1FFC1F0C00AC
:104690000C000C000C000C000C00FC3FFC3F000068
:1046A000000000000000000000000000F83FF83F9C
:1046B00018001800180018001800F81FF81F18003C
:1046C0001800180018001800180018001800000042
:1046D000000000000000000000000000E00FF83FB4
:1046E0003C780E6006E007C00300030003FE03FEF3
:1046F00003C007C006C00EC03CF0F83FE00F00004A
:104700000000000000000000000000000C300C3031
:104710000C300C300C300C300C30FC3FFC3F0C30BB
:104720000C300C300C300C300C300C300C300000E5
:104730000000000000000000000000008001800177
:104740008001800180018001800180018001800161
:1047500080018001800180018001800180010000D2
:10476000000000000000000000000000000600063D
:104770000006000600060006000600060006000609
:1047800000060006180618063807F003E0010000CE
:1047900000000000000000000000000006300618C5
:1047A000060C060606038601C60066007600DE00DB
:1047B0008E0106030606060C061806300660000089
:1047C00000000000000000000000000018001800B9
:1047D0001800180018001800180018001800180019
:1047E00018001800180018001800F81FF81F000023
:1047F0000000000000000000000000000EE01EF0BD
:104800001EF01EF036D836D836D836D866CC66CCF0
:1048100066CCC6C6C6C6C6C6C6C686C386C30000A4
:104820000000000000000000000000000C301C3000
:104830003C303C306C306C30CC30CC308C310C3374
:104840000C330C360C360C3C0C3C0C380C30000095
:10485000000000000000000000000000E007F81F5A
:104860001C380E70066003C003C003C003C003C041
:1048700003C003C006600E701C38F81FE00700007C
:10488000000000000000000000000000FC0FFC1F02
:104890000C380C300C300C300C300C18FC1FFC07A2
:1048A0000C000C000C000C000C000C000C000000B4
:1048B000000000000000000000000000E007F81FFA
:1048C0001C380E70066003E003C003C003C003C0C1
:1048D00003C007E006630E3F1C3CF83FE0F700C052
:1048E000000000000000000000000000FE0FFE1F9E
:1048F00006380630063006300638FE1FFE0706036F
:104900000606060C0618061806300630066000007B
:10491000000000000000000000000000E003F80FAD
:104920001C0C0C180C180C001C00F803E00F001EE7
:104930000038063006300E301C1CF80FE00700006F
:10494000000000000000000000000000FE7FFE7F6D
:10495000800180018001800180018001800180014F
:1049600080018001800180018001800180010000C0
:104970000000000000000000000000000C300C30BF
:104980000C300C300C300C300C300C300C300C3047
:104990000C300C300C300C301818F81FE0070000F9
:1049A000000000000000000000000000036006306E
:1049B000063006300C180C180C18180C180C380E91
:1049C00030063006700760036003C001C0010000BC
:1049D0000000000000000000000000000360C36150
:1049E000C361C361663366336633663366336633E9
:1049F0006C1B6C1B6C1B2C1A3C1E380E380E0000F6
:104A00000000000000000000000000000FE00C703B
:104A100018303018700C600EC00780038003C0038C
:104A2000E006700C301C18180C300E6007E0000017
:104A300000000000000000000000000003C006604D
:104A40000C301C383818300C6006E007C0038001B9
:104A500080018001800180018001800180010000CF
:104A6000000000000000000000000000FC7FFC7F50
:104A7000006000300018000C000600038001C00038
:104A80006000300018000C000600FE7FFE7F000072
:104A9000000000000000000000000000E003E00350
:104AA0006000600060006000600060006000600006
:104AB00060006000600060006000600060006000F6
:104AC00060006000E003E003000000003000300000
:104AD000600060006000C000C000C000C001800134
:104AE00080018001000300030003000600060000AF
:104AF000000000000000000000000000E003E003F0
:104B0000000300030003000300030003000300038D
:104B1000000300030003000300030003000300037D
:104B200000030003E003E003000000000000C001F8
:104B3000C00160036003600330063006180C180CD7
:104B40000000000000000000000000000000000065
:104B50000000000000000000000000000000000055
:104B60000000000000000000000000000000000045
:104B7000000000000000000000000000FFFFFFFF39
:104B80000000000000000000000000000C000C000D
:104B90000C000C000C000C000000000000000000E5
:104BA0000000000000000000000000000000000005
:104BB00000000000000000000000000000000000F5
:104BC000000000000000F003F8071C0C0C0C000FA4
:104BD000F00FF80C0C0C0C0C1C0FF80FF018000068
:104BE0000000000000000000000000001800180095
:104BF000180018001800D803F80F380C18181818E7
:104C00001818181818181818380CF80FD8030000BE
:104C10000000000000000000000000000000000094
:104C2000000000000000C003F007300E180C180050
:104C3000180018001800180C300EF007C003000010
:104C40000000000000000000000000000018001834
:104C5000001800180018C01BF01F301C1818181876
:104C60001818181818181818301CF01FC01B00004E
:104C70000000000000000000000000000000000034
:104C8000000000000000C003F00F300C1818F81FDF
:104C9000F81F180018003818301CF00FC00700006B
:104CA000000000000000000000000000800FC00FA6
:104CB000C000C000C000F007F007C000C000C00086
:104CC000C000C000C000C000C000C000C0000000A4
:104CD00000000000000000000000000000000000D4
:104CE000000000000000E00DF80F180E0C0C0C0C7A
:104CF0000C0C0C0C0C0C0C0C180EF80FE00D000C2E
:104D00000C0C1C06F807F001000000001800180049
:104D1000180018001800D807F80F381C18181818B1
:104D20001818181818181818181818181818000033
:104D3000000000000000000000000000C000C000F3
:104D4000000000000000C000C000C000C000C000A3
:104D5000C000C000C000C000C000C000C000000013
:104D6000000000000000000000000000C000C000C3
:104D7000000000000000C000C000C000C000C00073
:104D8000C000C000C000C000C000C000C000C00023
:104D9000C000C000F8007800000000000C000C000B
:104DA0000C000C000C000C0C0C060C038C01CC004D
:104DB0006C00FC009C018C030C030C060C0C000026
:104DC000000000000000000000000000C000C00063
:104DD000C000C000C000C000C000C000C000C000D3
:104DE000C000C000C000C000C000C000C000000083
:104DF00000000000000000000000000000000000B3
:104E00000000000000007C3CFF7EC7E383C183C13B
:104E100083C183C183C183C183C183C183C10000B6
:104E20000000000000000000000000000000000082
:104E30000000000000009807F80F381C1818181818
:104E40001818181818181818181818181818000012
:104E50000000000000000000000000000000000052
:104E6000000000000000C003F00F300C18181818E4
:104E70001818181818181818300CF00FC003000074
:104E80000000000000000000000000000000000022
:104E9000000000000000D803F80F380C181818188C
:104EA0001818181818181818380CF80FD803180004
:104EB0001800180018001800000000000000000092
:104EC000000000000000C01BF01F301C181818184C
:104ED0001818181818181818301CF01FC01B0018C4
:104EE0000018001800180018000000000000000062
:104EF000000000000000B007F00370003000300038
:104F00003000300030003000300030003000000051
:104F10000000000000000000000000000000000091
:104F2000000000000000E003F003380E180C380009
:104F3000F003C007000C180C380EF007E003000067
:104F400000000000000000000000000000008000E1
:104F5000C000C000C000F007F007C000C000C000E3
:104F6000C000C000C000C000C000C0078007000033
:104F70000000000000000000000000000000000031
:104F80000000000000001818181818181818181831
:104F90001818181818181818381CF01FE0190000F5
:104FA0000000000000000000000000000000000001
:104FB0000000000000000C18180C180C180C30062B
:104FC00030063006600360036003C001C0010000CA
:104FD00000000000000000000000000000000000D1
:104FE000000000000000C141C141C361636363630D
:104FF00063633636363636361C1C1C1C1C1C0000FF
:1050000000000000000000000000000000000000A0
:105010000000000000001C38381C300C60066003E3
:105020006003600360036006300C381C1C3800000D
:105030000000000000000000000000000000000070
:105040000000000000001830301830187018600C94
:10505000600CE00CC006C006800380038003800162
:105060008001C001F000700000000000000000009E
:10507000000000000000FC1FFC1F000C00060003E5
:105080008001C000600030001800FC1FFC1F000001
:10509000000000000000000000000000000380018C
:1050A000C000C000C000C000C000C00060006000C0
:1050B000300060004000C000C000C000C000C00060
:1050C000C00080010003000000000000800180019A
:1050D00080018001800180018001800180018001C8
:1050E00080018001800180018001800180018001B8
:1050F0008001800180018001000000006000C0008C
:10510000C001800180018001800180010003000353
:105110000006000300018001800180018001800100
:105120008001C000600000000000000000000000DE
:1051300000000000000000000000F010F81F080F41
:10514000000000000000000000000000000000005F
:105150000000000000000000000004000008000043
:105160000000000000020001000010008C51000847
:10517000000000207000000028010008FC51000819
:1051800070000020780600004401000800A24A04D4
:1051900000000000000000000102030406070809E7
:1051A00000000000010203040102030406070809CD
:1051B000020406080000FFFF000000000100E803F1
:1051C00000000000000000000000000000000000DF
:1051D00000000010000100000000000000000000BE
:1051E000000000000000000000000000E803F401DF
:0C51F000CDCC4C3F9A99193F0000000004
:04000005080000ED02
:00000001FF
