:020000040800F2
:10000000D0060020A90100081D2F00081F2F00089E
:10001000232F0008272F00082B2F000800000000C6
:10002000000000000000000000000000312F000868
:100030002F2F000800000000332F0008352F000884
:10004000C3010008C3010008C3010008C301000880
:10005000C3010008C3010008C3010008C301000870
:10006000C3010008C3010008C3010008C301000860
:10007000C3010008C3010008C3010008C301000850
:10008000C3010008C3010008C3010008C301000840
:10009000C3010008C3010008C3010008C301000830
:1000A000C3010008C3010008C3010008C301000820
:1000B000C301000843360008D52D0008C30100081D
:1000C000C3010008C3010008C3010008C301000800
:1000D000C3010008C3010008C3010008C3010008F0
:1000E000C3010008C3010008C301000800F002F8C2
:1000F00000F04AF80AA090E8000C82448344AAF178
:100100000107DA4501D100F03FF8AFF2090EBAE875
:100110000F0013F0010F18BFFB1A43F0010318473B
:100120005C6900007C690000103A24BF78C878C17F
:10013000FAD8520724BF30C830C144BF04680C60ED
:10014000704700000023002400250026103A28BF35
:1001500078C1FBD8520728BF30C148BF0B60704739
:10016000662905F05683642903F07C8300207047DC
:100170001FB503F009FF04000020002104F04CFC2F
:10018000E0601FBD10B510BD03F0FAFF1146FFF788
:10019000EFFF02F0D6FD04F018F803B4FFF7F2FF0A
:1001A00003BC04F05BF80000094880470948004799
:1001B000FEE7FEE7FEE7FEE7FEE7FEE7FEE7FEE717
:1001C000FEE7FEE704480549054A064B7047000074
:1001D000C7020008ED000008D0000020D006002073
:1001E000D0020020D00200200CB500200190009029
:1001F0006C48006840F480306A49086000BF694874
:10020000006800F4003000900198401C01900098B4
:1002100018B90198B0F5A06FF1D16248006800F4F8
:10022000003010B10120009001E000200090009803
:10023000012843D15C48006840F010005A4908602A
:100240000846006820F0030008600846006840F097
:1002500002000860534840685249486008464068B8
:1002600048600846406840F480604860084640683E
:1002700020F47C1048600846406840F4E81048606C
:100280000846006840F08070086000BF454800687C
:1002900000F000700028F9D04248406820F00300C8
:1002A000404948600846406840F00200486000BF8E
:1002B0003C48406800F00C000828F9D10CBD10B58E
:1002C000FFF792FF10BD10B53648006840F00100FE
:1002D000344908600846406834490840314948605C
:1002E00008460068324908402E4908600846006800
:1002F00020F4802008600846406820F4FE00486032
:100300004FF41F008860FFF7DAFF4FF000602949C3
:10031000086010BD10B5002100200022214B5B6851
:1003200003F00C0121B1042906D0082928D107E0E7
:10033000214B224C236027E01F4B204C236023E0FD
:10034000184B5B6803F47010164B5B6803F4803243
:10035000022303EB904022B9194B4343174C23600F
:100360000DE0104B5B6803F4003323B1144B43439F
:10037000124C236003E0104B4343104C236003E016
:100380000D4B0E4C236000BF00BF064B5B68C3F3F0
:1003900003130C4CE15C094B1B68CB40074C2360FA
:1003A00010BD000000100240002002400000FFF8D5
:1003B000FFFFF6FE08ED00E000127A0000000020CA
:1003C00000093D000400002010B50446CC488442DA
:1003D00008D10121042000F02DFB0021042000F0B1
:1003E00029FB46E0C748844208D10121082000F0DB
:1003F00021FB0021082000F01DFB3AE0C2488442A6
:1004000008D10121102000F015FB0021102000F080
:1004100011FB2EE0BD48844208D10121202000F0CC
:1004200009FB0021202000F005FB22E0B8488442AF
:1004300008D10121402000F0FDFA0021402000F009
:10044000F9FA16E0B348844208D10121802000F077
:10045000F1FA0021802000F0EDFA0AE0AE48844273
:1004600007D10121801500F0E5FA0021A01500F068
:10047000E1FA10BD10B50121084600F0DBFA0021B9
:10048000012000F0D7FA10BD2DE9F0410246002509
:100490000026002000230024002791F803C00CF060
:1004A0000F0591F803C00CF0100CBCF1000F03D045
:1004B00091F802C04CEA050591F800C0BCF1000FAC
:1004C00031D0146800202BE04FF0010C0CFA00F33F
:1004D000B1F800C00CEA03069E4220D183004FF021
:1004E0000F0C0CFA03F7BC4305FA03FC4CEA0404B6
:1004F00091F803C0BCF1280F06D14FF0010C0CFAA3
:1005000000FCC2F814C00AE091F803C0BCF1480F27
:1005100005D14FF0010C0CFA00FCC2F810C0401CD1
:100520000828D1D31460B1F800C0BCF1FF0F34DD4E
:10053000546800202EE000F1080C4FF0010808FA82
:100540000CF3B1F800C00CEA03069E4221D18300EF
:100550004FF00F0C0CFA03F7BC4305FA03FC4CEA0E
:10056000040491F803C0BCF1280F05D100F1080C78
:1005700008FA0CF8C2F8148091F803C0BCF1480FD7
:1005800007D100F1080C4FF0010808FA0CF8C2F886
:100590001080401C0828CED35460BDE8F0814FF68F
:1005A000FF710180022181700421C17070470246F1
:1005B000002093680B400BB1012000E00020704741
:1005C0000146886880B2704702460020D3680B401D
:1005D0000BB1012000E0002070470146C86880B2DE
:1005E000704701617047416170470AB1016100E0E5
:1005F00041617047C16070474FF480320A438261A5
:100600008161826182698269704702460020434BA2
:1006100018684FF68073184040EA021008433F4BB9
:10062000186070473E49C8617047F0B50A4600231C
:1006300000240021002500F00046B6F1004F02D151
:10064000364EF16901E0354E7168C0F3034583B25F
:1006500000F44016B6F5401F08D121F070612F4E0E
:10066000766826F070662D4F7E6012E000F48016EA
:10067000B6F5801F06D1032606FA05F4A14341F022
:10068000706106E0460D360103FA06F6B14341F00B
:10069000706122B1460D360103FA06F6314300F0CF
:1006A0000046B6F1004F02D11C4EF16101E01B4E35
:1006B0007160F0BD30B500228B071C0F0F2303FAC9
:1006C00004F2164B08338C1053F824309343134C28
:1006D00008348D1044F8253023468C1053F824300C
:1006E0008C07240F00FA04F423430C4C08348D10BB
:1006F00044F8253030BD0A49DC31086070470000FD
:1007000000080140000C01400010014000140140AD
:1007100000180140001C0140002001400000014081
:1007200000002042DF48006840F00100DD49086019
:1007300008464068DC490840DA49486008460068D5
:10074000DA490840D74908600846006820F480204C
:1007500008600846406820F4FE0048604FF41F001F
:1007600088607047CF49096821F48031CD4A116013
:100770001146096821F480211160B0F5803F03D053
:10078000B0F5802F0ED106E0C649096841F48031EA
:10079000C44A116007E0C349096841F4A021C14A75
:1007A000116000E000BF00BF704710B50146002295
:1007B000002300204A11012A02D1BA4C236806E026
:1007C000022A02D1B74C236A01E0B64C636A01F0F9
:1007D0001F02012494401C400CB1012000E00020C5
:1007E00010BD38B5002000900024002500BF312046
:1007F000FFF7DBFF05460098401C00900098B0F51D
:10080000A06F01D0002DF2D03120FFF7CEFF08B14C
:10081000012400E00024204638BD01460020A14A02
:10082000106820F0F80040EAC10010607047A0494D
:1008300008607047024600209A4B586820F47C10EC
:1008400042EA01031843974B58607047984908667D
:10085000704701460020934A506820F00300084387
:10086000506070478F48406800F00C0070470146A8
:1008700000208C4A506820F0F00008435060704718
:1008800001460020874A506820F4E0600843506029
:10089000704701460020834A506820F4605040EAC7
:1008A000C1005060704729B17E4A527A02437D4BA5
:1008B0005A7204E07B4A527A82437A4B5A727047EA
:1008C0007B49D8310860704701460020754A50685E
:1008D00020F440400843506070470021714A2032A4
:1008E0001170704A82F82010012802D004280AD121
:1008F00004E001216B4A2032117005E00521694AAC
:100900002032117000E000BF00BF704769490860E5
:1009100070476449096A0143624A11627047654938
:1009200044390860704730B50021002200240023BC
:100930005C4D6D6805F00C0121B1042905D0082932
:1009400023D105E05C4D056022E05B4D05601FE0B2
:10095000544D6D6805F47012524D6D6805F4803485
:10096000022505EB92421CB9544D554305600BE03E
:100970004C4D6D6805F400351DB1504D5543056073
:1009800002E04D4D5543056002E04B4D056000BF50
:1009900000BF444D6D6805F0F0010909484D6B5CDE
:1009A0000568DD4045603F4D6D6805F4E061090A6A
:1009B000434D6B5C4568DD4085603A4D6D6805F4DC
:1009C0006051C90A3E4D6B5C4568DD40C560354DE0
:1009D0006D6805F44041890B3A4D6B5CC568B5FB09
:1009E000F3F5056130BD29B12E4A526902432D4B02
:1009F0005A6104E02B4A526982432A4B5A6170477C
:100A000029B1284A92690243264B9A6104E0254A9B
:100A100092698243234B9A61704729B1214AD26976
:100A20000243204BDA6104E01E4AD26982431D4B27
:100A3000DA61704729B11B4AD2680243194BDA6068
:100A400004E0184AD2688243164BDA60704729B135
:100A5000144A12690243134B1A6104E0114A1269E5
:100A60008243104B1A617047124940390860704741
:100A70000F49C86470470B49C87170470948406AFC
:100A800040F0807007494862704701460020054ADF
:100A900092680A400AB1012000E000207047014935
:100AA00088727047001002400000FFF8FFFFF6FE5A
:100AB000000042428004424200127A0000093D00D8
:100AC000140000202400002031490143314A116004
:100AD000704770B5002100230F22C47804B32D4C59
:100AE000246804F4E064C4F5E064210AC1F104035D
:100AF000CA40447804FA03F1847814402143090180
:100B0000254C0678A155047804F01F050124AC405B
:100B100005786D11AD0005F1E025C5F8004109E04B
:100B2000047804F01F050124AC401C4D06787611B2
:100B300045F8264070BD1A4A0A400243154B1B1F58
:100B40001A60704739B1134A121D12680243114BE3
:100B50001B1D1A6006E00F4A121D126882430D4BDE
:100B60001B1D1A607047042808D14FF0E021096965
:100B700041F004014FF0E022116107E04FF0E02165
:100B8000096921F004014FF0E02211617047000073
:100B90000000FA050CED00E000E400E080E100E078
:100BA00080FFFF1F10B50446FE48844208D1012192
:100BB000C014FFF73FFF0021E014FFF73BFFC4E044
:100BC000B4F1804F08D101210846FFF740FF002112
:100BD0000120FFF73CFFB8E0F348844208D101212F
:100BE0000220FFF734FF00210220FFF730FFACE0C6
:100BF000EE48844208D101210420FFF728FF00219C
:100C00000420FFF724FFA0E0E948844208D1012135
:100C10000820FFF71CFF00210820FFF718FF94E0D1
:100C2000E448844208D101211020FFF710FF002181
:100C30001020FFF70CFF88E0DF48844208D1012133
:100C40002020FFF704FF00212020FFF700FF7CE0B9
:100C5000DA48844208D101214014FFF7EBFE00215D
:100C60006014FFF7E7FE70E0D548844209D1012106
:100C7000C804FFF7DFFE00214FF40020FFF7DAFE83
:100C800063E0D048844209D101210805FFF7D2FE74
:100C900000214FF48010FFF7CDFE56E0CA48844291
:100CA00009D101214805FFF7C5FE00214FF40010CE
:100CB000FFF7C0FE49E0C548844208D10121402029
:100CC000FFF7C5FE00214020FFF7C1FE3DE0C04810
:100CD000844208D101218020FFF7B9FE0021802045
:100CE000FFF7B5FE31E0BB48844208D101218015F1
:100CF000FFF7ADFE0021A015FFF7A9FE25E0B648DD
:100D0000844209D101210804FFF794FE00214FF429
:100D10008030FFF78FFE18E0B048844209D10121EE
:100D20004804FFF787FE00214FF40030FFF782FEF2
:100D30000BE0AB48844208D101218804FFF77AFE1A
:100D400000214FF48020FFF775FE10BD00220288BD
:100D5000944B98420ED0994B98420BD0B0F1804FF3
:100D600008D0914B984205D0904B984202D0904BBE
:100D7000984204D14FF68F731A404B881A438D4B1B
:100D8000984207D08C4B984204D04FF6FF431A404C
:100D9000CB881A4302808B8883850B880385814B1F
:100DA00098420BD0854B984208D08B4B984205D087
:100DB0008A4B984202D08A4B984201D10B7A038623
:100DC00001238382704770B5002400220023058C24
:100DD0004FF6FE7635400584028C8388048B4FF6EF
:100DE0008F752C40B51E2C400D882C43751E2A4053
:100DF0000D892A434D882A436A4DA8420BD06F4D76
:100E0000A84208D0744DA84205D0744DA84202D023
:100E1000734DA84213D14FF6F7752A404D892A43E6
:100E20004FF6FB752A408D882A434FF6FF652B400D
:100E30004FF6FF552B408D892B43CD892B43838063
:100E40000483CD888586028470BD70B5002400229D
:100E50000023058C4FF6EF7635400584028C83889D
:100E6000048B48F6FF752C404FF6FF452C400D884B
:100E70004FF6FF7606EA05252C434FF6DF752A402C
:100E80000D8906EA05152A434D8806EA05152A4309
:100E9000444DA84202D0494DA8421DD14FF67F755E
:100EA0002A404D894FF6FF7606EA05152A434FF68C
:100EB000BF752A408D8806EA05152A434FF6FF358F
:100EC0002B404FF2FF752B408D8906EA85052B4399
:100ED000CD8906EA85052B4383800483CD88058769
:100EE000028470BD70B5002400220023058C4FF6EB
:100EF000FF6635400584028C8388848B4FF68F759E
:100F00002C404FF6FC752C400D882C434FF6FF55B6
:100F10002A400D894FF6FF7606EA05252A434D88BB
:100F200006EA05252A431F4DA84202D0234DA842B8
:100F30001DD14FF2FF752A404D894FF6FF7606EA24
:100F400005252A434FF6FF352A408D8806EA0525F8
:100F50002A434EF6FF752B404DF6FF752B408D89C9
:100F600006EA05152B43CD8906EA05152B43838038
:100F70008483CD888587028470BD70B500220023EC
:100F80000024058C4EF6FF7635400584038C84885A
:100F9000828B48F6FF752A404FF6FF452A400D88A0
:100FA00020E00000002C0140000400400008004048
:100FB000000C0040001000400014004000340140CC
:100FC000004C014000500140005401400018004016
:100FD000001C00400020004000400140004401404F
:100FE000004801404FF6FF7606EA05252A434DF6F4
:100FF000FF752B400D8906EA05352B434D8806EA1F
:1010000005352B43FA4DA84202D0FA4DA84208D12B
:101010004BF6FF752C408D894FF6FF7606EA851555
:101020002C4384808283CD88A0F84050038470BD17
:10103000828B4FF2FF331A408283828B4FF6FF730D
:1010400003EA01231A4382837047F0B50C46154624
:10105000002200210026078C4EF6FF7C07EA0C07D1
:101060000784828B018C4FF6FF7707EA043640F63F
:10107000FF473A404FF6FF7707EA05273A434FF616
:10108000FF7707EA03373A43D94FB8420ED0D94F1A
:10109000B8420BD0B0F1804F08D0D74FB84205D03E
:1010A000D64FB84202D0D64FB84206D14DF6FF77A0
:1010B000394046F48057394305E047F6FF57394039
:1010C00044F48057394382830184F0BD828B4FF60C
:1010D000F3731A408283828B0A4382837047F0B590
:1010E0000C461546002200210026078C4FF6FF6CA7
:1010F00007EA0C070784828B018C4FF6FF7707EA1B
:1011000004264FF60C773A404FF6FF7707EA0317AD
:101110002F433A43B64FB8420ED0B64FB8420BD029
:10112000B0F1804F08D0B44FB84205D0B34FB842A9
:1011300002D0B34FB84206D14FF6FF57394046F4BC
:101140008077394305E04FF2FF57394044F4807708
:10115000394382830184F0BD028B4FF2FF331A4082
:101160000283028B4FF6FF7303EA01231A430283C3
:101170007047F0B50C461546002200210026078C6A
:101180004FF6EF7C07EA0C070784028B018C4FF6C1
:10119000FF7707EA041640F6FF473A404FF6FF771D
:1011A00007EA03373A434FF6FF7707EA05273A4342
:1011B0008F4FB8420ED08F4FB8420BD0B0F1804F56
:1011C00008D08D4FB84205D08C4FB84202D08C4F1A
:1011D000B84206D14FF6DF77394046F01007394361
:1011E00005E04FF65F77394044F01007394302833A
:1011F0000184F0BD028B4FF6F3731A400283028B19
:101200000A4302837047F0B50C46154600220021C0
:10121000068C4FF6FE773E400684028B018C4FF61B
:101220000C7632407E1C06EA03162E433243704E83
:10123000B0420ED06F4EB0420BD0B0F1804F08D00C
:101240006D4EB04205D06D4EB04202D06C4EB042F1
:1012500006D14FF6FD76314044F00106314305E0FA
:101260004FF6F576314044F00106314302830184A4
:10127000F0BD70B505460C465D4885420ED05D4810
:1012800085420BD0B5F1804F08D05B48854205D030
:101290005A48854202D05A48854200D100E000BF3A
:1012A000208850B92389A28861882846FFF7ABFFC0
:1012B000E1882846FFF79EFF25E0208804280AD110
:1012C0002389A28861882846FFF753FFE1882846D2
:1012D000FFF742FF17E0208808280AD12389A28857
:1012E00061882846FFF7FBFEE1882846FFF7EEFEFF
:1012F00009E02389A28861882846FFF7A6FEE188D5
:101300002846FFF795FE70BD2DE9F04105460C46D5
:1013100000260127608808B9022600E00026A08880
:10132000012801D1022700E001272088A0B92389E4
:10133000A28861882846FFF766FFE1882846FFF704
:1013400059FF23893A4631462846FFF712FFE188C4
:101350002846FFF701FF13E02389A2886188284609
:10136000FFF707FFE1882846FFF7F6FE23893A4694
:1013700031462846FFF747FFE1882846FFF73AFF46
:10138000BDE8F0810A884B881A438B881A43CB88C2
:101390001A430B891A434B891A438B891A43A0F8C5
:1013A000442070474FF6FF71818000210180C18089
:1013B0004180017270470021018041808180C1809D
:1013C000018141818181C18170470021018041807B
:1013D000012181800021C1800181704700210180AD
:1013E00041808180C18001814181818170470000FD
:1013F000002C01400034014000040040000800407F
:10140000000C004021B1028842F00102028004E099
:1014100002884FF6FE731A400280704731B1B0F86F
:10142000442042F40042A0F8442005E0B0F84420F3
:10143000C2F30E02A0F8442070471AB183890B430F
:10144000838102E083898B43838170478182704767
:1014500041EA0203A0F8483070471AB183890B4370
:10146000838102E083898B438381704701894FF632
:10147000F8721140018170470A46002101894FF638
:101480008F73194011430181704730B504460D46F2
:1014900029462046FFF7F0FF208940F00700208111
:1014A00030BD2DE9F04104460D4616461F46602D1D
:1014B00006D13B46012231462046FFF75AFE05E0A1
:1014C0003B46012231462046FFF79DFE2946204635
:1014D000FFF7D2FF208940F007002081BDE8F081AE
:1014E00030B50C4600210189C9B24FF6FF7505EAF7
:1014F0000325154325432943018130BD2DE9F041E2
:1015000005460E4617469846002443463A4631465D
:101510002846FFF7E5FF2C894FF6F870044044F0A9
:1015200007044FF68F70044044F070042C81BDE82E
:10153000F081F0B504460D4616461F463B4632463E
:1015400029462046FFF7CCFF208940F480402081C7
:10155000F0BD0185828270470A46002101884FF65E
:101560008F731940114301807047F0B50C46154642
:101570001E460021002200230189028B038C4FF6B6
:10158000F877394021434FF6FC473A4040F20117C3
:101590003A434FF6DD773B404FF6FF7707EA0617F1
:1015A0002F433B43018102830384F0BD0A4600219F
:1015B000018B4FF68F7319401143018370470A4620
:1015C0000021018B48F6FF7319404FF6FF7303EAC1
:1015D00002231943018370470A460021818B4FF68D
:1015E0008F7319401143818370470A460021818B14
:1015F00048F6FF7319404FF6FF7303EA02231943BD
:101600008183704721B1028842F08002028004E0A9
:1016100002884FF67F731A400280704721B182889A
:1016200042F00402828004E082884FF6FB731A4085
:101630008280704721B1828842F00802828004E0F3
:1016400082884FF6F7731A408280704721B18288F2
:1016500042F00102828004E082884FF6FE731A4055
:10166000828070470A460021018B4FF6F7731940BC
:101670001143018370470A460021018B4FF2FF732B
:1016800019404FF6FF7303EA0223194301837047A1
:101690000A460021818B4FF6F7731940114381836D
:1016A00070470A460021818B4FF2FF7319404FF6B5
:1016B000FF7303EA02231943818370470A4600211E
:1016C000018B4FF6FB7319401143018370470A46A3
:1016D0000021018B4FF6FF3319404FF6FF7303EAE9
:1016E00002231943018370470A460021818B4FF67C
:1016F000FB7319401143818370470A460021818B97
:101700004FF6FF3319404FF6FF7303EA02231943E4
:10171000818370470A460021018B4FF67F73194081
:101720001143018370470A460021018BC1F30E016A
:101730004FF6FF7303EA02231943018370470A46F9
:101740000021818B4FF67F731940114381837047CD
:101750000A460021818BC1F30E014FF6FF7303EAA5
:1017600002231943818370470A460021018C4FF6FA
:10177000FD7319401143018470470A460021018C12
:101780004FF6F77319401143018470470A46002150
:10179000018C4FF6DF7319404FF6FF7303EA021313
:1017A0001943018470470A460021018C4FF67F736C
:1017B00019404FF6FF7303EA02131943018470477F
:1017C0000A460021018C4FF6FF5319404FF6FF7374
:1017D00003EA02231943018470470A460021018C61
:1017E0004FF2FF7319404FF6FF7303EA02231943C8
:1017F000018470470A460021018C4DF6FF731940A1
:101800004FF6FF7303EA023319430184704730B582
:10181000002301248C40A3B2048C9C430484048CD8
:1018200002FA01F5ADB22C43048430BD30B500237B
:1018300004248C40A3B2048C9C430484048C02FADC
:1018400001F5ADB22C43048430BD70B503460020D1
:1018500000241846183001258D40ACB21D8CA543DC
:101860001D8409B1082909D100EB6100056825F044
:10187000700505600568154305600EE00D1FC5F392
:101880004E052844056825F4E045056005684FF6D7
:10189000FF7606EA02263543056070BD21B1028855
:1018A00042F00202028004E002884FF6FD731A4003
:1018B0000280704721B1028842F00402028004E0F5
:1018C00002884FF6FB731A400280704721B182886C
:1018D00042F08002828004E082884FF67F731A40D3
:1018E0008280704702884FF6F7731A4002800288A0
:1018F0000A430280704782884FF68F731A408280B5
:1019000082880A438280704702894FF6F8731A4032
:10191000028102890A430281704702894FF67F7370
:101920001A40028102890A4302817047818470470C
:10193000818570478186704701877047818770472E
:10194000A0F84010704702884FF6FF431A4002800B
:1019500002880A43028070470146888E704701461C
:10196000088F70470146888F70470146B1F84000E4
:1019700070470146888C70470146088D70470246C3
:101980000020138A0B400BB1012000E000207047BB
:10199000CA430282704730B502460020002300246B
:1019A000158A05EA0103958905EA010413B10CB112
:1019B000012000E0002030BDCA43028270470000D1
:1019C00010B50446FA48844208D101214015FFF7BA
:1019D00031F800216015FFF72DF817E0F548844233
:1019E00008D101210015FFF725F800212015FFF788
:1019F00021F80BE0F048844208D10121C803FFF729
:101A000019F800214FF40040FFF714F810BD30B56D
:101A10000246002000235068E84C20400D790C68F5
:101A200044EA0524204350609068E54C2040D1E909
:101A300002542C434D7944EA450420439060D06A17
:101A400020F470000C7C641EE4B2234340EA03508F
:101A5000D06230BD00210160017141718160C160BF
:101A600001210174704721B1826842F00102826055
:101A700003E0826822F001028260704721B182682F
:101A800042F48072826003E0826822F48072826095
:101A9000704710B50023CBB21AB144681C434460B0
:101AA00002E044689C43446010BD816841F0080135
:101AB00081607047014600208A6802F008020AB17E
:101AC000012000E000207047816841F0040181603E
:101AD0007047014600208A6802F004020AB1012022
:101AE00000E00020704721B1826842F4A0028260C9
:101AF00003E0826822F4A002826070470146002061
:101B00008A6802F480020AB1012000E000207047D8
:101B100010B50A4600210023416821F46041531E9C
:101B200041EA4331416010BD21B1426842F4006294
:101B3000426003E0426822F4006242607047F0B500
:101B400004460D4600200021092D11DDE068A5F1B5
:101B50000A0606EB4607072606FA07F18843A5F1B1
:101B60000A0606EB460603FA06F10843E0600CE0BD
:101B7000206905EB4507072606FA07F1884305EBC0
:101B8000450603FA06F108432061072A0FDA606B65
:101B9000561E06EB86071F2606FA07F18843561ED7
:101BA00006EB860605FA06F10843606322E00D2A7B
:101BB0000FDA206BD61F06EB86071F2606FA07F101
:101BC0008843D61F06EB860605FA06F10843206314
:101BD00010E0E06AA2F10D0606EB86071F2606FA62
:101BE00007F18843A2F10D0606EB860605FA06F119
:101BF0000843E062F0BD21B1826842F48012826045
:101C000003E0826822F48012826070470146C86C4B
:101C100080B2704766484C300068704721B1426816
:101C200042F48062426003E0426822F480624260D3
:101C3000704721B1426842F48052426003E042683A
:101C400022F48052426070470A460021816821F4E4
:101C5000E04111438160704721B1826842F4004243
:101C6000826003E0826822F400428260704721B102
:101C7000826842F40212826003E0826822F4021257
:101C800082607047014600208A6802F400120AB19F
:101C9000012000E000207047F0B504461546002002
:101CA00000220026092911DDE068A1F10A0707EBEF
:101CB000470C072707FA0CF29043A1F10A0707EB3C
:101CC000470703FA07F21043E0600CE0206901EBDC
:101CD000410C072707FA0CF2904301EB410703FA86
:101CE00007F210432061A06BC0F30156EF1C06F110
:101CF000010CA7EB0C0707EB870C1F2707FA0CF268
:101D00009043EF1C06F1010CA7EB0C0707EB8707CC
:101D100001FA07F21043A063F0BD10B50A46002196
:101D20000023816B21F44011531E41EA035181636A
:101D300010BD08B5002300930090009B0B44009356
:101D4000009B1A6008BD08B5024600200090009272
:101D500001F12800009B184400900098006880B2B0
:101D600008BD0A4600214168164B194011434160E5
:101D700070474162826270470A460021416821F043
:101D80001F0111434160704740B10949083109689A
:101D900041F40001064A0832116007E004490831A5
:101DA000096821F40001024A0832116070470000FE
:101DB0000024014000280140003C0140FFFEF0FFEC
:101DC000FDF7F1FFFFFD3FFF0246002013680B40C7
:101DD0000BB1012000E000207047CA430260704749
:101DE00070B502460020002300240B125568CEB2C5
:101DF00005EA060415681D4015B10CB1012000E08C
:101E0000002070BD00220A12D34303607047000017
:101E100001684FF6FE7211400160002101604160CF
:101E20008160C1608D49884208D18C490839496870
:101E300041F00F01894A083A51608AE0874914311C
:101E4000884208D185490839496841F0F001834A40
:101E5000083A51607DE081492831884208D17F49A4
:101E60000839496841F470617C4A083A516070E071
:101E70007A493C31884208D178490839496841F4A7
:101E80007041764A083A516063E0744950318842A3
:101E900008D172490839496841F470216F4A083AFB
:101EA000516056E06D496431884208D16B49083968
:101EB000496841F47001694A083A516049E067494C
:101EC0007831884208D165490839496841F0706124
:101ED000624A083A51603CE06149884206D1011FDC
:101EE000096841F00F01021F116032E05C491431B2
:101EF000884208D15A49091F096841F0F001584A3F
:101F0000121F116025E056492831884208D15449F2
:101F1000091F096841F47061514A121F116018E0ED
:101F20004F493C31884208D14D49091F096841F4A5
:101F300070414B4A121F11600BE0494950318842F1
:101F400007D14749091F096841F47021444A121F0B
:101F50001160704710B50022026847F6F0739A438B
:101F60000C6A8B6823430C6923434C6923438C69B7
:101F70002343CC6923434C6A23438C6A23431A438B
:101F80000260CB6843600B6883604B68C36010BD20
:101F90000021016041608160C16001614161816136
:101FA000C161016241628162704721B1026842F001
:101FB0000102026004E002684FF6FE731A400260FC
:101FC00070471AB103680B43036002E003688B4358
:101FD00003607047416070470146486880B27047AF
:101FE00001460020002201F080531BB11C4B083B2E
:101FF0001A6802E0194B083B1A6802EA01030BB1A8
:10200000012000E00020704700F0805119B1144910
:10201000091F086002E0114908394860704701460D
:102020000020002201F080531BB10D4B083B1A68C1
:1020300002E00A4B083B1A6802EA01030BB10120D7
:1020400000E00020704700F0805119B10449091FD9
:10205000086002E001490839486070470800024002
:1020600008040240002109E0002201E0531C9AB25A
:1020700040F6B8339A42F9DB4B1C99B28142F3DB4C
:10208000704710B5FD4BDB689AB24FF40073FC4CFF
:1020900023605B1023602023241F2360F74BD8604C
:1020A0002023241D2360241F2360DB002360F34BC7
:1020B000D9602023241D2360241F2360DB002360BC
:1020C000EE4BDA6010BD00B501210020FFF7D9FF0B
:1020D0004FF47A70FFF7C6FF00210120FFF7D1FF10
:1020E00041F290711020FFF7CCFF4FF41C5160209B
:1020F000FFF7C7FF01216120FFF7C3FF0221462040
:10210000FFF7BFFF48F210011320FFF7BAFF48F2B4
:10211000FE011220FFF7B5FF4FF4A0610220FFF788
:10212000B0FF41F230010320FFF7ABFF40F2033173
:102130003020FFF7A6FF40F203313120FFF7A1FF67
:1021400040F203313220FFF79CFF4FF440713320FF
:10215000FFF797FF03213420FFF793FF40F203318D
:102160003520FFF78EFF14213620FFF78AFF40F25B
:1021700003313720FFF785FF40F203313820FFF7A6
:1021800080FF40F203313920FFF77BFF4FF44071AD
:102190003A20FFF776FF03213B20FFF772FF40F262
:1021A00003313C20FFF76DFF4FF4A0513D20FFF7B6
:1021B00068FF4FF400719220FFF763FF40F2033194
:1021C0009320FFF75EFF40F60D019020FFF759FFC7
:1021D00041F218010320FFF754FF40F2731107206A
:1021E000FFF74FFF00BD00B543F20801E320FFF702
:1021F00048FF1221E720FFF744FF41F23121EF2091
:10220000FFF73FFF00210120FFF73BFF4FF4E061A4
:102210000220FFF736FF41F230010320FFF731FFC4
:1022200000210420FFF72DFF40F207210820FFF7CF
:1022300028FF00210920FFF724FF00210A20FFF7D3
:1022400020FF00210C20FFF71CFF00210D20FFF7CD
:1022500018FF00210F20FFF714FF00211020FFF7C7
:1022600010FF07211120FFF70CFF00211220FFF7BC
:1022700008FF00211320FFF704FF4FF47A70FFF7E7
:10228000F1FE41F290611020FFF7FBFE40F22721A2
:102290001120FFF7F6FE3220FFF7E4FE1D21122089
:1022A000FFF7EFFE3220FFF7DDFE4FF40061132051
:1022B000FFF7E7FE14212920FFF7E3FE0B212B2077
:1022C000FFF7DFFE3220FFF7CDFE00212020FFF7D1
:1022D000D8FE00212120FFF7D4FE07213020FFF790
:1022E000D0FE40F207713120FFF7CBFE06213220ED
:1022F000FFF7C7FE40F204713520FFF7C2FE41F63A
:1023000004713620FFF7BDFE04213720FFF7B9FE28
:1023100000213820FFF7B5FE40F206713920FFF7A3
:10232000B0FE40F201713C20FFF7ABFE0F213D20D3
:10233000FFF7A7FE00215020FFF7A3FEEF21512059
:10234000FFF79FFE00215220FFF79BFE40F23F1156
:102350005320FFF796FE4FF41C516020FFF791FECB
:1023600001216120FFF78DFE00216A20FFF789FE21
:1023700000218020FFF785FE00218120FFF781FEEC
:1023800000218220FFF77DFE00218320FFF779FEE8
:1023900000218420FFF775FE00218520FFF771FEE4
:1023A00010219020FFF76DFE00219220FFF769FEBB
:1023B00003219320FFF765FE4FF488719520FFF706
:1023C00060FE00219720FFF75CFE00219820FFF7B8
:1023D00058FE41F218010320FFF753FE40F273113B
:1023E0000720FFF74EFE00BD08B54FF6FF70ADF8B1
:1023F000000003208DF8020010208DF803006946CC
:102400001E48FEF741F808BD08B54FF6FF70ADF85D
:10241000000003208DF8020048208DF80300694673
:102420001648FEF731F808BD70B504464FF4007049
:1024300013490860401008602020091F08600F48F9
:10244000C4602020091D0860091F0860C0000860E2
:10245000FFF7DAFF4FF48060094908600748806899
:1024600085B20815091F0860FFF7BEFF4FF4007022
:102470000349091F0860284670BD00000010014094
:10248000140C014008B501211820FEF7B9FA01210A
:102490002020FEF7B5FA4FF4E460ADF8000001200B
:1024A0008DF8020010208DF803006946F648FDF70C
:1024B000EBFFFFF799FFF4481030006840F4C46068
:1024C000F1491031086008BD10B5FFF7DBFF0020AF
:1024D000FFF7AAFFED4908800846008848F230213E
:1024E000884202D1FFF7EFFD01E0FFF77CFE0020FC
:1024F000FFF79AFFE549088010BD01B5BDF800005F
:10250000E349088008BD01B5BDF80000E149088035
:1025100008BD30B504460D4621462020FFF7B1FD29
:1025200029462120FFF7ADFD30BDDB4AD26891B2CC
:102530004FF40072D44B14331A6052101B1F1A60F0
:1025400020221A60D44AD06020221B1D1A601B1F53
:102550001A60D2001A6052001A60CF4AD1607047E8
:10256000CD49C96888B24FF40071C74A143211606E
:10257000491011602021121F11602221C64AD1602A
:102580002021C14A14321160121F1160C90011606C
:1025900049001160C049C86070472DE9F043064604
:1025A0008946174600240025A046B04649464046C5
:1025B000FFF7AFFF00BF1EE0FFF7D2FF00250FE0DF
:1025C00037F814000121A940084020B9B14800881B
:1025D000FFF7ABFF03E0AE480088FFF7A6FF6D1CD6
:1025E000102DEDD308F1010000F0FF0849464046E8
:1025F000FFF78FFF641C182CDED3BDE8F08370B5A5
:1026000005460E461446A4F12000C4B204EB440073
:10261000A24901EB001231462846FFF7BEFF70BD0C
:10262000F0B507460C46002540F23F1609E0227837
:1026300031463846FFF7E3FFA6F1100086B2641C6E
:102640006D1C207808B1142DF1D3F0BD10B50446EF
:1026500093A12046FFF7E4FF10BD30B505460024E6
:1026600000210846FFF755FFFFF77AFF00BF03E0A0
:102670002846FFF75AFF641CB4F5963FF8D330BDE7
:10268000F0B504460D4616461F46B44206DBA01BB5
:10269000401C81B25020FFF7F4FC03E000215020E1
:1026A000FFF7EFFC21465120FFF7EBFCBD4206DBB4
:1026B000E81B401C81B25220FFF7E3FC03E000213D
:1026C0005220FFF7DEFC29465320FFF7DAFC2946AB
:1026D0002046FFF71EFFF0BD00B54FF4A073F022B7
:1026E000591EEF20FFF7CCFF41F218010320FFF73E
:1026F000C8FC00BD2DE9F0410646884615461F4638
:10270000002441463046FFF704FF5FB9FFF728FF7A
:1027100000BF04E05E480088FFF707FF641CAC427E
:10272000F8D310E000240CE0FFF71AFF58480088A7
:10273000FFF7FBFE701CC6B241463046FFF7E9FECC
:10274000641CAC42F0D3BDE8F081F0B505460E46FE
:1027500017461C460023224631462846FFF7CAFF8B
:10276000E919C8B2002322463146FFF7C3FF01230F
:102770003A4631462846FFF7BDFF301B401C81B268
:1027800001233A462846FFF7B5FFF0BD2DE9F04397
:1027900006460F4690460320A0EB48090024454614
:1027A0006EE07A1991B23219D0B2FFF7B2FEFFF79C
:1027B000D7FE37480088FFF7B8FE7A1B91B232196E
:1027C000D0B2FFF7A6FEFFF7CBFE31480088FFF737
:1027D000ACFE7A1991B2321BD0B2FFF79AFEFFF726
:1027E000BFFE2B480088FFF7A0FE7A1B91B2321B78
:1027F000D0B2FFF78EFEFFF7B3FE25480088FFF743
:1028000094FE3A1991B27219D0B2FFF782FEFFF727
:10281000A7FE1F480088FFF788FE3A1B91B2721985
:10282000D0B2FFF776FEFFF79BFE19480088FFF74E
:102830007CFE3A1991B2721BD0B2FFF76AFEFFF725
:102840008FFE13480088FFF770FE3A1B91B2721B8F
:10285000D0B2FFF75EFEFFF783FE0D480088FFF75A
:1028600064FEB9F1000F04DA062000EB8400814415
:1028700005E0601B0A2101EB800081446D1E641C91
:10288000AC428ED9BDE8F083000C01402C00002042
:10289000280000202A0000200010014016580008DF
:1028A0002020202020202020202020202020202028
:1028B000202020200000000070B5064600240025DE
:1028C00040F23F110020FFF724FEFFF749FE00BF52
:1028D00014E000250FE056F824000121A94008402B
:1028E00020B95F480088FFF720FE03E05D480088BC
:1028F000FFF71BFE6D1C202DEDD3641CB4F5166F85
:10290000E7D370BD70B50446002500266688A08810
:1029100046EA00466589A08945EA0045701B4608DD
:102920002C4441F208010320FFF7ABFBFFF718FE30
:10293000002504E02088FFF7F8FDA41C6D1CB542BB
:10294000F8D341F218010320FFF79BFB70BD10B5CF
:102950004FF4007044490860401008602020091FAF
:10296000086022204149C86020203F490860091FB3
:102970000860C0000860FFF747FD4FF480603A49E7
:1029800008603A48806884B20815091F0860FFF79C
:102990002BFD4FF400703449091F0860204610BD1C
:1029A00000B500211020FFF76CFB00211120FFF77C
:1029B00068FB00211220FFF764FB00211320FFF7C2
:1029C00060FB1420FFF74EFB41F2B0711020FFF7BF
:1029D00058FB40F237111120FFF753FB0520FFF79A
:1029E00041FB40F239111220FFF74BFB0520FFF7A6
:1029F00039FB4FF4E8511320FFF743FB1321292043
:102A0000FFF73FFB0520FFF72DFB40F27311072076
:102A1000FFF737FB00BD00B540F273110720FFF749
:102A200030FB00BD00B500210720FFF72AFB00BDE9
:102A300030B5054600210846FFF76BFDFFF790FD16
:102A4000002409E015F814206100491C695C42EA81
:102A50000120FFF76AFD641CB4F5963FF2DB30BD40
:102A60002A00002028000020140C01400010014022
:102A7000EA49086000BFE94909680029FBD17047AD
:102A800010B500F0F7FBE648007801280AD1E548C8
:102A9000007818B90120E34908703EE00020E149C0
:102AA00008703AE0DF480078012811D1DC4800784E
:102AB00002280DD1DC4800785A2803D10A20DA49CF
:102AC00008702AE0D84800780A30D749087024E016
:102AD000D4480078012811D1D148007804280DD1BC
:102AE000D24800785A2803D10A20D049087014E04F
:102AF000CE4800780A30CD4908700EE0C84800780A
:102B000008280AD1CA480078012803D10020C84902
:102B1000087002E00120C649087010BD70B5C148B8
:102B20000078002822D1C3A1FFF77AFD1421C748FD
:102B300000F05BFFC648006802F068FC04462246CD
:102B40000B46C4A1C14800F051FEC0494820FFF720
:102B500067FDB748007820B9C4A17820FFF760FD71
:102B600024E0C7A17820FFF75BFD1FE0C9A100208A
:102B7000FFF756FD1421B54800F037FFAA48027848
:102B8000CAA1B24800F032FEB0494820FFF748FD24
:102B90001421AE4800F029FFA4480278C8A1AB4830
:102BA00000F024FEA9497820FFF73AFD70BD38B542
:102BB0000446C020ADF80000012C0AD010208DF88A
:102BC000030003208DF802006946C248FDF75CFC53
:102BD00009E018208DF8030003208DF802006946F3
:102BE000BC48FDF751FC38BD2DE9F0419048007814
:102BF00001281ED1FFF7DBFF8B48007802F08DF92A
:102C000006460022B44B02F003F8044601F01AFF16
:102C1000B24908608548007802F07FF90646002234
:102C2000AD4B01F0F5FF044601F00CFFAC49086024
:102C30004AE08748006802F0E9FB0446A94AAA4B2B
:102C400002F0B8FA0BD20020FFF7B1FFA1480C3018
:102C5000006840F0C0009F490C31086034E07C48B7
:102C6000006802F0D3FB0446A04AA14B02F068F9C9
:102C70000BD20020FFF79BFF96480C30006820F035
:102C8000C00094490C3108601EE00120FFF78FFF5F
:102C90009848008802F041F906460022964B01F060
:102CA000B7FF044601F0CEFE8C49086091480088C9
:102CB00002F033F9064600228F4B01F0A9FF0446CB
:102CC00001F0C0FE86490860BDE8F08110B55848A3
:102CD000007820B90121080200F036FB04E0002151
:102CE0004FF4807000F030FB4E480078012804D18A
:102CF0000121400200F028FB04E000214FF40070A5
:102D000000F022FB10BD2DE9F0477C480078B0B1FF
:102D10007848008802F001F906460022764B01F05F
:102D200077FF04464FF06632754B02F045F9804656
:102D300001F088FE46490860002070490870BDE82F
:102D4000F087704800684FF47A72B0FBF2F1481EC9
:102D5000B0F1807F00D31BE0481E4FF0E0225061AD
:102D600050170F22002807DA13071D0E664B00F0DC
:102D70000F04241F1D5503E013071C0E634B1C5446
:102D800000BF00204FF0E02290610720106100BFDB
:102D900000F0ACFAFFF798FB0020FFF75EFC002084
:102DA000FFF7B1FB4FF6FF70FFF7A7FB00F04AFA01
:102DB00000F012FB00F0FCF900F05BFB00F0F3FB0D
:102DC00007E0FFF7A0FFFFF7A9FEFFF70DFFFFF7F2
:102DD0007DFFF6E710B501214D48FEF7DCFDE0B1BF
:102DE00001214B48FEF7E8FD4A480078401CC0B27C
:102DF000484908700A2803D100200870FFF740FEF8
:102E000045480088401C80B243490880502804D1BE
:102E10000020088001203949087010BD30000020D2
:102E20004F000020380000204C0000204D00002002
:102E300040000020202020202020446174612020B8
:102E40002020202020202020000000005C00002006
:102E50003C00002020202020563A252E32665620A5
:102E600020202020202020200000000020202020E2
:102E70004D6F64653A4155544F202020202020009A
:102E8000202020204D6F64653A4D414E5520202072
:102E9000202020002020202020205061726120204E
:102EA00020202020202020200000000020202020A2
:102EB0005041363A2532642525202020202020004C
:102EC000202020205041373A25326425252020201B
:102ED000202020000008014000005940440000204C
:102EE000480000205C8FC2F5285C0A407B14AE4786
:102EF000E17A843F5200002000FEAF403500002000
:102F000066660A400000002018ED00E000E400E0E2
:102F1000000800403400002036000020704700BF49
:102F2000FEE700BFFEE700BFFEE700BFFEE7704719
:102F30007047704702480068401E014908607047AA
:102F40003000002008B58020ADF8000002208DF888
:102F5000020028208DF803006946B948FDF794FA6D
:102F600008BD08B58020ADF8000002208DF80200F1
:102F700010208DF803006946B148FDF785FA08BDB9
:102F800010B5044624B18021AD48FDF72AFB03E0CB
:102F90008021AB48FDF727FB10BD10B5044624B1D6
:102FA0004021A748FDF71DFB03E04021A448FDF7A1
:102FB0001AFB10BD10B58021A148FDF7F8FA10BD2D
:102FC000002100E0491C8142FCD3704710B501206C
:102FD000FFF7D6FF4FF4FA70FFF7F2FF0120FFF77B
:102FE000DCFF4FF4FA70FFF7EBFF0020FFF7C8FF9C
:102FF0004FF4FA70FFF7E4FF0020FFF7CEFF4FF425
:10300000FA70FFF7DDFF10BD10B50020FFF7C5FF18
:103010004FF4FA70FFF7D4FF0020FFF7B1FF4FF431
:10302000FA70FFF7CDFF0120FFF7B7FF4FF4FA70FA
:10303000FFF7C6FF0120FFF7A3FF4FF4FA70FFF779
:10304000BFFF10BD10B50524FFF77CFF4FF4FA70E9
:10305000FFF7B6FF0120FFF7A0FF4FF4FA70FFF76C
:10306000AFFF0CE0601E84B24FF4FA70FFF7A8FFC8
:103070002CB9FFF776FFFFF7C7FF002010BDFFF761
:1030800099FF0028EED1FFF76CFF0020FFF785FFC6
:103090004FF4FA70FFF794FF0120EFE710B500201E
:1030A000FFF76EFF4FF4FA70FFF78AFF4FF4FA70E4
:1030B000FFF786FF0120FFF770FF4FF4FA70FFF76C
:1030C0007FFF0020FFF769FF4FF4FA70FFF778FFEA
:1030D00010BD10B50120FFF753FF4FF4FA70FFF752
:1030E0006FFF0120FFF759FF4FF4FA70FFF768FFF9
:1030F0000020FFF752FF4FF4FA70FFF761FF10BD99
:1031000070B5044608251BE00020FFF746FF4FF48A
:10311000FA70FFF755FF04F08000FFF731FF4FF41E
:10312000FA70FFF74DFF6006040E4FF4FA70FFF7D8
:1031300047FF0120FFF731FF4FF4FA70FFF740FF20
:10314000281EA5F10101CDB2DED1FFF726FF4FF415
:10315000FA70FFF735FF70BD70B508250024FFF742
:10316000F1FE16E06006040E0020FFF716FF4FF494
:10317000FA70FFF725FF4FF4FA70FFF721FF0120E7
:10318000FFF70BFF4FF4FA70FFF71AFFFFF712FF7C
:103190000443281EA5F10101CDB2E3D1FFF7FDFEE6
:1031A0004FF4FA70FFF70CFFFFF7DBFE204670BD0F
:1031B00008B501210820FDF723FCC020ADF8000070
:1031C00002208DF8020010208DF8030069461C488B
:1031D000FDF75AF908BD70B505460C46FFF7F6FE37
:1031E000A020FFF78DFFFFF72DFF2846FFF788FF90
:1031F000FFF728FF2046FFF783FFFFF723FFFFF7C6
:1032000003FF70BD70B50446FFF7E0FEA020FFF796
:1032100077FFFFF717FF2046FFF772FFFFF712FF58
:10322000FFF7D4FEA120FFF76BFFFFF70BFFFFF7BF
:1032300093FF0546FFF74DFFFFF7E6FE284670BDFA
:10324000000C014008B501210C20FDF7D9FB40F22C
:103250000110ADF8000004208DF8030069461E48F7
:10326000FDF712F90620ADF8000069461B48FDF78E
:103270000BF908BD70B5F02401211748FDF797F947
:1032800005464FF480711448FDF791F945EA400571
:1032900002211248FDF78BF945EA800504210F4809
:1032A000FDF785F945EAC0002043C4B284F0FF046D
:1032B0000B480078604020400A4908700CB9012092
:1032C00000E000200649097861400840064908707E
:1032D0000348047070BD000000080140000C01406C
:1032E0004E0000204F0000205000002008B50121B2
:1032F0003020FDF785FB4FF47F40ADF80000032040
:103300008DF8020010208DF8030069462548FDF76E
:10331000BBF80420ADF8000069462348FDF7B4F877
:103320002048C06840F47F401E49C8601E480C30E9
:10333000006840F004001C490C3108600846006831
:1033400020F00400086008BD012905D0154AD268A4
:103350000243144BDA6004E0124AD2688243114BF4
:10336000DA60114A0C32126842F004020E4B0C3340
:103370001A601A46126822F004021A60704709495E
:10338000C9684140074AD16007490C31096841F0DA
:103390000401054A0C3211601146096821F004014C
:1033A00011607047001001400014014010B5012168
:1033B0000420FDF732FB10BD08B51E208DF800007B
:1033C00000208DF801008DF8020001208DF8030027
:1033D0006846FDF77EFB08BD3EB50024FFF7E6FF1B
:1033E000FFF7EAFF124800681249B0FBF1F0401EF7
:1033F00084B240F2E730ADF80400ADF800400020A0
:10340000ADF80600ADF8020069460B48FDF79EFCDA
:10341000012221460848FEF79CF801221146064881
:10342000FEF70BF801210448FDF7ECFF3EBD00005C
:103430000000002040420F000008004010B54FF48B
:103440008040FDF741FA01210846FDF7CCFA012141
:103450004FF40270FDF7D4FA10BD08B50120ADF8A5
:10346000000000208DF8030069463648FDF70CF88F
:1034700008BD00B591B0FFF7E1FFFFF7EEFF32485E
:10348000FEF7C6FC314801903148029000200390BD
:10349000012004900020059006904FF48070079062
:1034A000800008902020099000020A9000200B90D4
:1034B00001A92548FEF74EFD01212348FEF775FDC1
:1034C00000200C9001208DF834008DF835004FF469
:1034D00060200E9000200F9001208DF840000CA974
:1034E0001A484C38FEF793FA0523012208211748A1
:1034F0004C38FEF724FB012114484C38FEF7BEFA85
:10350000012112484C38FEF7AEFA10484C38FEF74D
:10351000CCFA00BF0D484C38FEF7CCFA0028F9D1A0
:103520000A484C38FEF7D0FA00BF08484C38FEF77E
:10353000D0FA0028F9D1012104484C38FEF7D3FA1B
:1035400011B000BD000C0140080002404C240140B5
:103550005200002010B501210220FDF75EFA012182
:103560000520FDF74DFA10BD08B5C020ADF80000EC
:1035700018208DF8030003208DF80200694690485A
:10358000FCF782FF08BD08B51D208DF80000002063
:103590008DF801008DF8020001208DF803006846C7
:1035A000FDF797FA08BD10B588B00024FFF7D2FFE9
:1035B000FFF7E9FFFFF7D8FF824800688249B0FBB8
:1035C000F1F0401E84B24FF6FF70ADF81800ADF870
:1035D00014400020ADF81A00ADF8160005A97B488C
:1035E000FDF7B4FB3020ADF804000120ADF8060073
:1035F00077480088ADF80A000220ADF80C0001A958
:103600007248FDF7E0FB00217048FEF72BF801201F
:10361000ADF806006F480088ADF80A0001A96B48B4
:10362000FDF713FC00216948FEF725F801216748E2
:10363000FDF7E8FE012206216448FDF7FEFE08B012
:1036400010BD2DE9F04F87B00020059002215F48A2
:10365000FEF7A1F9002854D002215C48FEF7ACF92E
:103660005A48FEF779F905905B480078D0B1584880
:10367000008801F079FF804658480168404601F013
:1036800087FF0646059801F06FFF0746314601F0B7
:10369000E9FE054601F048FF84B221464B48FEF79B
:1036A00049F928E04D48006801F0B0FE00224C4B7B
:1036B000CDE9000101F0B4FD804689464448008808
:1036C00001F02BFC42464B46CDE9020101F074FCAF
:1036D00004460D46059801F020FC064622462B467E
:1036E00001F0E2F9824601F0EBFB80B20146049062
:1036F0003648FEF71FF93848007880F00100364957
:10370000087004213148FEF746F9002854D00421FE
:103710002E48FEF751F92D48FEF721F90590314862
:103720000078D0B12B48008801F01EFF80462E485B
:103730000168404601F02CFF0646059801F014FF91
:103740000746314601F08EFE054601F0EDFE84B2DB
:1037500021461E48FEF7F0F828E02348006801F0F3
:1037600055FE824600221E4B01F05AFD80468946D6
:103770001848008801F0D1FB42464B46CDE90001D4
:1037800001F01AFC04460D46059801F0C6FB0646FA
:1037900022462B4601F088F9CDE9020101F090FBA9
:1037A00080B2014604900948FEF7C6F80D4800783B
:1037B00080F001000B49087007B0BDE8F08F0000F1
:1037C000000801400000002040420F0000040040BB
:1037D0005400002056000020580000204400002023
:1037E0000000F03F59000020480000200FB41CB535
:1037F000074B06AA7B4469460090059800F085FBBC
:103800000020694600F094FB1CBC5DF814FB00002E
:103810003907000070B5044685690068C10601D506
:10382000302600E02026C00707D070BDD4E9012172
:1038300030469047206A401C20626D1EF6D570BD50
:1038400070B5044685690078C00707D170BDD4E91A
:10385000012120209047206A401C20626D1EF6D571
:1038600070BD00002DE9F04106460024106875295E
:10387000314616A510D0AFF30080002802DA40428E
:1038800013A507E031688A0701D512A502E04907B0
:1038900004D511A5012401E0AFF3008000210A2224
:1038A00006F1240709E0B0FBF2FCB0FBF2F302FBE7
:1038B0001C00303078541846491C0028F3D12346A8
:1038C0002A463046BDE8F04100F0B4B800000000E0
:1038D0002D0000002B000000200000002DE9F04723
:1038E0004FF0000A89460446C0F820A02046E1684F
:1038F0008847002876D0252806D0D4E901219047B2
:10390000206A401C2062F1E7E168204600258847D4
:10391000C4F81CA006460027C4F818A02A2E09D017
:10392000304601F071F838B304EB8708303EC8F830
:10393000186019E059F8041B204604EB87029161D6
:10394000E1688847012F064618D1E069002820DA8F
:1039500025F020051DE0D8F8180000EB800006EBEC
:1039600040003038C8F818002046E168884706460D
:1039700001F04AF80028EED1012F0AD02E2E08D1EE
:103980002046E16888477F1C0646022F45F0200547
:10399000C4DBA069002803DA404245F00105A061BC
:1039A000E80701D025F01005B6B1A6F141001928AD
:1039B00002D8203645F400654A4631462046256047
:1039C0004D46FCF7CDFB58B1012806D0ED1D25F082
:1039D000070000F1080989E704E005F1040985E71B
:1039E00030468AE7206ABDE8F0874FF000020429DC
:1039F000C0F0128010F0030C00F0A182CCF1040C96
:103A0000BCF1020F18BF00F8012BA8BF20F8022B51
:103A1000A1EB0C0100F093BA5FEAC17C24BF00F86F
:103A2000012B00F8012B48BF00F8012B70477047AD
:103A3000704770472DE9F0470D4699469246044677
:103A400000F124080168880604D5E06921F010011E
:103A5000216000E00120A84201DD471B00E00027B3
:103A6000A1697A1902EB0900081AA0612078C00642
:103A700002D42046FFF7CEFE002608E0D4E901215B
:103A80001AF806009047206A401C761C20624E45BA
:103A9000F4DB2078C0060AD52046FFF7BBFE06E01F
:103AA000D4E9012130209047206A401C2062381E52
:103AB000A7F10107F4DC07E0D4E9012118F80500BB
:103AC0009047206A401C2062281EA5F10105F3DC06
:103AD0002046FFF7B5FE2078000602D50220BDE89B
:103AE000F0870120FBE770472DE9FF4F0C461E468B
:103AF0004FF0FF378BB0D2E90001DDF860800A900B
:103B00008A46C1F30A5505B93D46002108464FF0E3
:103B10000000BAF1000F00F4400005DA00EB80006D
:103B20004FF4400101EA50004FEA9059B9F1010FFA
:103B300000DDB9460A9850EA4A000ED044F610500B
:103B4000A5F2FF3545432F14B8F1000F1ED0754282
:103B5000291E1EDDC9F100021CE0B8F1010F4FF073
:103B6000000001D0302103E0F24305E02154401C65
:103B7000B042FBDB30460022002121540B99C1F8F2
:103B80000880C1E900200FB0BDE8F08FBD1B6D1C9F
:103B9000DEE74A4600DA694206A800F07FFA06AB83
:103BA00093E8070003AB83E8070050460A9900F04A
:103BB0005CFB8DE80700A0F500501F3800900398CB
:103BC000002D09DD42F21F014A46084403A9039073
:103BD000684600F0BBFD08E0A0F500504A461F38DB
:103BE00003A90390684600F0C5FD8DE807000004B6
:103BF000000C03D04FF0FF30410800E01046B8F150
:103C0000000F03D00022009215461EE0751E05D459
:103C100000F0BEF9303262556D1EF9D5B34601226F
:103C2000084302D000227F1C04E02078302801D114
:103C300000227F1E002A099786D01DE0112D07DA89
:103C400000F0A6F9303262556D1C50EA0102F5D140
:103C5000084302D00098C8B10EE00021681E05E0BC
:103C6000235C625C63542254401E491C8142F7DB92
:103C7000AB46A81B401E0990002004F80B000B98CF
:103C8000099AC0F80880C0E9002B7CE711264FF0A4
:103C9000000859E72DE9F04F88460446D21D22F06E
:103CA000070191B0D1E90001CDE90A0100F098FEC9
:103CB00002460B98C00F01D02D2007E02068810735
:103CC00001D52B2002E0202101EAC000032A09903F
:103CD00001D0072A05DB03464146204600F09EF945
:103CE0000BE12078800601D5E06900E00620B8F1FC
:103CF000650F814606D0B8F1660F18D0B8F1670F8E
:103D000070D131E00020B9F1110F009001DB1123D7
:103D100001E009F101030AAA01A90CA8FFF7E4FEDA
:103D2000DDE90C70002609F10105834647E001201A
:103D30004B4600904FF000470AAA01A90CA8FFF7D4
:103D4000D3FEDDE90DB00C995D46002610B909F1EE
:103D500001000D18B9EB050003D4C0F1FF3609F1DD
:103D60000105A5EB09002BE0B9F1010F01DA4FF0D5
:103D700001090020B9F1110F0090484601DD11231F
:103D800000E003460AAA01A90CA8FFF7ADFEDDE991
:103D90000C704D4600268346207800070AD4AB45B8
:103DA00000DA5D4601A8012D04DD411911F8011C5E
:103DB000302907D04F4502DA17F1040F04DA012049
:103DC00082460FE06D1EEEE7002F02DCED1B3E4445
:103DD00003E0781CA84200DD7D1CB81B00F1010A3D
:103DE0004FF000472078000703D4AA4501DB4FF0CD
:103DF000FF3A0021B7F1004F0DF143088DF8431051
:103E000024D002202B23002F01DA7F422D230A2108
:103E1000021EA0F1010000DC5FB197FBF1FC97FBF3
:103E2000F1F201FB1C7C17460CF1300C08F801CDB7
:103E3000EEE7A8F1010003702188090501D54521AD
:103E400000E06521A0F1010800F8011C09980FA904
:103E5000A1EB0807FF1D00B10120411901EBEA7039
:103E6000A1693844081A401EA0612078C00602D417
:103E70002046FFF7CFFC099828B1D4E901219047EB
:103E8000206A401C20622078C00622D52046FFF719
:103E9000C1FC1EE0002E04DBB34502DD01A8805DFD
:103EA00000E03020D4E901219047206A401C2062C4
:103EB000761CAAF101005FEA000A0AD100F064F85A
:103EC000C0680168405CD4E901219047206A401C29
:103ED0002062281EA5F10105DCDC07E0D4E9012100
:103EE00018F8010B9047206A401C2062381EA7F189
:103EF0000107F3DC2046FFF7A3FC032011B043E6E3
:103F000001694A1C02610878704700B58FB0CDE99D
:103F100001310021059105497944CDE9031011468D
:103F20006846FFF7DBFC0FB000BD0000E5FFFFFFB8
:103F30000A6802F8010B0A6070474FF0000200B5F2
:103F4000134694469646203922BFA0E80C50A0E8BC
:103F50000C50B1F12001BFF4F7AF090728BFA0E86A
:103F60000C5048BF0CC05DF804EB890028BF40F836
:103F7000042B08BF704748BF20F8022B11F0804F78
:103F800018BF00F8012B70470048704790000020D0
:103F900030B5B0F10A024FEA900E71F100034EEA1B
:103FA000817EB0EB0E0061EB91014FEA101E4EEAEC
:103FB000017E10EB0E0041EB11114FEA102E4EEA7C
:103FC000016E10EB0E0041EB11214FEA104E4EEA4C
:103FD000014E10EB0E0041EB1141401841F1000180
:103FE0004FEAD00040EA41704FEAD10110EB800562
:103FF0004FEA810444EA907444EB01046D1944EBE8
:104000000404521BA3414FF0000348BF0A3200D5FD
:1040100030BD401C41F1000130BD00002DE9F041F0
:104020001F46044603260168072A01F4006004DBEA
:1040300008B116A505E016A503E008B115A500E036
:1040400015A521F010002060A069C01EA0610FB16D
:10405000401EA0612046FFF7DDFB4FB1D4E90121EE
:1040600038469047206A401C2062C01C206206E04F
:10407000206AFAE7D4E9012115F8010B9047761E72
:10408000F8D22046FFF7DCFBBDE8F0814E414E0040
:104090006E616E00494E4600696E66002DE9F0477C
:1040A000814616468AB0334878440DC88DE80D0025
:1040B00030487844801C03AC0DC884E80D0041F6FC
:1040C0009B300844372190FBF1F290FBF1F5A5F10C
:1040D000800501FB12041B3C02D56442012000E074
:1040E0000020DFF890A080460027FA44AAF1BE0A1B
:1040F0000DE0E00709D03246684607EB47010AEBBE
:10410000810100F037FB8DE8070064107F1C002C54
:10411000EFD1184F7F44AC3F18E0E80714D007EB0D
:1041200004100DF1180A90E80E008AE80E00C0682D
:10413000F04201D198190890324606A903A800F070
:1041400019FB03AB83E807006D10641C002DE4D15C
:1041500032466946B8F1000F03A802D000F0F6FA23
:1041600001E000F007FBC9E90001C9F808200AB026
:10417000BDE8F087B82900000048704770000020B3
:104180007546FFF7F9FFAE4605006946534620F035
:104190000700854618B020B5FCF714F8BDE82040AC
:1041A0004FF000064FF000074FF000084FF0000BF3
:1041B00021F00701AC46ACE8C009ACE8C009ACE8A6
:1041C000C009ACE8C0098D46704710B50446AFF38E
:1041D00000802046BDE81040FBF7DFBF4FF0013CF8
:1041E00050F8042B51F8043B9A4221D1A2EB0C0366
:1041F000934313EACC1317D150F8042B51F8043B26
:104200009A4215D1A2EB0C03934313EACC130BD1C2
:1042100050F8042B51F8043B9A4209D1A2EB0C034D
:10422000934313EACC13DBD04FF00000704700BF7C
:10423000D01A01BAB1FA81F101F0180122FA01F0A5
:10424000CB40C1F12001DBB2C0B2C01A2CFA01F39D
:10425000D11A914311EAC311E6D1704701491820E0
:10426000ABBEFEE72600020070475FEA400C08BFC5
:1042700091F0000F4FEA8C234FEAC12243EA5151DB
:104280004FEA1C5018BF00F5F0404FEA300018BF4D
:1042900041F000415FEA6C5C00F02980BCF1FF3F17
:1042A00008BF40F080407047130C06BF12044FF067
:1042B000100C4FF0000C130E04BF12020CF1080C8E
:1042C000130F04BF12010CF1040C930F04BF9200F2
:1042D0000CF1020CD30F04BF52000CF1010C11467B
:1042E0004FF00002A0F11F00A0EB0C00704711F08E
:1042F000004F08BF704731F000413FF4D5AF0B0CC1
:1043000006BF09044FF0100C4FF0000C0B0E04BF59
:1043100009020CF1080C0B0F04BF09010CF1040C8D
:104320008B0F04BF89000CF1020CCB0F04BF4900B6
:104330000CF1010CCCF12003A0EB0C0022FA03F3EA
:1043400002FA0CF241EA030100F10100704720F08B
:104350007F4C80EA030023F07F47ACEB070303F5B3
:104360007C5300F0004003F1FF032DE980494FEA40
:10437000154B09B44FEA144325EA0B4E24EA0348CF
:104380000FF2042606EB132749083E785FEA320253
:1043900003FB0667C7F5000707FB06F64FEA54372D
:1043A0004FEAD64606F1020607FB066CCCF1005C2C
:1043B0004FEA1C472CEA074C07FB06F40CFB06F5FA
:1043C00004EB15464FEA961634BF00204FF000402C
:1043D0004FEAD13706FB07FC4FEA1C4C0CFB0BF7EE
:1043E000D21B03FB0CF761EB07010CFB0EF7B0EBE4
:1043F000074072EB17420CFB08F734BFA2EB0742F1
:10440000B2EB074261EB17414FEA0C444FEA9107C8
:1044100006FB07FC4FEA1C4C0CFB0BF7B0EBC7404C
:1044200072EB573203FB0CF734BFA2EBC742B2EB7F
:10443000C74261EB57310CFB0EF7B0EBC70072EBD4
:1044400057720CFB08F734BFA2EBC702B2EBC702EE
:1044500061EB5771039F4FEA816141EA921104EBCE
:10446000CC044FEAD1374FEA826206FB07FC42EAEE
:1044700090124FEA80604FEA1C4C0CFB0BF7D21BEA
:1044800003FB0CF761EB07010CFB0EF7B0EB0740E9
:1044900072EB17420CFB08F734BFA2EB0742B2EBFA
:1044A000074261EB17414FEA8C554FEA910704EB45
:1044B0009C2406FB07FC4FEA1C4C0CFB0BF7B0EBF3
:1044C000C74072EB573203FB0CF734BFA2EBC74275
:1044D000B2EBC74261EB57310CFB0EF7B0EBC700F4
:1044E00072EB57720CFB08F734BFA2EBC702B2EBBA
:1044F000C70261EB577115EB4C254FEA816141EA28
:1045000092114FEA82624FEAD13742EA901206FBDB
:1045100007FC44F100044FEA80604FEA1C4C0CFB9E
:104520000BF7D21B03FB0CF761EB07010CFB0EF73B
:10453000B0EB074072EB17420CFB08F734BFA2EB5D
:104540000742B2EB074261EB174115EB1C154FEA2E
:10455000813141EA92414FEA823242EA90424FEA87
:1045600080304FEA0C7644F1000448EA03434EEAF7
:104570000B484FF0000EB2EB080C71EB030724BFA1
:10458000624639464EEB0E0E4FF0000B00185241BA
:1045900049414BEB0B0BB2EB080C71EB03077BF1C2
:1045A000000B24BF624639464EEB0E0E4FF0000B57
:1045B0000018524149414BEB0B0BB2EB080C71EB6D
:1045C00003077BF1000B24BF624639464EEB0E0E0B
:1045D00051EA020718BF46F0010616EB0E7655F1B8
:1045E000000254F1000103D5BDE88901BDE800884F
:1045F000BDE88901BDE80048B619524141EB01010F
:10460000A3F10103704780807F7E7D7C7B7A79787F
:10461000777676757473727171706F6E6E6D6C6C87
:104620006B6A6A6968686766666564646363626129
:104630006160605F5F5E5E5D5D5C5C5B5B5A5A59AA
:104640005958585757565655555554545353525216
:104650005251515050504F4F4F4E4E4D4D4D4C4C6E
:104660004C4B4B4B4A4A4A494949484848474747B7
:1046700047464646454545444444444343434342F4
:10468000424242414141002B26D4770021D01CB543
:104690004FEA370703B44FF010004FF010014FF00E
:1046A00000000FBCBDE810400BF1010BBBF1010F86
:1046B00008BF5FEA170722BF12F1010211F10101E1
:1046C0004FF0004143F1000300F0004043EA0000D6
:1046D0007047F9D35708DAE746EA064613F1400F68
:1046E0004FEA16461FDD13F1200FDFBF16430A46BF
:1046F000002120335B42C8D0C3F1200746EA0646BA
:1047000002FA07F74FEA164646EA0706C3F1200702
:1047100022FA03F201FA07F721FA03F14FF000033E
:1047200042EA0702B1E746EA020646EA06464FEACF
:10473000164646EA0106BCBF46EA0646360C4FF06E
:1047400000034FF000024FF000019EE72DE9C04842
:10475000934630B491E8380007C831EA400C48BFAE
:1047600034EA430C03D5FFF7F2FDFFF78CFFF0BCF2
:10477000BDE800882DE9C048934630B491E8380080
:1047800007C810F0804F08BF13F0804F03D100F02E
:1047900005F8FFF778FFF0BCBDE8008820F07F4700
:1047A00080EA030023F07F4C07EB0C03A3F57C5356
:1047B00000F00040A3F1FE0392F0000F00F0B38080
:1047C00095F0000F00F077802DE901494FEA114084
:1047D0004FEA144621EA004800FB06FC24EA06479B
:1047E00008FB06F607FB08F800FB07F718EB06487E
:1047F0004CEB164C4FEA124B18EB07484FEA1546A4
:104800004CEB174022EA0B4E0BFB06FC25EA064751
:104810000EFB06F607FB0EFE0BFB07F71EEB064E24
:104820004CEB164C4FF000061EEB074E4CEB174BB3
:1048300018EB0B0840F1000018EB0E0B58EB0008CA
:1048400040F100008F1A4FF000013CBFC943661BC6
:1048500014BFB5EB040C00213CBFC943F61B4FEA63
:1048600017444EEA8E0E27EA04454FEA1C4704FB24
:1048700007622CEA074C05FB07F70CFB05F604FB67
:104880000CFC16EB074642EB174216EB0C4642EBCC
:104890001C421BEB060658EB0202414146EA9E060B
:1048A00001D5BDE80189B619524141EB0101A3F1DF
:1048B0000103BDE801894FEA14454FEA114724EA94
:1048C000054621EA074C05FB07F406FB07F70CFB3E
:1048D00006F105FB0CFC11EB074144EB17444FEAD2
:1048E000124711EB0C4144EB1C4422EA074C05FB38
:1048F00007F206FB07F70CFB06F605FB0CFC16EBB4
:10490000074642EB174216EB0C4642EB1C456A1871
:1049100054F1000148BF7047B619524141EB010103
:10492000A3F10103704795F0000F37D04FEA114211
:104930004FEA144721EA024624EA074C02FB07F13A
:1049400006FB07F70CFB06F402FB0CFC14EB074418
:1049500041EB17414FEA154714EB0C4441EB1C4166
:1049600025EA074C02FB07F506FB07F70CFB06F6EA
:1049700002FB0CFC16EB074645EB174516EB0C4605
:1049800045EB1C42121951F1000148BF7047B6199E
:10499000524141EB0101A3F1010370474FEA144575
:1049A0004FEA114724EA054621EA074C05FB07F1C7
:1049B00006FB07F70CFB06F24FF0000605FB0CFCAC
:1049C00012EB074241EB174112EB0C4251EB1C4139
:1049D00048BF7047921841EB0101A3F101037047F2
:1049E000490050EAC12018BF04204A0D18BF40F00A
:1049F000010040F2FF72B2EB515F08BF40F00200CD
:104A0000012808BF0520704730380A2801D201204C
:104A1000704700207047000010B500290AD00878C0
:104A2000002807D005487844FFF7D8FB002801D0BC
:104A3000002010BD0248784410BD00007620000020
:104A40006E20000021F00042A2F16052B2F5801FFA
:104A500001F0004328BFD2F17F6C0BD95FEA001C44
:104A600043EAC20242EB507018BF704728BF20F0E3
:104A700001007047B2F5801FBCBF184670474FEA6F
:104A8000410C1CF5001F02D2084600F048BE70B56C
:104A900000F03CFB00000089FFF7F6BF4FF000403C
:104AA000A0F580007047000010B591EA030F48BFE1
:104AB00083F0004300F1C883841A71EB030C05D224
:104AC000121943EB0C03001B61EB0C01DFF824E12E
:104AD0004FEA1154A4EB135C1EEA430F18BF9EEA81
:104AE000445F73D023EA0E03DCF1200E21EA045167
:104AF00043F4801332D322FA0CFE10EB0E0023FA9B
:104B00000CFE41EB0E01CCF1200E03FA0EFE10EB71
:104B10000E0051F10001B1F5801FCCF1200E32D210
:104B200001EB045112FA0EF2BDE8104058BF704775
:104B3000401C38BF5FEA420218BF7047002814BF0C
:104B400020F0010041F100014FEA410313F5001F7D
:104B500038BF7047A1F1C04100F026BB012A43EBEA
:104B60000302ACF1200CDCF11F0E32BF4FF0000E3F
:104B700023FA0CF310EB030041EB0451B4EB115F8B
:104B8000D0D0A1EB045101F5801149085FEA300053
:104B900001EB04510ED350F1000038BF12FA0EFEA3
:104BA00008D1BDE81040C9E7401C38BF5FEA4202A7
:104BB000CAD1C3E7BDE810404FEA410313F5001F17
:104BC00038BF7047A1F1C04100F0EEBA9EEA445FE1
:104BD00008D011EA5E0FBDE8104004BF01F00041AB
:104BE00000207047BDE8104070B500F08FFA00BF9C
:104BF00064FBBE3E0000E0FF491058BFC1F14041D8
:104C00005B1058BFC3F140438B42EFF30080704705
:104C10002DE9C04130B4DFF8A0C23CEA111418BF3E
:104C20003CEA131400F0EC8081EA03051CEA11143D
:104C300044EAD57418BF1CEA131500F0C780A4EB32
:104C400005044FF0004545EAC12145EAC32341EA86
:104C5000505143EA525304F17F74994204F50034F1
:104C60004FEAC0204FEAC22208BF904200F09C8069
:104C70004FEA13650FF24016765D4FEA134506FBC7
:104C800005F7C7F1807706FB07F74FEAD737A7FB91
:104C900003687642C8F58038A7FB06CE38BFA8F176
:104CA000010807FB08E64FF0000EA6FB028CE6FBAE
:104CB00003CEDCF1000CCEF1004E38BFAEF1010E98
:104CC000A6FB0C584FF000074FF00005E6FB0E87DF
:104CD000A1FB08C6A0FB07CE16EB0E0645F10005AA
:104CE000E1FB076515F1E04E7EBFA4F580345FEA75
:104CF00046066D4116F1800745F100054FEA17277A
:104D00004FEA066647EA0567A6F1DE46B6F1805F20
:104D10004FEA15251FD9384624F0010C05EBC47164
:104D2000BCF1FE6F01EB0C1102D8F0BCBDE80081B4
:104D300024425CBF01F5801E9EEAC47F02D4F0BC11
:104D4000BDE80081244238D4F0BCA1F1C041BDE8E7
:104D5000004100F029BA4FEAD22242EA43524FEA18
:104D6000D323A7FB02864FEAD02040EA415007FB3D
:104D700003661EEA0E0F4FEAD12105FB026658BFFB
:104D8000A6EB0056B6EB00564FEA520E4EEAC37E33
:104D900018EB0E0E56EB530EBDD518EB02085E4114
:104DA0007F1C55F10005B6E74FF480154FF0000762
:104DB0004FF000064FF00008ADE7F0BC4FF00000E8
:104DC00001F1C04101F00041BDE8008111EA0C1F72
:104DD0000CEA131500D00CE013EA0C1F00F025803C
:104DE0004FF00000F0BC81EA030101F00041BDE892
:104DF0000081F0BCBDE8004181EA030100F0D4B9B4
:104E0000F0BCBDE8004170B500F080F9097EFC3EC1
:104E100000F007B881EA03014FF0000001F0004103
:104E2000704781EA030100F0BFB9F0BCBDE8004162
:104E30004FF0000021497047FFFDFBF9F7F5F4F250
:104E4000F0EEEDEBE9E8E6E4E3E1E0DEDDDBDAD825
:104E5000D7D5D4D3D1D0CFCDCCCBCAC8C7C6C5C483
:104E6000C2C1C0BFBEBDBCBBBAB9B8B7B6B5B4B39A
:104E7000B2B1B0AFAEADACABAAA9A8A8A7A6A5A485
:104E8000A3A3A2A1A09F9F9E9D9C9C9B9A99999849
:104E90009797969595949393929191908F8F8E8EEC
:104EA0008D8C8C8B8B8A8989888887878685858479
:104EB00084838382828181800000FF070000F87F65
:104EC0004FEA1153A3F58063D3F11E03A8BFD3F1BA
:104ED000200C08DB4FF0004242EAC12252EA505255
:104EE00032FA03F0704709420BD4102BC4BF0020E4
:104EF000704703F5787CBCF1FF3F05D04FF0FF30E1
:104F000070474FF00000704770B500F0FFF800BF29
:104F10004992248000207047F0E7B0FA80F310FA3D
:104F200003F10AD0C3F11D0303F580634FEA41503A
:104F30004FEA035202EBD12170474FF00000704757
:104F400051EA030C17D41CF5801F58BFBCF5801F15
:104F500000F10680994218BF704708BF9042704721
:104F600007D711F5801F58BF13F5801F19D4994238
:104F70007047894270471CF5801F08D5BCF5801F1B
:104F8000F7D58B4218BF704708BF824270474FF475
:104F9000001C1CEB410F38BF1CEB430F01D28B42AE
:104FA000704770B500F0B2F8922449004FF00051FC
:104FB0004FF08053FFF720BEDFF848C170B51CEA00
:104FC000111E1EBF1CEA13159EEA0C0F95EA0C0F6A
:104FD00000F06F8081EA030423EA4C134EEAD47E8A
:104FE00021EA4C1141F4801143F48013AE44A1FB3B
:104FF000024CA0FB0365AEF17F7E361955EB0C0524
:10500000A1FB034C4CF10003A0FB021C16EB0C06A9
:10501000654153F10003094218BF46F0010613F43D
:10502000007F0BD14FEA03314FEA0530340341EAE8
:10503000155140EA16506FF003020AE04FEAC3210F
:105040004FEAC520F40241EA555140EA56506FF04C
:10505000020202EB2E4201EB025585EACE710AD024
:105060005FEA440C18BF24F0004450F1000041F105
:10507000000120EAD47040F2FE7C624500D270BD8F
:10508000A84214BF4FF080444FF04044002E08BFA8
:105090000024BEF1806FA8BFA1F1C041BDE87040FF
:1050A00080F282804FF0000001F1C04101F0004128
:1050B00070479EEA0C0F0CEA131518BF95EA0C0F07
:1050C00006D04FF0000081EA030E0EF0004170BDE3
:1050D00000F01CF88900013E00F007B800F009B8A4
:1050E0004FEA430C5FEA5C5C08D081EA030100F000
:1050F0005BB84FEA410C5FEA5C5CF6D14FF0000010
:10510000014970470000FF070000F87F0EF1020E12
:105110002EF0030E5EF8046B364205D4012A43EBF1
:10512000030515F5001F12D8012841EB010C1CF5F1
:10513000001F0CD80ED14FEAD17C15F5001F0CEBE7
:105140004C0C0CF1020C08BF4CEBD37C04E04FF08C
:10515000080C01E04FEAD37C0CEB4C0526FA05F66F
:1051600006F00706B6F1040C06D20EEB860CBDE87D
:1051700070404CF0010C6047DFE80CF0090B0202B4
:105180004FF000414FF00000A1F5002170BD19461D
:105190001046012851EB010418BFD4F5001484BF58
:1051A000002001F0004170BD0808A0F500114FEA91
:1051B0003101704753EA010C17D41CF5801F58BF0A
:1051C000BCF5801F00F106808B4218BF704708BFF6
:1051D0008242704707D713F5801F58BF11F5801F13
:1051E00019D48B4270479B4270471CF5801F08D52D
:1051F000BCF5801FF7D5994218BF704708BF904291
:1052000070474FF4001C1CEB430F38BF1CEB410FE1
:1052100001D2994270470FB40CBC03BCFFF7C1BE6A
:1052200091EA030F10B581F000413FF545AC83F0E2
:10523000004300F009B8000010B591EA030F48BF21
:1052400083F000433FF538AC841A71EB030C07D2AE
:1052500012198CF0004C43EB0C03001B61EB0C01AA
:10526000DFF8A4E14FEA1154A4EB135C1EEA430FEC
:1052700018BF9EEA445F00F0B08023EA6E035242FA
:1052800021EA0451C3EB6E0338BF5B1EDCF1200E34
:1052900025D322FA0CFE10EB0E0043FA0CFE41EB74
:1052A0000E01CCF1200E03FA0EFE10EB0E0051F1B0
:1052B0000001CCF1200E29D412FA0EF201EB0451B8
:1052C000BDE8104058BF7047401C1CBFB2F1004FF2
:1052D000704700280CBF491C20F00100704712EBFA
:1052E000020E43EB030218BF4FF0010E4EEA4202DA
:1052F000ACF1200CDCF11E0E54D943FA0CFE10EB7D
:105300000E0051F1FF31CCF11E0ED5D50EF1010E7C
:1053100012FA0EFE404141EB010101EB445C5FEAF1
:105320005C5C10D910EBDE7001EB045138BFBEF1AC
:10533000004FBDE8104018BF704700280CBF491C43
:1053400020F00100704730D24FEAD42C11F5001143
:1053500024F400641BD0B1FA81F20B3AA41AA41E03
:10536000D2F12003914030FA03F31943904001EB4E
:10537000CC71002C01EB0451BDE81040A8BF704770
:1053800001F1C0414FF0000001F000417047B0FA58
:1053900080F310FA03F100D110BDE41A173C480560
:1053A000C90AE4E701EB045110BD491001EB0451B7
:1053B000BDE810404FEA300002E04FF000017047B6
:1053C0004A0008BF0042F8D0B2F5001F28BF70475E
:1053D00001F000414FF0000070479EEA445F07D0A3
:1053E00011EA5E0FBDE8104004BF002100207047A5
:1053F000BDE8104070B5FFF789FE00BF40DFF63E04
:1054000083F00041104670470000E0FF43004FEA80
:10541000D30C4FEA3C0C43401FBF40070CF16051D6
:1054200013F0FE4F70471CF0006F03D100200CF00A
:10543000004170470CF0004343EA507010B540EA59
:10544000CC0000F026F900BF000000924FEA0001F6
:10545000FFF7AABE4FF000414FF00000A1F5002178
:105460007047000090EA010F48BF81F0004100F151
:105470006281421A3CBF801A89184FEAD0524FF01D
:105480007F4C1CEA410FA2EBD15318BF9CEA026F7C
:1054900000F03B804FF0004C4CEA00204CEA012128
:1054A00021FA03FC10EB0C0C1ED202F1FF325FEA72
:1054B0001C2040EBC25038BF70471CF07F0F4FEAF2
:1054C000400C18BFBCF17F4F38BF7047C3F12003B9
:1054D000994008BF20F00100BCF17F4F38BF7047F2
:1054E000A0F1C04000F01BB94FEA3C00000A40EBBD
:1054F000C25028BF1CF0FF0F4FEA400CE6D018BF87
:10550000BCF17F4F38BF7047EAE79CEA026F05D0D5
:1055100010EA5C0F08BF00F00040704710B500F0C3
:10552000B8F800BF64FBBE3EC10DD1F19E0206DBA0
:105530004FEA002343F0004323FA02F07047004291
:1055400007D54FEA4001B1F1FE4F02D24FF0000003
:10555000704710B500F09DF84992248000207047F4
:105560006FEA200070470000B0FA80F310FA03F2EF
:10557000C3F19D030AD0D90501EB1220530638BFB1
:10558000704700F1010008BF20F0010070470000E3
:105590004FF47F0C1CEAD0121EBF1CEAD11392EA12
:1055A0000C0F93EA0C0F00F0478090EA010F48BF00
:1055B00042F480724FF0004C4CEA00204CEA01218A
:1055C00002EB0302A0FB0113A2F50002002918BFA1
:1055D00043F001035B0028BF4FEA330342EB224252
:1055E0005FEA132C4CEBC2502EBFBCEB436FB2F5FD
:1055F0007C0F70474FEA036CBCF1004F08BF20F0EE
:105600000100B2F57C0F38BF70470BD582F0FF0266
:1056100012F5803FC8BF704700F1C040D8BF00F00E
:105620000040704700F5000C5FEA4C0C48BF704723
:10563000B0F1C04000F073B890EA010F0CEAD1134A
:1056400048BF42F48072624538BF634504D280EAA5
:10565000010000F00040704710B500F01AF800BFDC
:105660008900013E00F007B800F009B85FEA410C7C
:105670005FEA1C6C08D080EA010000F050B85FEAD5
:10568000400C5FEA1C6CF6D14FF00040A0F58000A2
:1056900070470EF1020E2EF0030E5EF8044B24420A
:1056A00004D44FEA4102B2F17F4F11D84FEA4003D0
:1056B000B3F17F4F0CD80ED14FEAD07CB2F17F4FBF
:1056C0000CEB4C0C0CF1020C08BF4CEBD17C04E051
:1056D0004FF0080C01E04FEAD17C0CEB4C0324FAAC
:1056E00003F404F00704B4F1040C06D20EEB840CAE
:1056F000BDE810404CF0010C6047DFE80CF00708F3
:1057000002024FF00040A0F5800010BD08464200A4
:1057100018BFD2F1807288BF00F0004010BDFF2199
:1057200041EAD050C005704790EA010F48BF81F0B0
:1057300000413FF59EAE421A04D882F00042A0EB31
:10574000020011444FEAD0524FF07F4C1CEA410F47
:10575000A2EBD15318BF9CEA026F4AD04FF0004C25
:105760004CEA00204CEA012121FA03FCB0EB0C0CBE
:105770000FD412F0FE0F36D05FEA4C001DD5001298
:1057800040EBC25038BF70471CF03F0F18BF704746
:105790000BE0A2F101025FEA1C2040EBC25038BFCF
:1057A00070471CF07F0F18BF7047C3F1200399406A
:1057B00014BF401E20F00100704780084FEA1223FA
:1057C00008BF7047B0FA80FCA2EB0C02CCF1280CA9
:1057D00060FA0CF093EA122F04BF00EBC25070473E
:1057E0004FEAC3707047130A5FEADC1008BF7047C6
:1057F000F6E79CEA026F04D010EA5C0F08BF0020B5
:10580000704710B5FFF745FF40DFF63E81F00040DE
:105810007047FEF73FBA00000000000000000000E3
:105820000000000000000000000000000000000078
:105830000000000000000000000000000000000068
:105840000000000000000000800180018001800154
:105850008001800180018001800180018001800140
:1058600080010000000080018001000000000000B5
:1058700000000000000000000000CC00CC00CC00C4
:10588000CC00CC00CC0000000000000000000000B4
:105890000000000000000000000000000000000008
:1058A00000000000000000000000000000000000F8
:1058B0000000600C600C600C30063006FE1FFE1FFE
:1058C000300638071803FE1FFE1F180318038C014B
:1058D0008C018C01000000008000E003F80F9C0E9A
:1058E0008C1C8C188C009800F801E007800E801C3E
:1058F0008C188C189C18B80CF00FE0038000800006
:105900000000000000000000000000000E181B0C4A
:10591000110C11061106110311039B018E01C038F1
:10592000C06C60446044304430441844186C0C38F7
:105930000000000000000000E001F0033807180636
:1059400018063003F001F000F8009C310E33061EFB
:10595000061C061C063FFC73F0210000000000003E
:10596000000000000000000000000C000C000C0013
:105970000C000C000C000000000000000000000003
:105980000000000000000000000000000000000017
:105990000000000000000000000200038001C000C1
:1059A000C000600060003000300030003000300087
:1059B00030003000300060006000C000C000800196
:1059C000000300020000000020006000C000800111
:1059D0008001000300030006000600060006000622
:1059E0000006000600060003000380018001C000DD
:1059F0006000200000000000000000000000000027
:105A00000000C000C000D806F807E00130033807E6
:105A10000000000000000000000000000000000086
:105A20000000000000000000000000000000000076
:105A3000000080018001800180018001FC3FFC3F6B
:105A400080018001800180018001000000000000D1
:105A50000000000000000000000000000000000046
:105A60000000000000000000000000000000000036
:105A70000000000000000000800180010001000122
:105A80008000000000000000000000000000000096
:105A90000000000000000000000000000000E0071F
:105AA000E00700000000000000000000000000000F
:105AB00000000000000000000000000000000000E6
:105AC00000000000000000000000000000000000D6
:105AD0000000000000000000C000C0000000000046
