:020000040800F2
:10000000C0040020010100085D3000085F300008D6
:1000100063300008673000086B3000080000000003
:100020000000000000000000000000007130000827
:100030006F300008000000007330000875300008C1
:100040001B0100081B0100081B0100081B01000820
:100050001B0100081B0100081B0100081B01000810
:100060001B0100081B0100081B0100081B01000800
:100070001B0100081B0100081B0100081B010008F0
:100080001B0100081B0100081B0100081B010008E0
:100090001B0100081B0100081B0100081B010008D0
:1000A0001B0100081B0100081B0100081B010008C0
:1000B0007B3700081B010008632F00081B010008A4
:1000C0001B0100081B0100081B0100081B010008A0
:1000D0001B0100081B010008913200081B010008E9
:1000E0001B0100081B0100081B010008DFF80CD0F1
:1000F00003F0BCFE00480047C72B0008C0040020E6
:100100000648804706480047FEE7FEE7FEE7FEE7B1
:10011000FEE7FEE7FEE7FEE7FEE7FEE70302000874
:10012000ED0000080CB50020019000906C480068BC
:1001300040F480306A49086000BF6948006800F4F4
:10014000003000900198401C0190009818B9019867
:10015000B0F5A06FF1D16248006800F4003010B132
:100160000120009001E0002000900098012843D178
:100170005C48006840F010005A4908600846006872
:1001800020F0030008600846006840F002000860A4
:1001900053484068524948600846406848600846ED
:1001A000406840F4806048600846406820F47C1055
:1001B00048600846406840F4E81048600846006817
:1001C00040F08070086000BF4548006800F0007093
:1001D0000028F9D04248406820F0030040494860B8
:1001E0000846406840F00200486000BF3C48406854
:1001F00000F00C000828F9D10CBD10B5FFF792FFF4
:1002000010BD10B53648006840F001003449086060
:10021000084640683449084031494860084600684B
:10022000324908402E4908600846006820F48020C2
:1002300008600846406820F4FE0048604FF41F0044
:100240008860FFF7DAFF4FF000602949086010BDB1
:1002500010B5002100200022214B5B6803F00C0147
:1002600021B1042906D0082928D107E0214B224CCE
:10027000236027E01F4B204C236023E0184B5B6872
:1002800003F47010164B5B6803F48032022303EB17
:10029000904022B9194B4343174C23600DE0104B9B
:1002A0005B6803F4003323B1144B4343124C2360C7
:1002B00003E0104B4343104C236003E00D4B0E4C06
:1002C000236000BF00BF064B5B68C3F303130C4CF5
:1002D000E15C094B1B68CB40074C236010BD00005C
:1002E00000100240002002400000FFF8FFFFF6FE71
:1002F00008ED00E000127A000000002000093D0037
:100300000400002010B50446CC48844208D10121E5
:10031000042000F02DFB0021042000F029FB46E022
:10032000C748844208D10121082000F021FB0021A8
:10033000082000F01DFB3AE0C248844208D10121A8
:10034000102000F015FB0021102000F011FB2EE022
:10035000BD48844208D10121202000F009FB002182
:10036000202000F005FB22E0B848844208D101219A
:10037000402000F0FDFA0021402000F0F9FA16E0DC
:10038000B348844208D10121802000F0F1FA002115
:10039000802000F0EDFA0AE0AE48844207D1012146
:1003A000801500F0E5FA0021A01500F0E1FA10BD7B
:1003B00010B50121084600F0DBFA0021012000F011
:1003C000D7FA10BD2DE9F041024600250026002095
:1003D00000230024002791F803C00CF00F0591F8CA
:1003E00003C00CF0100CBCF1000F03D091F802C058
:1003F0004CEA050591F800C0BCF1000F31D014683B
:1004000000202BE04FF0010C0CFA00F3B1F800C013
:100410000CEA03069E4220D183004FF00F0C0CFA29
:1004200003F7BC4305FA03FC4CEA040491F803C04B
:10043000BCF1280F06D14FF0010C0CFA00FCC2F8F9
:1004400014C00AE091F803C0BCF1480F05D14FF089
:10045000010C0CFA00FCC2F810C0401C0828D1D3D3
:100460001460B1F800C0BCF1FF0F34DD5468002007
:100470002EE000F1080C4FF0010808FA0CF3B1F877
:1004800000C00CEA03069E4221D183004FF00F0CFE
:100490000CFA03F7BC4305FA03FC4CEA040491F898
:1004A00003C0BCF1280F05D100F1080C08FA0CF8C4
:1004B000C2F8148091F803C0BCF1480F07D100F1D5
:1004C000080C4FF0010808FA0CF8C2F81080401C24
:1004D0000828CED35460BDE8F0814FF6FF7101804B
:1004E000022181700421C170704702460020936888
:1004F0000B400BB1012000E00020704701468868E6
:1005000080B2704702460020D3680B400BB1012037
:1005100000E0002070470146C86880B27047016162
:100520007047416170470AB1016100E04161704765
:10053000C16070474FF480320A43826181618261F9
:1005400082698269704702460020434B18684FF663
:100550008073184040EA021008433F4B1860704710
:100560003E49C8617047F0B50A46002300240021C7
:10057000002500F00046B6F1004F02D1364EF16979
:1005800001E0354E7168C0F3034583B200F44016B4
:10059000B6F5401F08D121F070612F4E766826F025
:1005A00070662D4F7E6012E000F48016B6F5801F55
:1005B00006D1032606FA05F4A14341F0706106E076
:1005C000460D360103FA06F6B14341F0706122B1DF
:1005D000460D360103FA06F6314300F00046B6F147
:1005E000004F02D11C4EF16101E01B4E7160F0BD65
:1005F00030B500228B071C0F0F2303FA04F2164BB1
:1006000008338C1053F824309343134C08348D1066
:1006100044F8253023468C1053F824308C07240FDF
:1006200000FA04F423430C4C08348D1044F82530B0
:1006300030BD0A49DC310860704700000008014005
:10064000000C01400010014000140140001801405E
:10065000001C014000200140000001400000204239
:10066000DF48006840F00100DD4908600846406846
:10067000DC490840DA49486008460068DA49084021
:10068000D74908600846006820F4802008600846C2
:10069000406820F4FE0048604FF41F0088607047F7
:1006A000CF49096821F48031CD4A116011460968AB
:1006B00021F480211160B0F5803F03D0B0F5802F88
:1006C0000ED106E0C649096841F48031C44A116080
:1006D00007E0C349096841F4A021C14A116000E064
:1006E00000BF00BF704710B5014600220023002064
:1006F0004A11012A02D1BA4C236806E0022A02D12B
:10070000B74C236A01E0B64C636A01F01F02012472
:1007100094401C400CB1012000E0002010BD38B511
:10072000002000900024002500BF3120FFF7DBFFF0
:1007300005460098401C00900098B0F5A06F01D0CD
:10074000002DF2D03120FFF7CEFF08B1012400E0E8
:100750000024204638BD01460020A14A106820F040
:10076000F80040EAC10010607047A0490860704777
:10077000024600209A4B586820F47C1042EA01039C
:100780001843974B58607047984908667047014670
:100790000020934A506820F00300084350607047DF
:1007A0008F48406800F00C007047014600208C4ADA
:1007B000506820F0F0000843506070470146002068
:1007C000874A506820F4E060084350607047014653
:1007D0000020834A506820F4605040EAC100506015
:1007E000704729B17E4A527A02437D4B5A7204E027
:1007F0007B4A527A82437A4B5A7270477B49D8318E
:100800000860704701460020754A506820F4404057
:100810000843506070470021714A20321170704ABD
:1008200082F82010012802D004280AD104E0012116
:100830006B4A2032117005E00521694A203211709F
:1008400000E000BF00BF7047694908607047644915
:10085000096A0143624A1162704765494439086078
:10086000704730B500210022002400235C4D6D68E4
:1008700005F00C0121B1042905D0082923D105E098
:100880005C4D056022E05B4D05601FE0544D6D68D6
:1008900005F47012524D6D6805F48034022505EBA5
:1008A00092421CB9544D554305600BE04C4D6D68A8
:1008B00005F400351DB1504D5543056002E04D4D26
:1008C0005543056002E04B4D056000BF00BF444D3D
:1008D0006D6805F0F0010909484D6B5C0568DD4065
:1008E00045603F4D6D6805F4E061090A434D6B5C5E
:1008F0004568DD4085603A4D6D6805F46051C90A70
:100900003E4D6B5C4568DD40C560354D6D6805F456
:100910004041890B3A4D6B5CC568B5FBF3F5056149
:1009200030BD29B12E4A526902432D4B5A6104E071
:100930002B4A526982432A4B5A61704729B1284A8F
:1009400092690243264B9A6104E0254A92698243E8
:10095000234B9A61704729B1214AD2690243204B47
:10096000DA6104E01E4AD26982431D4BDA617047A6
:1009700029B11B4AD2680243194BDA6004E0184AD5
:10098000D2688243164BDA60704729B1144A126963
:100990000243134B1A6104E0114A12698243104B5F
:1009A0001A61704712494039086070470F49C8649E
:1009B00070470B49C87170470948406A40F0807021
:1009C00007494862704701460020054A92680A407C
:1009D0000AB1012000E00020704701498872704789
:1009E000001002400000FFF8FFFFF6FE0000424248
:1009F0008004424200127A0000093D0014000020E9
:100A00002400002031490143314A1160704770B51C
:100A1000002100230F22C47804B32D4C246804F471
:100A2000E064C4F5E064210AC1F10403CA404478DB
:100A300004FA03F18478144021430901254C067817
:100A4000A155047804F01F050124AC4005786D1110
:100A5000AD0005F1E025C5F8004109E0047804F097
:100A60001F050124AC401C4D0678761145F8264040
:100A700070BD1A4A0A400243154B1B1F1A6070478B
:100A800039B1134A121D12680243114B1B1D1A6023
:100A900006E00F4A121D126882430D4B1B1D1A609F
:100AA0007047042808D14FF0E021096941F00401A2
:100AB0004FF0E022116107E04FF0E021096921F0D9
:100AC00004014FF0E0221161704700000000FA05B8
:100AD0000CED00E000E400E080E100E080FFFF1F9B
:100AE00010B50446FE48844208D10121C014FFF726
:100AF0003FFF0021E014FFF73BFFC4E0B4F1804F5B
:100B000008D101210846FFF740FF00210120FFF72F
:100B10003CFFB8E0F348844208D101210220FFF7EE
:100B200034FF00210220FFF730FFACE0EE488442A2
:100B300008D101210420FFF728FF00210420FFF73E
:100B400024FFA0E0E948844208D101210820FFF7F2
:100B50001CFF00210820FFF718FF94E0E4488442BE
:100B600008D101211020FFF710FF00211020FFF70E
:100B70000CFF88E0DF48844208D101212020FFF7E4
:100B800004FF00212020FFF700FF7CE0DA488442C8
:100B900008D101214014FFF7EBFE00216014FFF79C
:100BA000E7FE70E0D548844209D10121C804FFF76F
:100BB000DFFE00214FF40020FFF7DAFE63E0D048AB
:100BC000844209D101210805FFF7D2FE00214FF42C
:100BD0008010FFF7CDFE56E0CA48844209D10121BA
:100BE0004805FFF7C5FE00214FF40010FFF7C0FED7
:100BF00049E0C548844208D101214020FFF7C5FEE5
:100C000000214020FFF7C1FE3DE0C048844208D1EA
:100C100001218020FFF7B9FE00218020FFF7B5FEFB
:100C200031E0BB48844208D101218015FFF7ADFEB9
:100C30000021A015FFF7A9FE25E0B648844209D19E
:100C400001210804FFF794FE00214FF48030FFF7E4
:100C50008FFE18E0B048844209D101214804FFF713
:100C600087FE00214FF40030FFF782FE0BE0AB4817
:100C7000844208D101218804FFF77AFE00214FF455
:100C80008020FFF775FE10BD00220288944B984229
:100C90000ED0994B98420BD0B0F1804F08D0914BB9
:100CA000984205D0904B984202D0904B984204D184
:100CB0004FF68F731A404B881A438D4B984207D0DA
:100CC0008C4B984204D04FF6FF431A40CB881A430E
:100CD00002808B8883850B880385814B98420BD0DB
:100CE000854B984208D08B4B984205D08A4B98424E
:100CF00002D08A4B984201D10B7A0386012383826A
:100D0000704770B5002400220023058C4FF6FE7654
:100D100035400584028C8388048B4FF68F752C40F8
:100D2000B51E2C400D882C43751E2A400D892A4380
:100D30004D882A436A4DA8420BD06F4DA84208D077
:100D4000744DA84205D0744DA84202D0734DA842FC
:100D500013D14FF6F7752A404D892A434FF6FB759C
:100D60002A408D882A434FF6FF652B404FF6FF55EA
:100D70002B408D892B43CD892B4383800483CD88E1
:100D80008586028470BD70B5002400220023058C86
:100D90004FF6EF7635400584028C8388048B48F645
:100DA000FF752C404FF6FF452C400D884FF6FF761F
:100DB00006EA05252C434FF6DF752A400D8906EA21
:100DC00005152A434D8806EA05152A43444DA842D5
:100DD00002D0494DA8421DD14FF67F752A404D895A
:100DE0004FF6FF7606EA05152A434FF6BF752A40EF
:100DF0008D8806EA05152A434FF6FF352B404FF242
:100E0000FF752B408D8906EA85052B43CD8906EABF
:100E100085052B4383800483CD880587028470BDBC
:100E200070B5002400220023058C4FF6FF66354084
:100E30000584028C8388848B4FF68F752C404FF687
:100E4000FC752C400D882C434FF6FF552A400D8928
:100E50004FF6FF7606EA05252A434D8806EA052562
:100E60002A431F4DA84202D0234DA8421DD14FF264
:100E7000FF752A404D894FF6FF7606EA05252A437D
:100E80004FF6FF352A408D8806EA05252A434EF69F
:100E9000FF752B404DF6FF752B408D8906EA051531
:100EA0002B43CD8906EA05152B4383808483CD88A7
:100EB0008587028470BD70B5002200230024058C54
:100EC0004EF6FF7635400584038C8488828B48F685
:100ED000FF752A404FF6FF452A400D8820E00000AC
:100EE000002C01400004004000080040000C0040BD
:100EF000001000400014004000340140004C01404C
:100F0000005001400054014000180040001C004007
:100F100000200040004001400044014000480140E2
:100F20004FF6FF7606EA05252A434DF6FF752B405E
:100F30000D8906EA05352B434D8806EA05352B4316
:100F4000FA4DA84202D0FA4DA84208D14BF6FF75DF
:100F50002C408D894FF6FF7606EA85152C43848058
:100F60008283CD88A0F84050038470BD828B4FF2FD
:100F7000FF331A408283828B4FF6FF7303EA01230B
:100F80001A4382837047F0B50C46154600220021B3
:100F90000026078C4EF6FF7C07EA0C070784828B3D
:100FA000018C4FF6FF7707EA043640F6FF473A40D8
:100FB0004FF6FF7707EA05273A434FF6FF7707EA30
:100FC00003373A43D94FB8420ED0D94FB8420BD06D
:100FD000B0F1804F08D0D74FB84205D0D64FB842B5
:100FE00002D0D64FB84206D14DF6FF77394046F4CD
:100FF0008057394305E047F6FF57394044F480579E
:10100000394382830184F0BD828B4FF6F3731A401B
:101010008283828B0A4382837047F0B50C46154663
:10102000002200210026078C4FF6FF6C07EA0C0710
:101030000784828B018C4FF6FF7707EA04264FF670
:101040000C773A404FF6FF7707EA03172F433A43EE
:10105000B64FB8420ED0B64FB8420BD0B0F1804F69
:1010600008D0B44FB84205D0B34FB84202D0B34F06
:10107000B84206D14FF6FF57394046F480773943DE
:1010800005E04FF2FF57394044F4807739438283BB
:101090000184F0BD028B4FF2FF331A400283028BB2
:1010A0004FF6FF7303EA01231A4302837047F0B53A
:1010B0000C461546002200210026078C4FF6EF7CD7
:1010C00007EA0C070784028B018C4FF6FF7707EACB
:1010D000041640F6FF473A404FF6FF7707EA03371A
:1010E0003A434FF6FF7707EA05273A438F4FB84256
:1010F0000ED08F4FB8420BD0B0F1804F08D08D4F3B
:10110000B84205D08C4FB84202D08C4FB84206D1BD
:101110004FF6DF77394046F01007394305E04FF6C8
:101120005F77394044F01007394302830184F0BDF2
:10113000028B4FF6F3731A400283028B0A43028339
:101140007047F0B50C46154600220021068C4FF67C
:10115000FE773E400684028B018C4FF60C763240BF
:101160007E1C06EA03162E433243704EB0420ED068
:101170006F4EB0420BD0B0F1804F08D06D4EB042F0
:1011800005D06D4EB04202D06C4EB04206D14FF643
:10119000FD76314044F00106314305E04FF6F57627
:1011A000314044F00106314302830184F0BD70B543
:1011B00005460C465D4885420ED05D4885420BD001
:1011C000B5F1804F08D05B48854205D05A4885422A
:1011D00002D05A48854200D100E000BF208850B9B3
:1011E0002389A28861882846FFF7ABFFE18828465B
:1011F000FFF79EFF25E0208804280AD12389A288D2
:1012000061882846FFF753FFE1882846FFF742FF31
:1012100017E0208808280AD12389A28861882846F7
:10122000FFF7FBFEE1882846FFF7EEFE09E0238981
:10123000A28861882846FFF7A6FEE1882846FFF7C6
:1012400095FE70BD2DE9F04105460C4600260127AC
:10125000608808B9022600E00026A088012801D194
:10126000022700E001272088A0B92389A28861888D
:101270002846FFF766FFE1882846FFF759FF2389D4
:101280003A4631462846FFF712FFE1882846FFF725
:1012900001FF13E02389A28861882846FFF707FF32
:1012A000E1882846FFF7F6FE23893A46314628466C
:1012B000FFF747FFE1882846FFF73AFFBDE8F081D6
:1012C0000A884B881A438B881A43CB881A430B89A8
:1012D0001A434B891A438B891A43A0F8442070475C
:1012E0004FF6FF71818000210180C1804180017231
:1012F00070470021018041808180C180018141814E
:101300008181C1817047002101804180012181805C
:101310000021C180018170470021018041808180CE
:10132000C18001814181818170470000002C014012
:10133000003401400004004000080040000C004060
:1013400021B1028842F00102028004E002884FF6D7
:10135000FE731A400280704731B1B0F8442042F465
:101360000042A0F8442005E0B0F84420C2F30E0289
:10137000A0F8442070471AB183890B43838102E0AF
:1013800083898B43838170478182704741EA0203DE
:10139000A0F8483070471AB183890B43838102E07B
:1013A00083898B438381704701894FF6F87211401E
:1013B000018170470A46002101894FF68F73194059
:1013C00011430181704730B504460D462946204639
:1013D000FFF7F0FF208940F00700208130BD2DE9A4
:1013E000F04104460D4616461F46602D06D13B4689
:1013F000012231462046FFF75AFE05E03B46012216
:1014000031462046FFF79DFE29462046FFF7D2FFD2
:10141000208940F007002081BDE8F08130B50C46FE
:1014200000210189C9B24FF6FF7505EA032515436E
:1014300025432943018130BD2DE9F04105460E4683
:1014400017469846002443463A4631462846FFF759
:10145000E5FF2C894FF6F870044044F007044FF67E
:101460008F70044044F070042C81BDE8F081F0B529
:1014700004460D4616461F463B4632462946204640
:10148000FFF7CCFF208940F480402081F0BD01852A
:10149000828270470A46002101884FF68F731940F7
:1014A000114301807047F0B50C4615461E460021D9
:1014B000002200230189028B038C4FF6F877394014
:1014C00021434FF6FC473A4040F201173A434FF6AA
:1014D000DD773B404FF6FF7707EA06172F433B4384
:1014E000018102830384F0BD0A460021018B4FF67F
:1014F0008F7319401143018370470A460021018B05
:1015000048F6FF7319404FF6FF7303EA02231943AD
:10151000018370470A460021818B4FF68F73194073
:101520001143818370470A460021818B48F6FF737F
:1015300019404FF6FF7303EA022319438183704772
:1015400021B1028842F08002028004E002884FF656
:101550007F731A400280704721B1828842F00402F2
:10156000828004E082884FF6FB731A4082807047C5
:1015700021B1828842F00802828004E082884FF61E
:10158000F7731A408280704721B1828842F00102CD
:10159000828004E082884FF6FE731A408280704792
:1015A0000A460021018B4FF6F7731940114301835E
:1015B00070470A460021018B4FF2FF7319404FF626
:1015C000FF7303EA02231943018370470A4600218F
:1015D000818B4FF6F77319401143818370470A4698
:1015E0000021818B4FF2FF7319404FF6FF7303EA1E
:1015F00002231943818370470A460021018B4FF66D
:10160000FB7319401143018370470A460021018B87
:101610004FF6FF3319404FF6FF7303EA02231943D5
:10162000018370470A460021818B4FF6FB731940F6
:101630001143818370470A460021818B4FF6FF33A7
:1016400019404FF6FF7303EA022319438183704761
:101650000A460021018B4FF67F7319401143018325
:1016600070470A460021018BC1F30E014FF6FF734C
:1016700003EA02231943018370470A460021818B44
:101680004FF67F7319401143818370470A4600214A
:10169000818BC1F30E014FF6FF7303EA0223194356
:1016A000818370470A460021018C4FF6FD73194073
:1016B0001143018470470A460021018C4FF6F773ED
:1016C00019401143018470470A460021018C4FF6EE
:1016D000DF7319404FF6FF7303EA021319430184C5
:1016E00070470A460021018C4FF67F7319404FF670
:1016F000FF7303EA02131943018470470A4600216D
:10170000018C4FF6FF5319404FF6FF7303EA022393
:101710001943018470470A460021018C4FF2FF7380
:1017200019404FF6FF7303EA0223194301847047FF
:101730000A460021018C4DF6FF7319404FF6FF73E6
:1017400003EA023319430184704730B500230124B2
:101750008C40A3B2048C9C430484048C02FA01F5EF
:10176000ADB22C43048430BD30B5002304248C403A
:10177000A3B2048C9C430484048C02FA01F5ADB23C
:101780002C43048430BD70B5034600200024184665
:10179000183001258D40ACB21D8CA5431D8409B1C4
:1017A000082909D100EB6100056825F07005056086
:1017B0000568154305600EE00D1FC5F34E0528446E
:1017C000056825F4E045056005684FF6FF7606EAF2
:1017D00002263543056070BD21B1028842F0020245
:1017E000028004E002884FF6FD731A4002807047C1
:1017F00021B1028842F00402028004E002884FF620
:10180000FB731A400280704721B1828842F0800247
:10181000828004E082884FF67F731A40828070478E
:1018200002884FF6F7731A40028002880A4302804A
:10183000704782884FF68F731A40828082880A43ED
:101840008280704702894FF6F8731A40028102893C
:101850000A430281704702894FF67F731A40028162
:1018600002890A43028170478184704781857047ED
:10187000818670470187704781877047A0F84010C4
:10188000704702884FF6FF431A40028002880A43DD
:10189000028070470146888E70470146088F704766
:1018A0000146888F70470146B1F8400070470146F5
:1018B000888C70470146088D704702460020138AC5
:1018C0000B400BB1012000E000207047CA430282A8
:1018D000704730B50246002000230024158A05EA2F
:1018E0000103958905EA010413B10CB1012000E060
:1018F000002030BDCA4302827047000010B5044684
:10190000FB48844209D101218803FFF731F8002107
:101910004FF48040FFF72CF832E0F648844209D1BA
:1019200001214804FFF731F800214FF40030FFF7A0
:101930002CF825E0F048844209D101218804FFF702
:1019400024F800214FF48020FFF71FF818E0EB483F
:10195000844209D10121C804FFF717F800214FF490
:101960000020FFF712F80BE0E548844208D101217E
:101970000805FFF70AF800214FF48010FFF705F87B
:1019800010BD2DE9F04786B005460E460024A2465C
:1019900000BFA1460027B08900B100BF2F462C8AA6
:1019A0004CF6FF700440F08804432C82AC894EF65C
:1019B000F3100440B0883189084371890843044317
:1019C000AC81AC8A4FF6FF400440B0890443AC823E
:1019D00001A8FEF746FFC648874202D1DDF810A0F5
:1019E00001E0DDF80CA0A88900F4004040B10AEB4A
:1019F000CA0000EB0A1031684900B0FBF1F807E0BB
:101A00000AEBCA0000EB0A1031688900B0FBF1F85C
:101A10006420B8FBF0F004012009642101FB108967
:101A2000A88900F4004040B1322000EBC900B0FBAF
:101A3000F1F000F00700044308E0322000EB091049
:101A40006421B0FBF1F000F00F0004432C8106B0DC
:101A5000BDE8F0874FF41651016000218180C180FC
:101A600001810C21418100218181704710B502461E
:101A70000020108A4FF2FF0318400B884C88234344
:101A80008C882343CC8823431843108210BD002147
:101A9000018041808180C180704721B1828942F4F8
:101AA0000052828104E082894DF6FF731A408281E0
:101AB0007047F0B50346002400260025002040F6BC
:101AC0006A17B94200D100BF1846C1F3421401F0B1
:101AD0001F06012707FA06F5012C01D10C3004E09E
:101AE000022C01D1103000E014301AB107682F43E6
:101AF000076002E00768AF430760F0BD1AB1838A50
:101B00000B43838202E0838A8B4383827047028A7D
:101B10004FF6F0731A400282028A0A43028270472B
:101B200082894FF2FF731A40828182890A4382813F
:101B3000704721B1828942F00202828104E08289E9
:101B40004FF6FD731A4082817047028A4FF6DF73A9
:101B50001A400282028A0A430282704721B1028A35
:101B600042F48042028204E0028A4BF6FF731A407C
:101B700002827047C1F3080282807047014688885C
:101B8000C0F308007047818941F0010181817047ED
:101B9000028BD2B20283028B42EA01220283704797
:101BA000028B02F47F420283028B0A430283704756
:101BB00021B1828A42F02002828204E0828A4FF6BA
:101BC000DF731A408282704721B1828A42F010028C
:101BD000828204E0828A4FF6EF731A408282704755
:101BE00021B1828A42F00802828204E0828A4FF6A2
:101BF000F7731A408282704721B1828942F4004211
:101C0000828103E08289C2F30E028281704721B192
:101C1000828A42F40062828204E0828A4FF2FF7379
:101C20001A4082827047828A4FF6FB731A40828282
:101C3000828A0A438282704721B1828A42F002027C
:101C4000828204E0828A4FF6FD731A4082827047D6
:101C500002460020B1F5007F00D100BF13880B4081
:101C60000BB1012000E00020704701F40072B2F5D2
:101C7000007F00D100BFCA430280704770B50246A2
:101C8000002400230025002040F66A16B14200D14E
:101C900000BFC1F3421501F01F03012606FA03F34A
:101CA000012D02D19689334006E0022D02D1168A19
:101CB000334001E0968A33400C12012606FA04F400
:101CC0001688344013B10CB1012000E0002070BD33
:101CD00010B50022002340F66A14A14200D100BFD3
:101CE0000A1201249440A3B2DC43048010BD00001A
:101CF000003801400044004000480040004C0040D3
:101D00000050004029B1504A128802434E4B1A80BD
:101D100004E04D4A128882434B4B1A8070474A4870
:101D2000001D008840F010004749091D08807047D9
:101D30004548001D00884FF6EF7108404249091DD3
:101D400008807047002140481C300188001F00882F
:101D500041EA0040704700B50246FFF7E0FF100C73
:101D6000394918310880091D0A80FFF7E1FF00BDDD
:101D700000B50246FFF7D3FFC2F3034032490831F2
:101D80000880091D0A80FFF7D3FF00BD00B5024699
:101D9000FFF7C5FF100C2C4920310880091D0A806F
:101DA000FFF7C6FF00BD0020274910310988090749
:101DB000080B2549143109880843704700BF2248A1
:101DC000001D008800F020000028F8D070471E4851
:101DD000001D00884FF6F77108401B49091D088057
:101DE00000BF1948001D008800F008000028F8D046
:101DF000704701460020144A121D12880A400AB199
:101E0000012000E0002070470F49091D0988814327
:101E10000D4A121D11807047014600200A4A121D0A
:101E200012880A40D0B2084A12880A4012B108B19A
:101E3000012000E0002070470349091D0988814303
:101E4000014A121D118070470028004010B5012181
:101E50000807FEF79AFD00214FF08050FEF795FD30
:101E600010BD2A4908627047284908617047014639
:101E70000020274A106820F0E000084310607047F7
:101E80002249A0310860704710B502460020204B5F
:101E9000186820F00300104318601E4B1B6843F0C5
:101EA00004031C4C2360012901D130BF00E020BF96
:101EB000184B1B6823F00403164C236010BD144814
:101EC000006840F00400124908600846006840F0CD
:101ED000020008600F48006840F004000D490860E7
:101EE00000BF00BF30BF704701460020084A52685B
:101EF0000A400AB1012000E0002070470449096847
:101F000041EA8001024A11607047000000000E4261
:101F10000070004010ED00E010B50120FEF742FD1A
:101F20000020FEF73FFD10BD2A490860704729498F
:101F3000091F0860704727498431086070470146CF
:101F40000020254A10884FF67F4210400843224A5D
:101F500010807047014600201F4A10884FF680729B
:101F6000104008431C4A1080704708B500220092B8
:101F7000194A2C3A0092009A02440092009A116089
:101F800008BD08B501460020009013482C38009089
:101F90000098084400900098008808BD0D489C30C7
:101FA0000068C0B270470C480830008840F001005B
:101FB00009490831088070470648A0300068C0B25F
:101FC000704705480830008840F002000249083197
:101FD0000880704704860D422C6C0040002109E007
:101FE000002201E0531C9AB240F6B8339A42F9DB62
:101FF0004B1C99B28142F3DB704710B5FD4BDB6897
:102000009AB24FF40073FC4C23605B1023602023D2
:10201000241F2360F74BD8602023241D2360241F36
:102020002360DB002360F34BD9602023241D236051
:10203000241F2360DB002360EE4BDA6010BD00B587
:1020400001210020FFF7D9FF4FF47A70FFF7C6FF98
:1020500000210120FFF7D1FF41F290711020FFF71E
:10206000CCFF4FF41C516020FFF7C7FF0121612016
:10207000FFF7C3FF02214620FFF7BFFF48F2100120
:102080001320FFF7BAFF48F2FE011220FFF7B5FF59
:102090004FF4A0610220FFF7B0FF41F230010320AE
:1020A000FFF7ABFF40F203313020FFF7A6FF40F20D
:1020B00003313120FFF7A1FF40F203313220FFF757
:1020C0009CFF4FF440713320FFF797FF032134202A
:1020D000FFF793FF40F203313520FFF78EFF142105
:1020E0003620FFF78AFF40F203313720FFF785FFE4
:1020F00040F203313820FFF780FF40F203313920EE
:10210000FFF77BFF4FF440713A20FFF776FF032182
:102110003B20FFF772FF40F203313C20FFF76DFFD9
:102120004FF4A0513D20FFF768FF4FF4007192205B
:10213000FFF763FF40F203319320FFF75EFF40F6A5
:102140000D019020FFF759FF41F218010320FFF71E
:1021500054FF40F273110720FFF74FFF00BD00B599
:1021600043F20801E320FFF748FF1221E720FFF7C1
:1021700044FF41F23121EF20FFF73FFF0021012012
:10218000FFF73BFF4FF4E0610220FFF736FF41F21B
:1021900030010320FFF731FF00210420FFF72DFF5E
:1021A00040F207210820FFF728FF00210920FFF750
:1021B00024FF00210A20FFF720FF00210C20FFF759
:1021C0001CFF00210D20FFF718FF00210F20FFF753
:1021D00014FF00211020FFF710FF07211120FFF747
:1021E0000CFF00211220FFF708FF00211320FFF74A
:1021F00004FF4FF47A70FFF7F1FE41F29061102076
:10220000FFF7FBFE40F227211120FFF7F6FE3220F8
:10221000FFF7E4FE1D211220FFF7EFFE3220FFF74B
:10222000DDFE4FF400611320FFF7E7FE14212920A3
:10223000FFF7E3FE0B212B20FFF7DFFE3220FFF735
:10224000CDFE00212020FFF7D8FE00212120FFF73E
:10225000D4FE07213020FFF7D0FE40F20771312075
:10226000FFF7CBFE06213220FFF7C7FE40F20471D4
:102270003520FFF7C2FE41F604713620FFF7BDFEA0
:1022800004213720FFF7B9FE00213820FFF7B5FE03
:1022900040F206713920FFF7B0FE40F201713C2098
:1022A000FFF7ABFE0F213D20FFF7A7FE00215020D6
:1022B000FFF7A3FEEF215120FFF79FFE00215220E0
:1022C000FFF79BFE40F23F115320FFF796FE4FF4BD
:1022D0001C516020FFF791FE01216120FFF78DFE68
:1022E00000216A20FFF789FE00218020FFF785FE8C
:1022F00000218120FFF781FE00218220FFF77DFE73
:1023000000218320FFF779FE00218420FFF775FE6E
:1023100000218520FFF771FE10219020FFF76DFE50
:1023200000219220FFF769FE03219320FFF765FE4D
:102330004FF488719520FFF760FE00219720FFF78A
:102340005CFE00219820FFF758FE41F2180103209F
:10235000FFF753FE40F273110720FFF74EFE00BD5A
:1023600008B54FF6FF70ADF8000003208DF80200AD
:1023700010208DF8030069461E48FEF723F808BDBB
:1023800008B54FF6FF70ADF8000003208DF802008D
:1023900048208DF8030069461648FEF713F808BD7B
:1023A00070B504464FF4007013490860401008608F
:1023B0002020091F08600F48C4602020091D086004
:1023C000091F0860C0000860FFF7DAFF4FF4806063
:1023D000094908600748806885B20815091F086028
:1023E000FFF7BEFF4FF400700349091F086028463D
:1023F00070BD000000100140140C014008B501211F
:102400001820FEF79BFA01212020FEF797FA4FF4DF
:10241000E460ADF8000001208DF8020010208DF876
:1024200003006946F648FDF7CDFFFFF799FFF44832
:102430001030006840F4C460F1491031086008BDF4
:1024400010B5FFF7DBFF0020FFF7AAFFED4908807A
:102450000846008848F23021884202D1FFF7EFFD9C
:1024600001E0FFF77CFE0020FFF79AFFE5490880B6
:1024700010BD01B5BDF80000E349088008BD01B5F5
:10248000BDF80000E149088008BD30B504460D469E
:1024900021462020FFF7B1FD29462120FFF7ADFDA1
:1024A00030BDDB4AD26891B24FF40072D44B143382
:1024B0001A6052101B1F1A6020221A60D44AD06082
:1024C00020221B1D1A601B1F1A60D2001A605200C6
:1024D0001A60CF4AD1607047CD49C96888B24FF4BD
:1024E0000071C74A14321160491011602021121F77
:1024F00011602221C64AD1602021C14A14321160E4
:10250000121F1160C900116049001160C049C86004
:1025100070472DE9F04306468946174600240025FA
:10252000A046B04649464046FFF7AFFF00BF1EE059
:10253000FFF7D2FF00250FE037F814000121A94072
:10254000084020B9B1480088FFF7ABFF03E0AE4870
:102550000088FFF7A6FF6D1C102DEDD308F10100D8
:1025600000F0FF0849464046FFF78FFF641C182C17
:10257000DED3BDE8F08370B505460E461446A4F1DF
:102580002000C4B204EB4400A24901EB0012314622
:102590002846FFF7BEFF70BDF0B507460C46002584
:1025A00040F23F1609E0227831463846FFF7E3FF54
:1025B000A6F1100086B2641C6D1C207808B1142DA1
:1025C000F1D3F0BD10B5044693A12046FFF7E4FF18
:1025D00010BD30B50546002400210846FFF755FF21
:1025E000FFF77AFF00BF03E02846FFF75AFF641C9D
:1025F000B4F5963FF8D330BDF0B504460D46164607
:102600001F46B44206DBA01B401C81B25020FFF7DE
:10261000F4FC03E000215020FFF7EFFC214651209D
:10262000FFF7EBFCBD4206DBE81B401C81B25220E9
:10263000FFF7E3FC03E000215220FFF7DEFC294610
:102640005320FFF7DAFC29462046FFF71EFFF0BDB6
:1026500000B54FF4A073F022591EEF20FFF7CCFF16
:1026600041F218010320FFF7C8FC00BD2DE9F0413D
:102670000646884615461F46002441463046FFF769
:1026800004FF5FB9FFF728FF00BF04E05E48008841
:10269000FFF707FF641CAC42F8D310E000240CE005
:1026A000FFF71AFF58480088FFF7FBFE701CC6B200
:1026B00041463046FFF7E9FE641CAC42F0D3BDE86A
:1026C000F081F0B505460E4617461C46002322460B
:1026D00031462846FFF7CAFFE919C8B2002322464F
:1026E0003146FFF7C3FF01233A4631462846FFF73C
:1026F000BDFF301B401C81B201233A462846FFF73C
:10270000B5FFF0BD2DE9F04306460F469046032085
:10271000A0EB4809002445466EE07A1991B23219BF
:10272000D0B2FFF7B2FEFFF7D7FE37480088FFF7B9
:10273000B8FE7A1B91B23219D0B2FFF7A6FEFFF7AE
:10274000CBFE31480088FFF7ACFE7A1991B2321BFC
:10275000D0B2FFF79AFEFFF7BFFE2B480088FFF7C5
:10276000A0FE7A1B91B2321BD0B2FFF78EFEFFF7AC
:10277000B3FE25480088FFF794FE3A1991B272190A
:10278000D0B2FFF782FEFFF7A7FE1F480088FFF7D1
:1027900088FE3A1B91B27219D0B2FFF776FEFFF7AE
:1027A0009BFE19480088FFF77CFE3A1991B2721B14
:1027B000D0B2FFF76AFEFFF78FFE13480088FFF7DD
:1027C00070FE3A1B91B2721BD0B2FFF75EFEFFF7AC
:1027D00083FE0D480088FFF764FEB9F1000F04DAAC
:1027E000062000EB8400814405E0601B0A2101EB18
:1027F000800081446D1E641CAC428ED9BDE8F0831C
:10280000000C01402C000020280000202A0000209D
:1028100000100140244200082020202020202020F9
:102820002020202020202020202020200000000028
:1028300070B506460024002540F23F110020FFF746
:1028400024FEFFF749FE00BF14E000250FE056F814
:1028500024000121A940084020B95F480088FFF703
:1028600020FE03E05D480088FFF71BFE6D1C202D55
:10287000EDD3641CB4F5166FE7D370BD70B5044694
:10288000002500266688A08846EA00466589A0895A
:1028900045EA0045701B46082C4441F2080103201C
:1028A000FFF7ABFBFFF718FE002504E02088FFF7D9
:1028B000F8FDA41C6D1CB542F8D341F218010320A9
:1028C000FFF79BFB70BD10B54FF4007044490860E2
:1028D000401008602020091F086022204149C8607C
:1028E00020203F490860091F0860C0000860FFF70A
:1028F00047FD4FF480603A4908603A48806884B2E6
:102900000815091F0860FFF72BFD4FF400703449CC
:10291000091F0860204610BD00B500211020FFF7F8
:102920006CFB00211120FFF768FB00211220FFF74C
:1029300064FB00211320FFF760FB1420FFF74EFB20
:1029400041F2B0711020FFF758FB40F2371111200F
:10295000FFF753FB0520FFF741FB40F2391112202E
:10296000FFF74BFB0520FFF739FB4FF4E85113202D
:10297000FFF743FB13212920FFF73FFB0520FFF75B
:102980002DFB40F273110720FFF737FB00BD00B5A8
:1029900040F273110720FFF730FB00BD00B50021A6
:1029A0000720FFF72AFB00BD30B505460021084689
:1029B000FFF76BFDFFF790FD002409E015F81420E8
:1029C0006100491C695C42EA0120FFF76AFD641C52
:1029D000B4F5963FF2DB30BD2A000020280000202D
:1029E000140C01400010014038B504460D46ADF806
:1029F000004003208DF8020010208DF80300694686
:102A0000FE48FDF7DFFC012D04D12146FB48FDF710
:102A100086FD03E02146F948FDF783FD38BD38B552
:102A20000446ADF8004018208DF8030003208DF80F
:102A300002006946F148FDF7C5FC38BD10B5F04805
:102A4000007810B1EF48007820B900210220FFF78C
:102A5000CBFF0EE0EA48007840B1EA4800786428ED
:102A600004D101210220FFF7BFFF02E00220FFF79F
:102A7000D6FFE548007840B1E4480078642804D1E6
:102A800001210420FFF7B0FF0DE0DF48007810B10E
:102A9000DE48007820B900210420FFF7A5FF02E0FE
:102AA0000420FFF7BCFFD6480078A0B9D6480078CC
:102AB00088B900214FF08040FEF742FC0021012040
:102AC000FDF749FF01214804FDF745FF0121D048EA
:102AD000FEF7E3FF10E00021CD48FEF7DEFF002106
:102AE0004FF40030FDF737FF01210846FDF733FFB3
:102AF00001218807FEF724FC10BDC649086000BF0D
:102B0000C44909680029FBD1704710B500F080FD69
:102B1000C148007801280DD1B948007880F0010043
:102B2000B74908700020B8490870FFF787FF0020F8
:102B3000BA490876B8480078022816D1B14800781A
:102B4000642805DAAF4800780A30AE49087002E020
:102B50000020AC490870FFF771FFAA4801780020F7
:102B600000F007FD0520FFF7C8FFAB4800780428F8
:102B70000DD1A548007880F00100A349087000201D
:102B80009F490870FFF75AFF0020A4490876A24821
:102B90000078082816D19D480078642805DA9B48FB
:102BA00000780A309949087002E0002097490870BF
:102BB000FFF744FF95480178012000F0DAFC05207A
:102BC000FFF79BFF10BD08B54FF4E060FDF71AFF5B
:102BD000934800684FF47A72B0FBF2F1481EB0F1EE
:102BE000807F00D31BE0481E4FF0E0225061501759
:102BF0000F22002807DA13071D0E8A4B00F00F047E
:102C0000241F1D5503E013071C0E874B1C5400BFE7
:102C100000204FF0E02290610720106100BF00F01B
:102C200031FA00F0A7FA00F0FEFAFFF709FC00F015
:102C30008DFC00F0D5FC00F04EFDFFF7FFFE00F02C
:102C4000ABFE32223B21172000F0D4FE1F20FFF7FD
:102C5000C0FC1F20FFF713FC4FF6FF70FFF709FCC5
:102C6000002000F09DFC67490870012000F098FCEE
:102C70006649087074E100F0D0FE14216B4800F042
:102C800006FF604802786AA1684801F001F96749C7
:102C90000020FFF781FC1421644800F0F8FE5B4837
:102CA000027869A1614801F0F3F860493020FFF72C
:102CB00073FC14215D4800F0EAFE6948006800904A
:102CC00068480368684869A10268584801F0E0F85C
:102CD00056496020FFF760FC49480078A0B11421F4
:102CE000524800F0D4FE69A1504801F0D1F84F4994
:102CF0009020FFF751FC0121084600F0EBF900217C
:102D0000022000F0E7F92BE03F480078A0B1142141
:102D1000464800F0BCFE62A1444801F0B9F84349BE
:102D20009020FFF739FC0121022000F0D3F90021A7
:102D3000012000F0CFF913E014213C4800F0A7FE79
:102D40005CA13A4801F0A4F838499020FFF724FC30
:102D50000021012000F0BEF90021022000F0BAF9A4
:102D60001421324800F093FE57A1304801F090F84A
:102D70002E49C020FFF710FC5848007820B10020F1
:102D800056490870FFF7C1FE55480078002833D037
:102D90000020534908705348407830385149097829
:102DA000303901EB810100EB41001C49C8604D48FE
:102DB000007930384B49C978303901EB810100EB9B
:102DC0004100164908614748C0793038454989793A
:102DD000303901EB810100EB410010494861414865
:102DE000C07A303808703F48407B30384870002047
:102DF00008764860087277E089E00000000801402A
:102E00003800002044000020390000204500002048
:102E100000440040300000203C00002090000020D2
:102E20000000002018ED00E000E400E05400002065
:102E3000202050574D2D5041313A20256425252022
:102E40002020202020000000202050574D2D5041F0
:102E5000323A202564252520202020202000000053
:102E6000500000204C000020480000202020546921
:102E70006D653A25302E32643A25302E32643A257B
:102E8000302E3264202020200000000020204368E3
:102E9000616E6E656C3A2050413120202020200068
:102EA00020204368616E6E656C3A205041322020CC
:102EB0002020200020204368616E6E656C3A204E11
:102EC0004F4E4520202020002020436F6D6D616E05
:102ED000643A2020202020202020200036000020DE
:102EE00037000020AC00002001200876142145485E
:102EF00000F0CDFD444A45A1424800F0C9FF4149D8
:102F0000D820FFF749FB14213F4800F0C0FD41489D
:102F1000007E08B33F48C0683F49096888421FD116
:102F20003C4800693D490968884219D139484069DF
:102F30003B490968884213D136480078012802D1FC
:102F40003849087002E0012037490870FFF776FD24
:102F500001203049087203E034A1D820FFF71CFBA0
:102F600089E610B501213748FEF7B3FC002847D0A9
:102F700001213448FEF7BEFC33480088401C80B273
:102F8000314908800A2804DB0020088001202F49ED
:102F900008702F4800787B280FD02D480078401CFF
:102FA000C0B22B490870322807DB7B200870012053
:102FB000284908700020284908701648007EF8B19A
:102FC0001448007AE0B113484068401C1149486039
:102FD000497801EB4102C2EBC111B0EBC10F0FD335
:102FE0000C480078012803D100200E49087002E047
:102FF00000200D490870002006490876FFF71EFDE5
:1030000010BD000054000020AC00002025323073B9
:103010000000000090000020480000204C0000202C
:1030200050000020380000203900002020202020FF
:1030300020202020202020204E6F6E652020202080
:10304000000000000008004034000020360000208E
:103050003B000020370000203A000020704700BFEE
:10306000FEE700BFFEE700BFFEE700BFFEE77047D8
:103070007047704702480068401E01490860704769
:103080003000002008B501213020FDF757FC4FF437
:103090007F40ADF8000001208DF8020010208DF86F
:1030A000030069462648FDF78DF90420ADF80000BD
:1030B00069462448FDF786F94FF47F412048FDF723
:1030C0002EFA04211F48FDF72AFA04211D48FDF7B6
:1030D00028FA08BD70B504460D46012D0FD14FF6F4
:1030E000FF7000EA04211648FDF71BFA0421154879
:1030F000FDF715FA04211348FDF713FA0EE04FF619
:10310000FF7000EA04210E48FDF709FA04210D487A
:10311000FDF705FA04210B48FDF703FA70BD10B561
:1031200004460748C06880EA04200549C8600421B5
:103130000448FDF7F4F904210248FDF7F2F910BD47
:10314000001001400014014010B501210420FDF7DA
:1031500002FC10BD08B51E208DF8000000208DF87F
:1031600001008DF8020001208DF803006846FDF78C
:103170004EFC08BD3EB50024FFF7E6FFFFF7EAFF6F
:10318000124800681249B0FBF1F0401E84B240F2D0
:10319000E730ADF80400ADF800400020ADF80600BF
:1031A000ADF8020069460B48FDF76EFD012221468D
:1031B0000848FEF76CF9012211460648FEF7DBF8D5
:1031C00001210448FEF7BCF83EBD000000000020CD
:1031D00040420F000008004010B501214804FDF7EF
:1031E000BAFB01210520FDF7A9FB10BD08B5082099
:1031F000ADF8000004208DF8030069463348FDF760
:10320000E1F808BD08B526208DF8000000208DF8F3
:10321000010002208DF8020001208DF803006846AD
:10322000FDF7F5FB08BD1FB5FFF7D6FFFFF7DEFF83
:10323000FFF7E8FF4FF4165000900020ADF80400AF
:10324000ADF80600ADF80800ADF80C000420ADF8AC
:103250000A0069461E48FEF794FB01211C48FEF750
:103260001CFC012240F225511948FEF722FC1FBD2B
:1032700070B504460D46E1B21548FEF77BFC00BF71
:1032800040211348FEF7E4FC0028F9D0204670BD29
:1032900010B540F225510E48FEF7F0FCA8B1002011
:1032A0000C4908700A48FEF769FCC1B20A48027866
:1032B0000078401C084B1870084881541846007864
:1032C000142802DB00201946087010BD00080140D8
:1032D000004400403B0000203A000020AC000020E9
:1032E00008B58020ADF8000002208DF802002820EB
:1032F0008DF803006946B948FDF764F808BD08B5C4
:103300008020ADF8000002208DF8020010208DF81A
:1033100003006946B148FDF755F808BD10B50446ED
:1033200024B18021AD48FDF7FAF803E08021AB48D5
:10333000FDF7F7F810BD10B5044624B14021A748A9
:10334000FDF7EDF803E04021A448FDF7EAF810BDD1
:1033500010B58021A148FDF7C8F810BD002100E09C
:10336000491C8142FCD3704710B50120FFF7D6FFFE
:103370004FF4FA70FFF7F2FF0120FFF7DCFF4FF484
:10338000FA70FFF7EBFF0020FFF7C8FF4FF4FA7069
:10339000FFF7E4FF0020FFF7CEFF4FF4FA70FFF7CE
:1033A000DDFF10BD10B50020FFF7C5FF4FF4FA7028
:1033B000FFF7D4FF0020FFF7B1FF4FF4FA70FFF7DB
:1033C000CDFF0120FFF7B7FF4FF4FA70FFF7C6FFFC
:1033D0000120FFF7A3FF4FF4FA70FFF7BFFF10BD06
:1033E00010B50524FFF77CFF4FF4FA70FFF7B6FF26
:1033F0000120FFF7A0FF4FF4FA70FFF7AFFF0CE0DA
:10340000601E84B24FF4FA70FFF7A8FF2CB9FFF7E3
:1034100076FFFFF7C7FF002010BDFFF799FF0028D8
:10342000EED1FFF76CFF0020FFF785FF4FF4FA7035
:10343000FFF794FF0120EFE710B50020FFF76EFFC4
:103440004FF4FA70FFF78AFF4FF4FA70FFF786FF28
:103450000120FFF770FF4FF4FA70FFF77FFF0020A5
:10346000FFF769FF4FF4FA70FFF778FF10BD10B552
:103470000120FFF753FF4FF4FA70FFF76FFF0120B1
:10348000FFF759FF4FF4FA70FFF768FF0020FFF7CE
:1034900052FF4FF4FA70FFF761FF10BD70B504469C
:1034A00008251BE00020FFF746FF4FF4FA70FFF7F6
:1034B00055FF04F08000FFF731FF4FF4FA70FFF77B
:1034C0004DFF6006040E4FF4FA70FFF747FF01202E
:1034D000FFF731FF4FF4FA70FFF740FF281EA5F108
:1034E0000101CDB2DED1FFF726FF4FF4FA70FFF7EE
:1034F00035FF70BD70B508250024FFF7F1FE16E01A
:103500006006040E0020FFF716FF4FF4FA70FFF775
:1035100025FF4FF4FA70FFF721FF0120FFF70BFFA3
:103520004FF4FA70FFF71AFFFFF712FF0443281E4B
:10353000A5F10101CDB2E3D1FFF7FDFE4FF4FA7022
:10354000FFF70CFFFFF7DBFE204670BD08B5012139
:103550000820FDF7F3F9C020ADF8000002208DF837
:10356000020010208DF8030069461C48FCF72AFF72
:1035700008BD70B505460C46FFF7F6FEA020FFF724
:103580008DFFFFF72DFF2846FFF788FFFFF728FF85
:103590002046FFF783FFFFF723FFFFF703FF70BD10
:1035A00070B50446FFF7E0FEA020FFF777FFFFF7B6
:1035B00017FF2046FFF772FFFFF712FFFFF7D4FE59
:1035C000A120FFF76BFFFFF70BFFFFF793FF054607
:1035D000FFF74DFFFFF7E6FE284670BD000C0140E7
:1035E00008B501210C20FDF7A9F940F20110ADF852
:1035F000000004208DF8030069461D48FCF7E2FE38
:103600000620ADF8000069461A48FCF7DBFE08BD4D
:1036100070B5F02401211648FCF767FF05464FF40A
:1036200080711348FCF761FF45EA4005022111480B
:10363000FCF75BFF45EA800504210E48FCF755FFC7
:1036400045EAC000044384F0FF040B480078604062
:1036500020400A4908700CB9012000E0002006490A
:103660000978614048430649087003490C7070BDF1
:1036700000080140000C01403E0000203C000020FA
:103680003D00002010B501210846FDF764F9012135
:103690000520FDF753F910BD08B50620ADF8000070
:1036A00018208DF8030003208DF802006946AE480B
:1036B000FCF788FE08BD08B51C208DF8000000202E
:1036C0008DF8010001208DF802008DF80300684696
:1036D000FDF79DF908BD10B588B00024FFF7D2FFB3
:1036E000FFF7E9FFFFF7D8FFA0480068A049B0FB4B
:1036F000F1F0401E84B24FF6FF70ADF81800ADF83F
:1037000014400020ADF81A00ADF8160005A94FF0DE
:103710008040FDF7B9FA3020ADF804000120ADF883
:10372000060094480088ADF80A000220ADF80C00AD
:1037300001A94007FDF727FB00214FF08040FDF76E
:1037400038FF0120ADF806008B480088ADF80A006C
:1037500001A94FF08040FDF763FB00214FF080404E
:10376000FDF734FF01218807FDF7EAFD01220C2156
:103770009007FDF700FE08B010BD2DE9F04F89B0AD
:103780004FF0000A04210807FEF7A3F800286DD0C7
:1037900004210807FEF7AEF84FF08040FEF77DF8F1
:1037A00082467648007858B37548007800F093FA5E
:1037B000804689466F48008800F08DFA714A724B46
:1037C000CDE9020100F015FA42464B46CDE904016D
:1037D00000F00FFA04460D46504600F07CFA06460B
:1037E00022462B4600F05EF9CDE9060100F080FA92
:1037F0001FFA80FB59464FF08040FEF73BF82FE060
:103800005F48007800F067FA5E4A5F4BCDE900013F
:1038100000F0EFF900225D4BCDE9020100F0E6F97E
:10382000CDE904015348008800F055FA8046DDE9EF
:10383000042300F0DEF904460D46504600F04BFA32
:10384000064622462B4600F02DF9CDE9060100F090
:103850004FFA1FFA80FB59464FF08040FEF70AF8F6
:103860004648007880F00100444908700821C806E5
:10387000FEF72FF8002874D00821C806FEF73AF8A2
:103880004FF08040FEF70CF882463B4800885044D9
:1038900081B24FF08040FDF7EFFF3D48007850B314
:1038A0003C48007800F017FACDE90401324800885E
:1038B00000F011FA8046334A334B00F09AF9CDE913
:1038C0000201DDE9042300F094F906460F46504654
:1038D00000F001FA32463B46CDE9060100F0E2F87D
:1038E000044600F005FA1FFA80FB59464FF080406D
:1038F000FDF7C2FF2FE02748007800F0ECF9804682
:10390000204A214B00F075F90022204BCDE900013F
:1039100000F06CF9CDE904011748008800F0DBF9EC
:10392000CDE90201DDE9042300F063F904460D4608
:10393000504600F0D0F9064622462B4600F0B2F879
:10394000CDE9060100F0D4F91FFA80FB59464FF08B
:103950008040FDF791FF0E48007880F001000C498F
:10396000087009B0BDE8F08F000801400000002099
:1039700000366E014000002042000020460000207A
:10398000440000207B14AE47E17A843F0000F03F02
:10399000470000204500002010B501214FF0C05025
:1039A000FCF7D9FF0120FEF75CFAFEF7B5FA01201B
:1039B000FCF74AFF00BF6120FCF795FE0028FAD013
:1039C0004FF40070FCF743FF0120FCF746FFFEF7C1
:1039D000FEF9FEF7F3F9FEF7F1F949F64040FEF77C
:1039E000C7F9FEF7EBF90020FEF7A1FA0020FEF779
:1039F000A6FA10BD70B504460D461646FEF7DEF970
:103A00004FF461616143C5EB051201EB8201881936
:103A1000FEF7A1F9FEF7D2F970BD10B5FEF792F9E5
:103A200004461348844204D10020FEF794F9FEF7BF
:103A3000C5F94FF46160B4FBF0F00E4908604FF433
:103A40006160B4FBF0F100FB11403C21B0FBF1F0F0
:103A5000094908604FF46160B4FBF0F100FB1140CC
:103A60003C21B0FBF1F201FB12000449086010BDDB
:103A700080510100480000204C0000205000002030
:103A8000D2B201E000F8012B491EFBD270470022A0
:103A9000F6E710B513460A4604461946FFF7F0FF4D
:103AA000204610BD2DE9FE4F804681EA0300C00F7D
:103AB0000C46009021F0004123F00045B8EB0200D5
:103AC000A94105D24046214690461C460B46024677
:103AD00023F00040104347D0270DC7F30A00C3F37B
:103AE0000A510290401A019040286BDAC3F3130088
:103AF00040F4801B0098924620B10023D2EB030AC9
:103B000063EB0B0B01985946C0F14002504600F0A0
:103B10001EF906460D4650465946019A00F036F900
:103B200010EB08006141002487EA115284EAE77330
:103B30001A4340D0009A62B3019A012A4FEA075211
:103B400015DC001B61EB02014FF0004202EA075254
:103B5000CDE90042001C41F5801132462B4600F0B1
:103B600036F903B0BDE8F08F40462146F9E7001B67
:103B700061EB0201001C41F5801300185B41201825
:103B8000A2F5001747EB030140EAD570B6196D4165
:103B900011E06D084FEA360645EAC0754FEA075254
:103BA000001B61EB0201001C41F5801149084FEA3E
:103BB00030000019514132462B4603B0BDE8F04FAA
:103BC00000F0F6B80098012240000023D0EB02027A
:103BD00063EBE073009821464FEAE074B8EB000015
:103BE00061EB0401E9E783F000435BE781F000410A
:103BF00058E72DE9FE4F81EA030404F0004421F068
:103C0000004100944FF0000B23F0004350EA010400
:103C10005ED052EA03045BD0C3F30A54C1F30A55E1
:103C20002C44A4F2F3340194A0FB0254C1F3130119
:103C300041F48011C3F3130343F4801301FB0244E6
:103C400000FB034E840A970A44EA815447EA8357EB
:103C5000A4FB076802958D0A05FB07854FEA932CA4
:103C600004FB0C542705029D4FEA065847EA163715
:103C7000B5EB08056EEB070C870E920E47EA81172D
:103C800042EA8312A7FB0201B6EB0B0164EB0004CE
:103C90002B0D43EA0C335E1844EB1C50DA465146B8
:103CA000E7FB0201C5F313044FEA0B3343EA145355
:103CB0004FEA0432019C43EA0603A4F10C04029487
:103CC000009CCDE900B400F082F803B0BDE8F08FAD
:103CD00000200146F9E70EB540F233410291002180
:103CE000CDE900110A460B4600F071F803B000BDA3
:103CF000C1F30A5210B5C1F3130140F2FF3341F48E
:103D000080119A4201DA002010BD40F233439A42FA
:103D1000A2F2334203DC524200F028F810BD90407A
:103D200010BD30B50B46014600202022012409E0D9
:103D300021FA02F59D4205D303FA02F5491B04FA64
:103D400002F52844151EA2F10102F1DC30BD202A43
:103D500004DB203A00FA02F1002070479140C2F1E2
:103D6000200320FA03F3194390407047202A04DB14
:103D7000203A21FA02F00021704721FA02F3D040E4
:103D8000C2F120029140084319467047202A06DB01
:103D9000CB17203A41FA02F043EAE07306E041FA19
:103DA00002F3D040C2F12002914008431946704707
:103DB00010B5141E73F1000408DA401C41F1000133
:103DC00092185B411A4301D120F0010010BD2DE98A
:103DD000F04D92469B4611B1B1FA81F202E0B0FA81
:103DE00080F220329046FFF7B2FF04460F4640EAC9
:103DF0000A0041EA0B0153465A46084313D01146C4
:103E000053EA010019D0C8F140025046FFF7AEFF57
:103E100005460E46504659464246FFF798FF08436E
:103E200005D0012004E020463946BDE8F08D002091
:103E3000054346EAE0762C4337430A986305E40AD3
:103E4000A0EB08000022FD0A44EA47540A3002D5DC
:103E500000200146E9E7010510196941DDE908453F
:103E600000196941BDE8F04DA2E70000064C074D7E
:103E700006E0E06840F0010394E80700984710343A
:103E8000AC42F6D3FCF736F9F4530008145400089A
:103E90000FB4084B10B504A902AA039800F01CF84F
:103EA000044602A9002000F0B8F9204610BC5DF8D5
:103EB00014FB00001B42000802E008C8121F08C1E2
:103EC000002AFAD170477047002001E001C1121F9B
:103ED000002AFBD1704700002DE9FF4F8BB08846C8
:103EE0000546002606E025280BD0DDE90D12904797
:103EF0006D1C761C28780028F5D10FB03046BDE83F
:103F0000F08F0024A146A2460122AE4900E00443FE
:103F100015F8013F203B02FA03F00842F7D1287858
:103F20002A2810D06FF02F022878A0F1300109293B
:103F300015D809EB890102EB410144F0020400EBC2
:103F400001096D1CF0E758F8041B5FEA010903D56D
:103F500044F40054C9F1000944F002046D1C2878AF
:103F60002E2817D115F8010F44F004042A280ED08A
:103F70006FF02F022878A0F1300109290AD80AEB46
:103F80008A0102EB410100EB010A6D1CF2E758F8CF
:103F900004AB6D1C28786C280FD006DC4C2817D099
:103FA00068280DD06A2814D104E0742810D07A282B
:103FB0000FD10DE044F400140AE044F4801401E051
:103FC00044F440146978814202D104F580146D1CD8
:103FD0006D1C2878692865D006DC00288DD0632800
:103FE00027D0642806D15DE06E2808D073282AD037
:103FF000752877D0DDE90D129047761CE0E0C4F318
:104000000250022809D003280DD0D8F80010042847
:104010000DD00E6008F10408D2E0D8F80010F217B5
:10402000C1E90062F6E7D8F800100E80F2E70E70E2
:10403000F0E718F8041B8DF8001000208DF801003F
:10404000EB46012003E058F804BB4FF0FF30610756
:104050004FF0000701D40AE07F1C57450DDA874274
:10406000FADB1BF807100029F6D106E07F1C874217
:10407000FCDB1BF807100029F8D1DDE90D23A9EBC3
:1040800007008146214600F0B1F83044C61904E02B
:10409000DDE90D121BF8010B90477F1EF8D2214677
:1040A000484688E058F8040BC4F302514FF00A0B5D
:1040B000032900D100B2042900D140B2002802DA5D
:1040C00040422D2102E0210505D52B218DF8241039
:1040D000012104E006E0E10710D02021F6E708AF57
:1040E000089113E058F8040BC4F302514FF00A0B87
:1040F000032900D180B2042900D1C0B20021EEE72B
:104100005946FFF70EFE303107F8011D0028F7D1A0
:10411000ADEB070000F1200B600702D524F48034DA
:1041200001E04FF0010ADA4502DDAAEB0B0000E0E6
:104130000020824600EB0B0108980144A9EB010026
:104140000A90E00306D4DDE90D2321460A9800F029
:104150004DF806444FF0000908E009A911F80900DC
:10416000DDE90D12904709F10109761C089989458E
:10417000F3DBE0030CD5DDE90D2321460A9800F0BE
:1041800035F8064404E0DDE90D1230209047761C36
:10419000BAF10001AAF1010AF5DC05E0DDE90D1232
:1041A00017F8010B9047761CBBF10001ABF1010B36
:1041B000F4DC0A982146DDE90D2300F005F80644F9
:1041C0006D1C97E6092801002DE9F0410446002501
:1041D0001E461746880404D405E039462020B0471F
:1041E0006D1C641EF9D52846BDE8F0812DE9F0412B
:1041F000044600251E469046C80301D5302700E03E
:104200002027880404D505E041463846B0476D1C98
:10421000641EF9D52846BDE8F0810A68531C0B607E
:104220001070704700000000000000000000000057
:10423000000000000000000000000000000000007E
:10424000000000000000000000000000000000006E
:1042500000000000000080018001800180018001D9
:104260008001800180018001800180018001800146
:10427000000000008001800100000000000000003C
:104280000000000000000000CC00CC00CC00CC00FE
:10429000CC00CC0000000000000000000000000086
:1042A000000000000000000000000000000000000E
:1042B00000000000000000000000000000000000FE
:1042C000600C600C600C30063006FE1FFE1F3006CE
:1042D00038071803FE1FFE1F180318038C018C01FA
:1042E0008C01000000008000E003F80F9C0E8C1C85
:1042F0008C188C009800F801E007800E801C8C1848
:104300008C189C18B80CF00FE003800080000000AF
:10431000000000000000000000000E181B0C110C33
:1043200011061106110311039B018E01C038C06CE8
:1043300060446044304430441844186C0C38000029
:10434000000000000000E001F0033807180618061E
:104350003003F001F000F8009C310E33061E061CFD
:10436000061C063FFC73F021000000000000000066
:1043700000000000000000000C000C000C000C000D
:104380000C000C0000000000000000000000000015
:10439000000000000000000000000000000000001D
:1043A000000000000000000200038001C000C00007
:1043B000600060003000300030003000300030001D
:1043C0003000300060006000C000C00080010003C9
:1043D00000020000000020006000C0008001800199
:1043E00000030003000600060006000600060006A3
:1043F000000600060003000380018001C000600089
:10440000200000000000000000000000000000008C
:10441000C000C000D806F807E001300338070000EC
:10442000000000000000000000000000000000008C
:10443000000000000000000000000000000000007C
:1044400080018001800180018001FC3FFC3F8001F0
:104450008001800180018001000000000000000058
:10446000000000000000000000000000000000004C
:10447000000000000000000000000000000000003C
:1044800000000000000080018001000100018000A8
:10449000000000000000000000000000000000001C
:1044A000000000000000000000000000E007E0073E
:1044B00000000000000000000000000000000000FC
:1044C00000000000000000000000000000000000EC
:1044D00000000000000000000000000000000000DC
:1044E000000000000000C000C0000000000000004C
:1044F000000000000000000C000C00060006000692
:104500000003000300038003800180018001C000DC
:10451000C000C0006000600000000000000000005B
:10452000000000000000E003F007380E180C0C1823
:104530000C180C180C180C180C180C180C180C185B
:10454000180C380EF007E003000000000000000027
:1045500000000000000000018001C001F00198018E
:10456000880180018001800180018001800180013B
:104570008001800180018001000000000000000037
:10458000000000000000E003F80F180C0C180C18D5
:1045900000180018000C000600038001C000600035
:1045A00030001800FC1FFC1F00000000000000008D
:1045B000000000000000E001F807180E0C0C0C0CC5
:1045C000000C0006C003C007000C001800180C18EF
:1045D0000C18180CF807E0030000000000000000B1
:1045E000000000000000000C000E000F000F800D06
:1045F000C00C600C600C300C180C0C0CFC3FFC3F29
:10460000000C000C000C000C00000000000000007A
:10461000000000000000F80FF80F180018000C0050
:10462000EC03FC071C0E001C0018001800180C18E6
:104630001C0C180EF807E00300000000000000004A
:10464000000000000000C007F00F381C1818180008
:104650000C00CC03EC0F3C0E1C1C0C180C180C1896
:10466000181C380EF007E0030000000000000000F6
:10467000000000000000FC1FFC1F000C00060006EC
:10468000000380038001C001C000E0006000600002
:10469000700030003000300000000000000000001A
:1046A000000000000000E003F007380E180C180CA2
:1046B000180C3806F007F007180C0C180C180C181A
:1046C0000C18380CF80FE003000000000000000098
:1046D000000000000000E003F007380E1C0C0C186E
:1046E0000C180C181C1C381EF81BE0190018000CC4
:1046F000000C1C0EF807F001000000000000000094
:1047000000000000000000000000000000000000A9
:104710008001800100000000000000000000000097
:104720000000000080018001000000000000000087
:104730000000000000000000000000000000000079
:104740008001800100000000000000000000000067
:1047500000000000800180010001000180000000D5
:104760000000000000000000000000000000000049
:10477000000000000010001C800FE003F80018008B
:10478000F800E003800F001C001000000000000093
:104790000000000000000000000000000000000019
:1047A00000000000F81F000000000000F81F0000DB
:1047B00000000000000000000000000000000000F9
:1047C00000000000000000000000000000000000E9
:1047D0000000000008003800F001C007001F0018AA
:1047E000001FC007F00138000800000000000000B2
:1047F000000000000000E003F80F180C0C180C1863
:104800000018000C000600038001C000C000C000BA
:1048100000000000C000C000000000000000000018
:104820000000000000000000E00718180420C22962
:10483000224A114409440944094409221113E20C93
:10484000024004201818E0070000000000000000EB
:1048500000000000000080038003C006C006C00600
:10486000600C600C301830183018F83FF83F1C709E
:104870000C600C6006C006C00000000000000000D4
:10488000000000000000FC03FC0F0C0C0C180C18BE
:104890000C180C0CFC07FC0F0C180C300C300C30F6
:1048A0000C300C18FC1FFC0700000000000000008A
:1048B000000000000000C007F01F38381C300C70EA
:1048C00006600600060006000600060006000660F8
:1048D0000C701C30F01FE00700000000000000001A
:1048E000000000000000FE03FE0F060E061806186A
:1048F0000630063006300630063006300630061820
:104900000618060EFE0FFE03000000000000000067
:10491000000000000000FC3FFC3F0C000C000C00FD
:104920000C000C00FC1FFC1F0C000C000C000C0009
:104930000C000C00FC3FFC3F0000000000000000E9
:10494000000000000000F83FF83F180018001800B1
:1049500018001800F81FF81F180018001800180099
:1049600018001800180018000000000000000000E7
:10497000000000000000E00FF83F3C780E6006E009
:1049800007C00300030003FE03FE03C007C006C008
:104990000EC03CF0F83FE00F0000000000000000F7
:1049A0000000000000000C300C300C300C300C30DB
:1049B0000C300C30FC3FFC3F0C300C300C300C3019
:1049C0000C300C300C300C300000000000000000F7
:1049D0000000000000008001800180018001800152
:1049E00080018001800180018001800180018001BF
:1049F00080018001800180010000000000000000B3
:104A00000000000000000006000600060006000688
:104A1000000600060006000600060006000618064E
:104A200018063807F003E001000000000000000055
:104A300000000000000006300618060C06060603FB
:104A40008601C60066007600DE008E0106030606BB
:104A5000060C06180630066000000000000000008A
:104A600000000000000018001800180018001800CE
:104A70001800180018001800180018001800180076
:104A800018001800F81FF81F0000000000000000C8
:104A90000000000000000EE01EF01EF01EF036D8F0
:104AA00036D836D836D866CC66CC66CCC6C6C6C62E
:104AB000C6C6C6C686C386C300000000000000004C
:104AC0000000000000000C301C303C303C306C30EA
:104AD0006C30CC30CC308C310C330C330C360C3683
:104AE0000C3C0C3C0C380C300000000000000000B6
:104AF000000000000000E007F81F1C380E70066080
:104B000003C003C003C003C003C003C003C00660EA
:104B10000E701C38F81FE0070000000000000000C5
:104B2000000000000000FC0FFC1F0C380C300C30A3
:104B30000C300C300C18FC1FFC070C000C000C0097
:104B40000C000C000C000C00000000000000000035
:104B5000000000000000E007F81F1C380E7006601F
:104B600003E003C003C003C003C003C007E0066343
:104B70000E3F1C3CF83FE0F700C0000000000000C2
:104B8000000000000000FE0FFE1F06380630063051
:104B900006300638FE1FFE0706030606060C06183A
:104BA0000618063006300660000000000000000015
:104BB000000000000000E003F80F1C0C0C180C189B
:104BC0000C001C00F803E00F001E00380630063011
:104BD0000E301C1CF80FE007000000000000000071
:104BE000000000000000FE7FFE7F80018001800148
:104BF00080018001800180018001800180018001AD
:104C000080018001800180010000000000000000A0
:104C10000000000000000C300C300C300C300C3068
:104C20000C300C300C300C300C300C300C300C30A4
:104C30000C301818F81FE00700000000000000000A
:104C400000000000000003600630063006300C183B
:104C50000C180C18180C180C380E3006300670079B
:104C600060036003C001C0010000000000000000FC
:104C70000000000000000360C361C361C3616633CC
:104C8000663366336633663366336C1B6C1B6C1B92
:104C90002C1A3C1E380E380E0000000000000000E8
:104CA0000000000000000FE00C7018303018700C8D
:104CB000600EC00780038003C003E006700C301C48
:104CC00018180C300E6007E0000000000000000023
:104CD00000000000000003C006600C301C383818CB
:104CE000300C6006E007C003800180018001800174
:104CF00080018001800180010000000000000000B0
:104D0000000000000000FC7FFC7F00600030001805
:104D1000000C000600038001C00060003000180095
:104D20000C000600FE7FFE7F000000000000000077
:104D3000000000000000E003E0036000600060008D
:104D40006000600060006000600060006000600063
:104D50006000600060006000600060006000E003D0
:104D6000E0030000000030003000600060006000E0
:104D7000C000C000C000C0018001800180010003AC
:104D80000003000300060006000000000000000011
:104D9000000000000000E003E00300030003000344
:104DA00000030003000300030003000300030003EB
:104DB0000003000300030003000300030003E003FB
:104DC000E003000000000000C001C00160036003B8
:104DD000600330063006180C180C000000000000BC
:104DE00000000000000000000000000000000000C3
:104DF00000000000000000000000000000000000B3
:104E000000000000000000000000000000000000A2
:104E1000000000000000FFFFFFFF00000000000096
:104E20000000000000000C000C000C000C000C0046
:104E30000C00000000000000000000000000000066
:104E40000000000000000000000000000000000062
:104E50000000000000000000000000000000000052
:104E6000F003F8071C0C0C0C000FF00FF80C0C0CE6
:104E70000C0C1C0FF80FF0180000000000000000E0
:104E800000000000000018001800180018001800AA
:104E9000D803F80F380C18181818181818181818FC
:104EA0001818380CF80FD8030000000000000000AC
:104EB00000000000000000000000000000000000F2
:104EC000C003F007300E180C180018001800180066
:104ED000180C300EF007C0030000000000000000B6
:104EE000000000000000001800180018001800184A
:104EF000C01BF01F301C181818181818181818188C
:104F00001818301CF01FC01B00000000000000003B
:104F10000000000000000000000000000000000091
:104F2000C003F00F300C1818F81FF81F18001800F5
:104F30003818301CF00FC00700000000000000000F
:104F4000000000000000800FC00FC000C000C000C3
:104F5000F007F007C000C000C000C000C000C000E3
:104F6000C000C000C000C000000000000000000041
:104F70000000000000000000000000000000000031
:104F8000E00DF80F180E0C0C0C0C0C0C0C0C0C0C8F
:104F90000C0C180EF80FE00D000C0C0C1C06F8079A
:104FA000F001000000001800180018001800180098
:104FB000D807F80F381C18181818181818181818C7
:104FC0001818181818181818000000000000000021
:104FD000000000000000C000C00000000000000051
:104FE000C000C000C000C000C000C000C000C000C1
:104FF000C000C000C000C0000000000000000000B1
:10500000000000000000C000C00000000000000020
:10501000C000C000C000C000C000C000C000C00090
:10502000C000C000C000C000C000C000C000F80048
:105030007800000000000C000C000C000C000C00BC
:105040000C0C0C060C038C01CC006C00FC009C01C9
:105050008C030C030C060C0C000000000000000088
:10506000000000000000C000C000C000C000C00080
:10507000C000C000C000C000C000C000C000C00030
:10508000C000C000C000C000000000000000000020
:105090000000000000000000000000000000000010
:1050A0007C3CFF7EC7E383C183C183C183C183C1CD
:1050B00083C183C183C183C10000000000000000E0
:1050C00000000000000000000000000000000000E0
:1050D0009807F80F381C18181818181818181818E6
:1050E0001818181818181818000000000000000000
:1050F00000000000000000000000000000000000B0
:10510000C003F00F300C18181818181818181818B1
:105110001818300CF00FC003000000000000000061
:10512000000000000000000000000000000000007F
:10513000D803F80F380C1818181818181818181859
:105140001818380CF80FD8031800180018001800A9
:105150001800000000000000000000000000000037
:10516000C01BF01F301C1818181818181818181819
:105170001818301CF01FC01B001800180018001869
:105180000018000000000000000000000000000007
:10519000B007F00370003000300030003000300005
:1051A000300030003000300000000000000000003F
:1051B00000000000000000000000000000000000EF
:1051C000E003F003380E180C3800F003C007000CA1
:1051D000180C380EF007E00300000000000000008B
:1051E00000000000000000008000C000C000C000FF
:1051F000F007F007C000C000C000C000C000C00041
:10520000C000C000C00780070000000000000000D0
:10521000000000000000000000000000000000008E
:1052200018181818181818181818181818181818FE
:105230001818381CF01FE0190000000000000000E2
:10524000000000000000000000000000000000005E
:105250000C18180C180C180C3006300630066003B9
:1052600060036003C001C0010000000000000000F6
:10527000000000000000000000000000000000002E
:10528000C141C141C36163636363636336363636CC
:1052900036361C1C1C1C1C1C0000000000000000FA
:1052A00000000000000000000000000000000000FE
:1052B0001C38381C300C6006600360036003600318
:1052C0006006300C381C1C38000000000000000094
:1052D00000000000000000000000000000000000CE
:1052E0001830301830187018600C600CE00CC006D4
:1052F000C00680038003800380018001C001F000AC
:10530000700000000000000000000000000000002D
:10531000FC1FFC1F000C000600038001C0006000A1
:1053200030001800FC1FFC1F0000000000000000FF
:1053300000000000000000038001C000C000C000A9
:10534000C000C000C000600060003000600040008D
:10535000C000C000C000C000C000C0008001000349
:1053600000000000000080018001800180018001B8
:105370008001800180018001800180018001800125
:105380008001800180018001800180018001800115
:105390008001000000006000C000C00180018001A9
:1053A000800180018001000300030006000300016A
:1053B000800180018001800180018001C0006000C7
:1053C00000000000000000000000000000000000DD
:1053D00000000000F010F81F080F0000000000009F
:1053E00000000000000000000000000000000000BD
:1053F00000000000145400080000002054000000C9
:10540000B83E000868540008540000206C040000F6
:10541000C83E000800A24A0400000000000000008E
:10542000010203040607080900000000010203044A
:105430000102030406070809020406080000FFFF32
:10544000000000000000000000000000000000005C
:1054500000000000C05DC05D461E000000000000AE
:08546000000000000000000044
:04000005080000ED02
:00000001FF
