:020000040800F2
:10000000E0060020A9010008391700083B17000886
:100010003F170008431700084717000800000000BA
:100020000000000000000000000000004D17000864
:100030004B170008000000004F1700085117000878
:10004000C3010008C3010008C3010008C301000880
:10005000C3010008C3010008C3010008C301000870
:10006000C3010008C3010008C3010008C301000860
:10007000C3010008C3010008C3010008C301000850
:10008000C3010008C3010008C3010008C301000840
:10009000C3010008C3010008C3010008C301000830
:1000A000C3010008C3010008C3010008C301000820
:1000B000C3010008C3010008C3010008C301000810
:1000C000C3010008C3010008C3010008C301000800
:1000D000C3010008C3010008C3010008C3010008F0
:1000E000C3010008C3010008C301000800F002F8C2
:1000F00000F04AF80AA090E8000C82448344AAF178
:100100000107DA4501D100F03FF8AFF2090EBAE875
:100110000F0013F0010F18BFFB1A43F0010318473B
:10012000143D0000343D0000103A24BF78C878C167
:10013000FAD8520724BF30C830C144BF04680C60ED
:10014000704700000023002400250026103A28BF35
:1001500078C1FBD8520728BF30C148BF0B60704739
:10016000662902F03385732901F0D5870020704796
:100170001FB501F0D5FF04000020002102F010FDA2
:10018000E0601FBD10B510BD02F0C6F81146FFF7C4
:10019000EFFF01F015FA02F0E4F803B4FFF7F2FF05
:1001A00003BC02F027F900000948804709480047CE
:1001B000FEE7FEE7FEE7FEE7FEE7FEE7FEE7FEE717
:1001C000FEE7FEE704480549054A064B7047000074
:1001D000C7020008ED000008E0000020E006002053
:1001E000E0020020E00200200CB500200190009009
:1001F0006C48006840F480306A49086000BF694874
:10020000006800F4003000900198401C01900098B4
:1002100018B90198B0F5A06FF1D16248006800F4F8
:10022000003010B10120009001E000200090009803
:10023000012843D15C48006840F010005A4908602A
:100240000846006820F0030008600846006840F097
:1002500002000860534840685249486008464068B8
:1002600048600846406840F480604860084640683E
:1002700020F47C1048600846406840F4E81048606C
:100280000846006840F08070086000BF454800687C
:1002900000F000700028F9D04248406820F00300C8
:1002A000404948600846406840F00200486000BF8E
:1002B0003C48406800F00C000828F9D10CBD10B58E
:1002C000FFF792FF10BD10B53648006840F00100FE
:1002D000344908600846406834490840314948605C
:1002E00008460068324908402E4908600846006800
:1002F00020F4802008600846406820F4FE00486032
:100300004FF41F008860FFF7DAFF4FF000602949C3
:10031000086010BD10B5002100200022214B5B6851
:1003200003F00C0121B1042906D0082928D107E0E7
:10033000214B224C236027E01F4B204C236023E0FD
:10034000184B5B6803F47010164B5B6803F4803243
:10035000022303EB904022B9194B4343174C23600F
:100360000DE0104B5B6803F4003323B1144B43439F
:10037000124C236003E0104B4343104C236003E016
:100380000D4B0E4C236000BF00BF064B5B68C3F3F0
:1003900003130C4CE15C094B1B68CB40074C2360FA
:1003A00010BD000000100240002002400000FFF8D5
:1003B000FFFFF6FE08ED00E000127A0000000020CA
:1003C00000093D000400002031490143314A116019
:1003D000704770B5002100230F22C47804B32D4C60
:1003E000246804F4E064C4F5E064210AC1F1040364
:1003F000CA40447804FA03F1847814402143090187
:10040000254C0678A155047804F01F050124AC4062
:1004100005786D11AD0005F1E025C5F8004109E052
:10042000047804F01F050124AC401C4D06787611B9
:1004300045F8264070BD1A4A0A400243154B1B1F5F
:100440001A60704739B1134A121D12680243114BEA
:100450001B1D1A6006E00F4A121D126882430D4BE5
:100460001B1D1A607047042808D14FF0E02109696C
:1004700041F004014FF0E022116107E04FF0E0216C
:10048000096921F004014FF0E0221161704700007A
:100490000000FA050CED00E000E400E080E100E07F
:1004A00080FFFF1F10B50446CC48844208D10121CB
:1004B000042000F02DFB0021042000F029FB46E081
:1004C000C748844208D10121082000F021FB002107
:1004D000082000F01DFB3AE0C248844208D1012107
:1004E000102000F015FB0021102000F011FB2EE081
:1004F000BD48844208D10121202000F009FB0021E1
:10050000202000F005FB22E0B848844208D10121F8
:10051000402000F0FDFA0021402000F0F9FA16E03A
:10052000B348844208D10121802000F0F1FA002173
:10053000802000F0EDFA0AE0AE48844207D10121A4
:10054000801500F0E5FA0021A01500F0E1FA10BDD9
:1005500010B50121084600F0DBFA0021012000F06F
:10056000D7FA10BD2DE9F0410246002500260020F3
:1005700000230024002791F803C00CF00F0591F828
:1005800003C00CF0100CBCF1000F03D091F802C0B6
:100590004CEA050591F800C0BCF1000F31D0146899
:1005A00000202BE04FF0010C0CFA00F3B1F800C072
:1005B0000CEA03069E4220D183004FF00F0C0CFA88
:1005C00003F7BC4305FA03FC4CEA040491F803C0AA
:1005D000BCF1280F06D14FF0010C0CFA00FCC2F858
:1005E00014C00AE091F803C0BCF1480F05D14FF0E8
:1005F000010C0CFA00FCC2F810C0401C0828D1D332
:100600001460B1F800C0BCF1FF0F34DD5468002065
:100610002EE000F1080C4FF0010808FA0CF3B1F8D5
:1006200000C00CEA03069E4221D183004FF00F0C5C
:100630000CFA03F7BC4305FA03FC4CEA040491F8F6
:1006400003C0BCF1280F05D100F1080C08FA0CF822
:10065000C2F8148091F803C0BCF1480F07D100F133
:10066000080C4FF0010808FA0CF8C2F81080401C82
:100670000828CED35460BDE8F0814FF6FF710180A9
:10068000022181700421C1707047024600209368E6
:100690000B400BB1012000E0002070470146886844
:1006A00080B2704702460020D3680B400BB1012096
:1006B00000E0002070470146C86880B270470161C1
:1006C0007047416170470AB1016100E041617047C4
:1006D000C16070474FF480320A4382618161826158
:1006E00082698269704702460020434B18684FF6C2
:1006F0008073184040EA021008433F4B186070476F
:100700003E49C8617047F0B50A4600230024002125
:10071000002500F00046B6F1004F02D1364EF169D7
:1007200001E0354E7168C0F3034583B200F4401612
:10073000B6F5401F08D121F070612F4E766826F083
:1007400070662D4F7E6012E000F48016B6F5801FB3
:1007500006D1032606FA05F4A14341F0706106E0D4
:10076000460D360103FA06F6B14341F0706122B13D
:10077000460D360103FA06F6314300F00046B6F1A5
:10078000004F02D11C4EF16101E01B4E7160F0BDC3
:1007900030B500228B071C0F0F2303FA04F2164B0F
:1007A00008338C1053F824309343134C08348D10C5
:1007B00044F8253023468C1053F824308C07240F3E
:1007C00000FA04F423430C4C08348D1044F825300F
:1007D00030BD0A49DC310860704700000008014064
:1007E000000C0140001001400014014000180140BD
:1007F000001C014000200140000001400000204298
:10080000DF48006840F00100DD49086008464068A4
:10081000DC490840DA49486008460068DA4908407F
:10082000D74908600846006820F480200860084620
:10083000406820F4FE0048604FF41F008860704755
:10084000CF49096821F48031CD4A11601146096809
:1008500021F480211160B0F5803F03D0B0F5802FE6
:100860000ED106E0C649096841F48031C44A1160DE
:1008700007E0C349096841F4A021C14A116000E0C2
:1008800000BF00BF704710B50146002200230020C2
:100890004A11012A02D1BA4C236806E0022A02D189
:1008A000B74C236A01E0B64C636A01F01F020124D1
:1008B00094401C400CB1012000E0002010BD38B570
:1008C000002000900024002500BF3120FFF7DBFF4F
:1008D00005460098401C00900098B0F5A06F01D02C
:1008E000002DF2D03120FFF7CEFF08B1012400E047
:1008F0000024204638BD01460020A14A106820F09F
:10090000F80040EAC10010607047A04908607047D5
:10091000024600209A4B586820F47C1042EA0103FA
:100920001843974B586070479849086670470146CE
:100930000020934A506820F003000843506070473D
:100940008F48406800F00C007047014600208C4A38
:10095000506820F0F00008435060704701460020C6
:10096000874A506820F4E0600843506070470146B1
:100970000020834A506820F4605040EAC100506073
:10098000704729B17E4A527A02437D4B5A7204E085
:100990007B4A527A82437A4B5A7270477B49D831EC
:1009A0000860704701460020754A506820F44040B6
:1009B0000843506070470021714A20321170704A1C
:1009C00082F82010012802D004280AD104E0012175
:1009D0006B4A2032117005E00521694A20321170FE
:1009E00000E000BF00BF7047694908607047644974
:1009F000096A0143624A11627047654944390860D7
:100A0000704730B500210022002400235C4D6D6842
:100A100005F00C0121B1042905D0082923D105E0F6
:100A20005C4D056022E05B4D05601FE0544D6D6834
:100A300005F47012524D6D6805F48034022505EB03
:100A400092421CB9544D554305600BE04C4D6D6806
:100A500005F400351DB1504D5543056002E04D4D84
:100A60005543056002E04B4D056000BF00BF444D9B
:100A70006D6805F0F0010909484D6B5C0568DD40C3
:100A800045603F4D6D6805F4E061090A434D6B5CBC
:100A90004568DD4085603A4D6D6805F46051C90ACE
:100AA0003E4D6B5C4568DD40C560354D6D6805F4B5
:100AB0004041890B3A4D6B5CC568B5FBF3F50561A8
:100AC00030BD29B12E4A526902432D4B5A6104E0D0
:100AD0002B4A526982432A4B5A61704729B1284AEE
:100AE00092690243264B9A6104E0254A9269824347
:100AF000234B9A61704729B1214AD2690243204BA6
:100B0000DA6104E01E4AD26982431D4BDA61704704
:100B100029B11B4AD2680243194BDA6004E0184A33
:100B2000D2688243164BDA60704729B1144A1269C1
:100B30000243134B1A6104E0114A12698243104BBD
:100B40001A61704712494039086070470F49C864FC
:100B500070470B49C87170470948406A40F080707F
:100B600007494862704701460020054A92680A40DA
:100B70000AB1012000E000207047014988727047E7
:100B8000001002400000FFF8FFFFF6FE00004242A6
:100B90008004424200127A0000093D001400002047
:100BA00024000020002109E0002201E0531C9AB239
:100BB00040F6B8339A42F9DB4B1C99B28142F3DB21
:100BC000704710B5FD4BDB689AB24FF40073FC4CD4
:100BD00023605B1023602023241F2360F74BD86021
:100BE0002023241D2360241F2360DB002360F34B9C
:100BF000D9602023241D2360241F2360DB00236091
:100C0000EE4BDA6010BD00B501210020FFF7D9FFDF
:100C10004FF47A70FFF7C6FF00210120FFF7D1FFE4
:100C200041F290711020FFF7CCFF4FF41C5160206F
:100C3000FFF7C7FF01216120FFF7C3FF0221462014
:100C4000FFF7BFFF48F210011320FFF7BAFF48F289
:100C5000FE011220FFF7B5FF4FF4A0610220FFF75D
:100C6000B0FF41F230010320FFF7ABFF40F2033148
:100C70003020FFF7A6FF40F203313120FFF7A1FF3C
:100C800040F203313220FFF79CFF4FF440713320D4
:100C9000FFF797FF03213420FFF793FF40F2033162
:100CA0003520FFF78EFF14213620FFF78AFF40F230
:100CB00003313720FFF785FF40F203313820FFF77B
:100CC00080FF40F203313920FFF77BFF4FF4407182
:100CD0003A20FFF776FF03213B20FFF772FF40F237
:100CE00003313C20FFF76DFF4FF4A0513D20FFF78B
:100CF00068FF4FF400719220FFF763FF40F2033169
:100D00009320FFF75EFF40F60D019020FFF759FF9B
:100D100041F218010320FFF754FF40F2731107203E
:100D2000FFF74FFF00BD00B543F20801E320FFF7D6
:100D300048FF1221E720FFF744FF41F23121EF2065
:100D4000FFF73FFF00210120FFF73BFF4FF4E06179
:100D50000220FFF736FF41F230010320FFF731FF99
:100D600000210420FFF72DFF40F207210820FFF7A4
:100D700028FF00210920FFF724FF00210A20FFF7A8
:100D800020FF00210C20FFF71CFF00210D20FFF7A2
:100D900018FF00210F20FFF714FF00211020FFF79C
:100DA00010FF07211120FFF70CFF00211220FFF791
:100DB00008FF00211320FFF704FF4FF47A70FFF7BC
:100DC000F1FE41F290611020FFF7FBFE40F2272177
:100DD0001120FFF7F6FE3220FFF7E4FE1D2112205E
:100DE000FFF7EFFE3220FFF7DDFE4FF40061132026
:100DF000FFF7E7FE14212920FFF7E3FE0B212B204C
:100E0000FFF7DFFE3220FFF7CDFE00212020FFF7A5
:100E1000D8FE00212120FFF7D4FE07213020FFF764
:100E2000D0FE40F207713120FFF7CBFE06213220C1
:100E3000FFF7C7FE40F204713520FFF7C2FE41F60E
:100E400004713620FFF7BDFE04213720FFF7B9FEFD
:100E500000213820FFF7B5FE40F206713920FFF778
:100E6000B0FE40F201713C20FFF7ABFE0F213D20A8
:100E7000FFF7A7FE00215020FFF7A3FEEF2151202E
:100E8000FFF79FFE00215220FFF79BFE40F23F112B
:100E90005320FFF796FE4FF41C516020FFF791FEA0
:100EA00001216120FFF78DFE00216A20FFF789FEF6
:100EB00000218020FFF785FE00218120FFF781FEC1
:100EC00000218220FFF77DFE00218320FFF779FEBD
:100ED00000218420FFF775FE00218520FFF771FEB9
:100EE00010219020FFF76DFE00219220FFF769FE90
:100EF00003219320FFF765FE4FF488719520FFF7DB
:100F000060FE00219720FFF75CFE00219820FFF78C
:100F100058FE41F218010320FFF753FE40F273110F
:100F20000720FFF74EFE00BD08B54FF6FF70ADF885
:100F3000000003208DF8020010208DF803006946A0
:100F40001E48FFF70FFB08BD08B54FF6FF70ADF860
:100F5000000003208DF8020048208DF80300694648
:100F60001648FFF7FFFA08BD70B504464FF400704D
:100F700013490860401008602020091F08600F48CE
:100F8000C4602020091D0860091F0860C0000860B7
:100F9000FFF7DAFF4FF4806009490860074880686E
:100FA00085B20815091F0860FFF7BEFF4FF40070F7
:100FB0000349091F0860284670BD00000010014069
:100FC000140C014008B501211820FFF787FD01210D
:100FD0002020FFF783FD4FF4E460ADF8000001200E
:100FE0008DF8020010208DF803006946F648FFF7DF
:100FF000B9FAFFF799FFF4481030006840F4C46074
:10100000F1491031086008BD10B5FFF7DBFF002083
:10101000FFF7AAFFED4908800846008848F2302112
:10102000884202D1FFF7EFFD01E0FFF77CFE0020D0
:10103000FFF79AFFE549088010BD01B5BDF8000033
:10104000E349088008BD01B5BDF80000E14908800A
:1010500008BD30B504460D4621462020FFF7B1FDFE
:1010600029462120FFF7ADFD30BDDB4AD26891B2A1
:101070004FF40072D44B14331A6052101B1F1A60C5
:1010800020221A60D44AD06020221B1D1A601B1F28
:101090001A60D2001A6052001A60CF4AD1607047BD
:1010A000CD49C96888B24FF40071C74A1432116043
:1010B000491011602021121F11602221C64AD160FF
:1010C0002021C14A14321160121F1160C900116041
:1010D00049001160C049C86070472DE9F0430646D9
:1010E0008946174600240025A046B046494640469A
:1010F000FFF7AFFF00BF1EE0FFF7D2FF00250FE0B4
:1011000037F814000121A940084020B9B1480088EF
:10111000FFF7ABFF03E0AE480088FFF7A6FF6D1CAA
:10112000102DEDD308F1010000F0FF0849464046BC
:10113000FFF78FFF641C182CDED3BDE8F08370B579
:1011400005460E461446A4F12000C4B204EB440048
:10115000A24901EB001231462846FFF7BEFF70BDE1
:10116000F0B507460C46002540F23F1609E022780C
:1011700031463846FFF7E3FFA6F1100086B2641C43
:101180006D1C207808B1142DF1D3F0BD10B50446C4
:1011900093A12046FFF7E4FF10BD30B505460024BB
:1011A00000210846FFF755FFFFF77AFF00BF03E075
:1011B0002846FFF75AFF641CB4F5963FF8D330BDBC
:1011C000F0B504460D4616461F46B44206DBA01B8A
:1011D000401C81B25020FFF7F4FC03E000215020B6
:1011E000FFF7EFFC21465120FFF7EBFCBD4206DB89
:1011F000E81B401C81B25220FFF7E3FC03E0002112
:101200005220FFF7DEFC29465320FFF7DAFC29467F
:101210002046FFF71EFFF0BD00B54FF4A073F0228B
:10122000591EEF20FFF7CCFF41F218010320FFF712
:10123000C8FC00BD2DE9F0410646884615461F460C
:10124000002441463046FFF704FF5FB9FFF728FF4F
:1012500000BF04E05E480088FFF707FF641CAC4253
:10126000F8D310E000240CE0FFF71AFF584800887C
:10127000FFF7FBFE701CC6B241463046FFF7E9FEA1
:10128000641CAC42F0D3BDE8F081F0B505460E46D3
:1012900017461C460023224631462846FFF7CAFF60
:1012A000E919C8B2002322463146FFF7C3FF0123E4
:1012B0003A4631462846FFF7BDFF301B401C81B23D
:1012C00001233A462846FFF7B5FFF0BD2DE9F0436C
:1012D00006460F4690460320A0EB480900244546E9
:1012E0006EE07A1991B23219D0B2FFF7B2FEFFF771
:1012F000D7FE37480088FFF7B8FE7A1B91B2321943
:10130000D0B2FFF7A6FEFFF7CBFE31480088FFF70B
:10131000ACFE7A1991B2321BD0B2FFF79AFEFFF7FA
:10132000BFFE2B480088FFF7A0FE7A1B91B2321B4C
:10133000D0B2FFF78EFEFFF7B3FE25480088FFF717
:1013400094FE3A1991B27219D0B2FFF782FEFFF7FC
:10135000A7FE1F480088FFF788FE3A1B91B272195A
:10136000D0B2FFF776FEFFF79BFE19480088FFF723
:101370007CFE3A1991B2721BD0B2FFF76AFEFFF7FA
:101380008FFE13480088FFF770FE3A1B91B2721B64
:10139000D0B2FFF75EFEFFF783FE0D480088FFF72F
:1013A00064FEB9F1000F04DA062000EB84008144EA
:1013B00005E0601B0A2101EB800081446D1E641C66
:1013C000AC428ED9BDE8F083000C01402C00002017
:1013D000280000202A00002000100140D02B000827
:1013E00020202020202020202020202020202020FD
:1013F000202020200000000070B5064600240025B3
:1014000040F23F110020FFF724FEFFF749FE00BF26
:1014100014E000250FE056F824000121A9400840FF
:1014200020B95F480088FFF720FE03E05D48008890
:10143000FFF71BFE6D1C202DEDD3641CB4F5166F59
:10144000E7D370BD70B50446002500266688A088E5
:1014500046EA00466589A08945EA0045701B4608B2
:101460002C4441F208010320FFF7ABFBFFF718FE05
:10147000002504E02088FFF7F8FDA41C6D1CB54290
:10148000F8D341F218010320FFF79BFB70BD10B5A4
:101490004FF4007044490860401008602020091F84
:1014A000086022204149C86020203F490860091F88
:1014B0000860C0000860FFF747FD4FF480603A49BC
:1014C00008603A48806884B20815091F0860FFF771
:1014D0002BFD4FF400703449091F0860204610BDF1
:1014E00000B500211020FFF76CFB00211120FFF751
:1014F00068FB00211220FFF764FB00211320FFF797
:1015000060FB1420FFF74EFB41F2B0711020FFF793
:1015100058FB40F237111120FFF753FB0520FFF76E
:1015200041FB40F239111220FFF74BFB0520FFF77A
:1015300039FB4FF4E8511320FFF743FB1321292017
:10154000FFF73FFB0520FFF72DFB40F2731107204B
:10155000FFF737FB00BD00B540F273110720FFF71E
:1015600030FB00BD00B500210720FFF72AFB00BDBE
:1015700030B5054600210846FFF76BFDFFF790FDEB
:10158000002409E015F814206100491C695C42EA56
:101590000120FFF76AFD641CB4F5963FF2DB30BD15
:1015A0002A00002028000020140C014000100140F7
:1015B0004E49086000BF4D4909680029FBD17047BA
:1015C0004FF4E060FEF700FF494800684FF47A727C
:1015D000B0FBF2F1481EB0F1807F00D31BE0481E43
:1015E0004FF0E022506150170F22002807DA13074E
:1015F0001E0E404B00F00F052D1F5E5503E0130734
:101600001D0E3D4B1D5400BF00204FF0E0229061A5
:101610000720106100BFC820FFF7CAFFFFF7F4FCE6
:1016200000F09EF81F20FFF7B8FD1F20FFF70BFD0D
:101630004FF6FF70FFF701FD00F030FA2FA133489D
:1016400000F0E7FA002409E03048015D204600F090
:1016500038FA0520FFF7ACFF601CC4B22B4800F03D
:10166000FCFAA042F0D8002406E0204600F040FA40
:1016700027490855601CC4B2244800F0EEFAA04285
:10168000F3D8234A23A1264800F052FA24496020C7
:10169000FFF766FD234824491C4A03C2002409E0E1
:1016A0001A48015D204600F00CFA0520FFF780FF84
:1016B000601CC4B2082CF3D3002406E0204600F0DE
:1016C00017FA13490855601CC4B2082CF6D3104809
:1016D000D0E900532A4615A1114800F029FA104913
:1016E0007820FFF73DFD00BFFEE70000300000203E
:1016F0000000002018ED00E000E400E048656C6C9C
:101700006F20576F726C642121210000500000206F
:1017100068000020257320202020202000000000E9
:101720003800002044174154FB2109402566202041
:101730002020202020200000704700BFFEE700BFCF
:10174000FEE700BFFEE700BFFEE770477047704747
:1017500002480068401E01490860704730000020C0
:1017600008B501213020FFF7B9F94FF47F40ADF8FB
:10177000000010208DF8030003208DF80200694658
:101780002948FEF7EFFE0420ADF8000010208DF888
:10179000030003208DF8020069462448FEF7E2FEAC
:1017A00004212248FEF78BFF4FF47F411E48FEF7CD
:1017B00086FF04211D48FEF784FF08BD70B504466E
:1017C0000D46012D0FD104211848FEF778FF4FF682
:1017D000FF7000EA04211448FEF773FF0421134848
:1017E000FEF76FFF0EE004211048FEF768FF4FF68A
:1017F000FF7000EA04210C48FEF761FF04210B484A
:10180000FEF75FFF70BD10B5044604210748FEF7E0
:1018100056FF0548C06880EA04200349C8600421D7
:101820000248FEF74EFF10BD0010014000140140B9
:1018300008B58020ADF8000002208DF802002820B5
:101840008DF803006946B948FEF78CFE08BD08B55F
:101850008020ADF8000002208DF8020010208DF8E5
:1018600003006946B148FEF77DFE08BD10B5044689
:1018700024B18021AD48FEF722FF03E08021AB4870
:10188000FEF71FFF10BD10B5044624B14021A74844
:10189000FEF715FF03E04021A448FEF712FF10BD3C
:1018A00010B58021A148FEF7F0FE10BD002100E038
:1018B000491C8142FCD3704710B50120FFF7D6FFC9
:1018C0004FF4FA70FFF7F2FF0120FFF7DCFF4FF44F
:1018D000FA70FFF7EBFF0020FFF7C8FF4FF4FA7034
:1018E000FFF7E4FF0020FFF7CEFF4FF4FA70FFF799
:1018F000DDFF10BD10B50020FFF7C5FF4FF4FA70F3
:10190000FFF7D4FF0020FFF7B1FF4FF4FA70FFF7A5
:10191000CDFF0120FFF7B7FF4FF4FA70FFF7C6FFC6
:101920000120FFF7A3FF4FF4FA70FFF7BFFF10BDD0
:1019300010B50524FFF77CFF4FF4FA70FFF7B6FFF0
:101940000120FFF7A0FF4FF4FA70FFF7AFFF0CE0A4
:10195000601E84B24FF4FA70FFF7A8FF2CB9FFF7AE
:1019600076FFFFF7C7FF002010BDFFF799FF0028A3
:10197000EED1FFF76CFF0020FFF785FF4FF4FA7000
:10198000FFF794FF0120EFE710B50020FFF76EFF8F
:101990004FF4FA70FFF78AFF4FF4FA70FFF786FFF3
:1019A0000120FFF770FF4FF4FA70FFF77FFF002070
:1019B000FFF769FF4FF4FA70FFF778FF10BD10B51D
:1019C0000120FFF753FF4FF4FA70FFF76FFF01207C
:1019D000FFF759FF4FF4FA70FFF768FF0020FFF799
:1019E00052FF4FF4FA70FFF761FF10BD70B5044667
:1019F00008251BE00020FFF746FF4FF4FA70FFF7C1
:101A000055FF04F08000FFF731FF4FF4FA70FFF745
:101A10004DFF6006040E4FF4FA70FFF747FF0120F8
:101A2000FFF731FF4FF4FA70FFF740FF281EA5F1D2
:101A30000101CDB2DED1FFF726FF4FF4FA70FFF7B8
:101A400035FF70BD70B508250024FFF7F1FE16E0E4
:101A50006006040E0020FFF716FF4FF4FA70FFF740
:101A600025FF4FF4FA70FFF721FF0120FFF70BFF6E
:101A70004FF4FA70FFF71AFFFFF712FF0443281E16
:101A8000A5F10101CDB2E3D1FFF7FDFE4FF4FA70ED
:101A9000FFF70CFFFFF7DBFE204670BD08B5012104
:101AA0000820FFF71BF8C020ADF8000002208DF8D9
:101AB000020010208DF8030069461C48FEF752FD15
:101AC00008BD70B505460C46FFF7F6FEA020FFF7EF
:101AD0008DFFFFF72DFF2846FFF788FFFFF728FF50
:101AE0002046FFF783FFFFF723FFFFF703FF70BDDB
:101AF00070B50446FFF7E0FEA020FFF777FFFFF781
:101B000017FF2046FFF772FFFFF712FFFFF7D4FE23
:101B1000A120FFF76BFFFFF70BFFFFF793FF0546D1
:101B2000FFF74DFFFFF7E6FE284670BD000C0140B1
:101B30000FB41CB5074B06AA7B4469460090059874
:101B400000F0BFFA0020694600F0CEFA1CBC5DF838
:101B500014FB0000AD0500002DE9F0410E460446DF
:101B6000002020622046E168884730B3252805D050
:101B7000D4E901219047206A401CF2E7E168204641
:101B800000278847050018D0A5F14100192802D880
:101B900020354FF400673246294620462760FEF77D
:101BA000DFFA40B1012804D0F61D26F007060836FA
:101BB000D8E7361DD6E72846DAE7206ABDE8F08187
:101BC00070B50C460546012A05D02878800600D558
:101BD000EA69002302E0012305E05B1C934202D284
:101BE000E05C0028F9D1A869E618C01AA861286A43
:101BF000184428622846AFF3008004E0D5E90121AB
:101C000014F8010B9047B442F8D32846AFF3008094
:101C100070BD40EA0103024630B59B0710D14FF07A
:101C2000013400E008C208C91D1B9D4315EAC41F0A
:101C3000F8D013F0FF0102F8011B0DD01B0AF8E7E2
:101C400011F8013B002B02F8013B05D011F8013BD4
:101C5000002B02F8013BF3D130BD10B5431C02E06C
:101C600010F8011B71B18107FAD14FF0013202C89F
:101C70008C1A8C4314EAC211F9D0C01A0A0603D098
:101C8000C01E10BDC01A10BD0A0401D0801E10BDB8
:101C90000902FCD0401E10BD704770477047704766
:101CA0002DE9FF4F0C461E464FF0FF378BB0D2E9AF
:101CB0000001DDF860800A908A46C1F30A5505B933
:101CC0003D46002108464FF00000BAF1000F00F435
:101CD000400005DA00EB80004FF4400101EA5000BB
:101CE0004FEA9059B9F1010F00DDB9460A9850EA60
:101CF0004A000ED044F61050A5F2FF3545432F148C
:101D0000B8F1000F1ED07542291E1EDDC9F1000278
:101D10001CE0B8F1010F4FF0000001D0302103E0CA
:101D2000F24305E02154401CB042FBDB3046002268
:101D3000002121540B99C1F80880C1E900200FB09F
:101D4000BDE8F08FBD1B6D1CDEE74A4600DA694234
:101D500006A800F06FFA06AB93E8070003AB83E830
:101D6000070050460A9900F04CFB8DE80700A0F5EB
:101D700000501F3800900398002D09DD42F21F012A
:101D80004A46084403A90390684600F0ABFD08E00A
:101D9000A0F500504A461F3803A90390684600F09A
:101DA000B5FD8DE807000004000C03D04FF0FF30B4
:101DB000410800E01046B8F1000F03D00022009265
:101DC00015461EE0751E05D400F0AEF9303262559E
:101DD0006D1EF9D5B3460122084302D000227F1CB4
:101DE00004E02078302801D100227F1E002A0997C4
:101DF00086D01DE0112D07DA00F096F930326255D9
:101E00006D1C50EA0102F5D1084302D00098C8B118
:101E10000EE00021681E05E0235C625C63542254DE
:101E2000401E491C8142F7DBAB46A81B401E0990AF
:101E3000002004F80B000B98099AC0F80880C0E94C
:101E4000002B7CE711264FF0000859E72DE9F04FF1
:101E500088460446D21D22F0070191B0D1E9000165
:101E6000CDE90A0100F088FE02460B98C00F01D0B0
:101E70002D2007E02068810701D52B2002E02021DA
:101E800001EAC000032A099001D0072A05DB0346B6
:101E90004146204600F08EF90BE12078800601D5FE
:101EA000E06900E00620B8F1650F814606D0B8F180
:101EB000660F18D0B8F1670F70D131E00020B9F18A
:101EC000110F009001DB112301E009F101030AAABF
:101ED00001A90CA8FFF7E4FEDDE90C70002609F16A
:101EE0000105834647E001204B4600904FF0004734
:101EF0000AAA01A90CA8FFF7D3FEDDE90DB00C99E1
:101F00005D46002610B909F101000D18B9EB050076
:101F100003D4C0F1FF3609F10105A5EB09002BE060
:101F2000B9F1010F01DA4FF001090020B9F1110FE9
:101F30000090484601DD112300E003460AAA01A9EA
:101F40000CA8FFF7ADFEDDE90C704D460026834678
:101F5000207800070AD4AB4500DA5D4601A8012DC0
:101F600004DD411911F8011C302907D04F4502DA70
:101F700017F1040F04DA012082460FE06D1EEEE730
:101F8000002F02DCED1B3E4403E0781CA84200DD7C
:101F90007D1CB81B00F1010A4FF0004720780007B4
:101FA00003D4AA4501DB4FF0FF3A0021B7F1004FFF
:101FB0000DF143088DF8431024D002202B23002F6D
:101FC00001DA7F422D230A21021EA0F1010000DC6C
:101FD0005FB197FBF1FC97FBF1F201FB1C7C17460C
:101FE0000CF1300C08F801CDEEE7A8F10100037008
:101FF0002188090501D5452100E06521A0F10108EE
:1020000000F8011C09980FA9A1EB0807FF1D00B1FA
:102010000120411901EBEA70A1693844081A401EF9
:10202000A0612078C00602D42046AFF30080099852
:1020300028B1D4E901219047206A401C2062207811
:10204000C00622D52046AFF300801EE0002E04DB40
:10205000B34502DD01A8805D00E03020D4E9012114
:102060009047206A401C2062761CAAF101005FEABA
:10207000000A0AD100F054F8C0680168405CD4E955
:1020800001219047206A401C2062281EA5F101050D
:10209000DCDC07E0D4E9012118F8010B9047206A45
:1020A000401C2062381EA7F10107F3DC2046AFF385
:1020B0000080032011B043E601694A1C02610878E0
:1020C000704700B58FB0CDE9013100210591054978
:1020D0007944CDE9031011466846FFF73DFD0FB086
:1020E00000BD0000E5FFFFFF0A6802F8010B0A606F
:1020F000704710B5436913B1AFF3008001E0FFF7FB
:102100005FFD012010BD127800F124010A70002249
:102110004A700122EDE711684FF0FF32E9E7000055
:1021200000487047A000002030B5B0F10A024FEA25
:10213000900E71F100034EEA817EB0EB0E0061EB70
:1021400091014FEA101E4EEA017E10EB0E0041EBAA
:1021500011114FEA102E4EEA016E10EB0E0041EB0A
:1021600011214FEA104E4EEA014E10EB0E0041EBEA
:102170001141401841F100014FEAD00040EA41709E
:102180004FEAD10110EB80054FEA810444EA9074D4
:1021900044EB01046D1944EB0404521BA3414FF0BE
:1021A000000348BF0A3200D530BD401C41F1000198
:1021B00030BD00002DE9F0411F46044603260168AA
:1021C000072A01F4006004DB08B116A505E016A596
:1021D00003E008B115A500E015A521F0100020606E
:1021E000A069C01EA0610FB1401EA0612046AFF3E0
:1021F00000804FB1D4E9012138469047206A401C45
:102200002062C01C206206E0206AFAE7D4E90121BE
:1022100015F8010B9047761EF8D22046AFF30080E8
:10222000BDE8F0814E414E006E616E00494E4600A1
:10223000696E66002DE9F047814616468AB033483C
:1022400078440DC88DE80D0030487844801C03ACFC
:102250000DC884E80D0041F69B300844372190FBFF
:10226000F1F290FBF1F5A5F1800501FB12041B3C96
:1022700002D56442012000E00020DFF890A08046F3
:102280000027FA44AAF1BE0A0DE0E00709D0324661
:10229000684607EB47010AEB810100F037FB8DE848
:1022A000070064107F1C002CEFD1184F7F44AC3F17
:1022B00018E0E80714D007EB04100DF1180A90E8B5
:1022C0000E008AE80E00C068F04201D1981908900B
:1022D000324606A903A800F019FB03AB83E8070008
:1022E0006D10641C002DE4D132466946B8F1000F30
:1022F00003A802D000F0F6FA01E000F007FBC9E9FC
:102300000001C9F808200AB0BDE8F087D81B00001A
:1023100000487047800000207546FFF7F9FFAE4681
:1023200005006946534620F00700854618B020B5E1
:10233000FDF748FFBDE820404FF000064FF00007D2
:102340004FF000084FF0000B21F00701AC46ACE85D
:10235000C009ACE8C009ACE8C009ACE8C0098D46CA
:10236000704710B50446AFF300802046BDE810402A
:10237000FDF713BF4FF0013C50F8042B51F8043B1C
:102380009A4221D1A2EB0C03934313EACC1317D149
:1023900050F8042B51F8043B9A4215D1A2EB0C03E0
:1023A000934313EACC130BD150F8042B51F8043BA0
:1023B0009A4209D1A2EB0C03934313EACC13DBD06E
:1023C0004FF00000704700BFD01A01BAB1FA81F196
:1023D00001F0180122FA01F0CB40C1F12001DBB27B
:1023E000C0B2C01A2CFA01F3D11A914311EAC311F9
:1023F000E6D1704701491820ABBEFEE72600020077
:1024000070475FEA400C08BF91F0000F4FEA8C2341
:102410004FEAC12243EA51514FEA1C5018BF00F560
:10242000F0404FEA300018BF41F000415FEA6C5CB9
:1024300000F02980BCF1FF3F08BF40F080407047AA
:10244000130C06BF12044FF0100C4FF0000C130ECB
:1024500004BF12020CF1080C130F04BF12010CF19F
:10246000040C930F04BF92000CF1020CD30F04BFB5
:1024700052000CF1010C11464FF00002A0F11F00B8
:10248000A0EB0C00704711F0004F08BF704731F00F
:1024900000413FF4D5AF0B0C06BF09044FF0100C00
:1024A0004FF0000C0B0E04BF09020CF1080C0B0FCF
:1024B00004BF09010CF1040C8B0F04BF89000CF15F
:1024C000020CCB0F04BF49000CF1010CCCF120032E
:1024D000A0EB0C0022FA03F302FA0CF241EA03012A
:1024E00000F10100704720F07F4C80EA030023F0E8
:1024F0007F47ACEB070303F57C5300F0004003F18A
:10250000FF032DE980494FEA154B09B44FEA144304
:1025100025EA0B4E24EA03480FF2042606EB1327A4
:1025200049083E785FEA320203FB0667C7F50007F9
:1025300007FB06F64FEA54374FEAD64606F1020685
:1025400007FB066CCCF1005C4FEA1C472CEA074CF9
:1025500007FB06F40CFB06F504EB15464FEA96164E
:1025600034BF00204FF000404FEAD13706FB07FC94
:102570004FEA1C4C0CFB0BF7D21B03FB0CF761EB77
:1025800007010CFB0EF7B0EB074072EB17420CFB98
:1025900008F734BFA2EB0742B2EB074261EB1741E9
:1025A0004FEA0C444FEA910706FB07FC4FEA1C4C2C
:1025B0000CFB0BF7B0EBC74072EB573203FB0CF789
:1025C00034BFA2EBC742B2EBC74261EB57310CFB01
:1025D0000EF7B0EBC70072EB57720CFB08F734BF75
:1025E000A2EBC702B2EBC70261EB5771039F4FEA40
:1025F000816141EA921104EBCC044FEAD1374FEAF2
:10260000826206FB07FC42EA90124FEA80604FEAC2
:102610001C4C0CFB0BF7D21B03FB0CF761EB070107
:102620000CFB0EF7B0EB074072EB17420CFB08F700
:1026300034BFA2EB0742B2EB074261EB17414FEA0E
:102640008C554FEA910704EB9C2406FB07FC4FEAEC
:102650001C4C0CFB0BF7B0EBC74072EB573203FB83
:102660000CF734BFA2EBC742B2EBC74261EB573164
:102670000CFB0EF7B0EBC70072EB57720CFB08F7C0
:1026800034BFA2EBC702B2EBC70261EB577115EB87
:102690004C254FEA816141EA92114FEA82624FEA8A
:1026A000D13742EA901206FB07FC44F100044FEADE
:1026B00080604FEA1C4C0CFB0BF7D21B03FB0CF7A2
:1026C00061EB07010CFB0EF7B0EB074072EB174212
:1026D0000CFB08F734BFA2EB0742B2EB074261EBF9
:1026E000174115EB1C154FEA813141EA92414FEA3F
:1026F000823242EA90424FEA80304FEA0C7644F14F
:10270000000448EA03434EEA0B484FF0000EB2EBD8
:10271000080C71EB030724BF624639464EEB0E0EE0
:102720004FF0000B0018524149414BEB0B0BB2EB41
:10273000080C71EB03077BF1000B24BF624639469E
:102740004EEB0E0E4FF0000B0018524149414BEB7F
:102750000B0BB2EB080C71EB03077BF1000B24BFF2
:10276000624639464EEB0E0E51EA020718BF46F09C
:10277000010616EB0E7655F1000254F1000103D567
:10278000BDE88901BDE80088BDE88901BDE80048D1
:10279000B619524141EB0101A3F10103704780805A
:1027A0007F7E7D7C7B7A79787776767574737271AB
:1027B00071706F6E6E6D6C6C6B6A6A696868676663
:1027C00066656464636362616160605F5F5E5E5DF5
:1027D0005D5C5C5B5B5A5A59595858575756565569
:1027E00055555454535352525251515050504F4FCB
:1027F0004F4E4E4D4D4D4C4C4C4B4B4B4A4A4A491B
:10280000494948484847474747464646454545445D
:102810004444444343434342424242414141002BEA
:1028200026D4770021D01CB54FEA370703B44FF008
:1028300010004FF010014FF000000FBCBDE8104039
:102840000BF1010BBBF1010F08BF5FEA170722BFB5
:1028500012F1010211F101014FF0004143F10003B7
:1028600000F0004043EA00007047F9D35708DAE768
:1028700046EA064613F1400F4FEA16461FDD13F1F4
:10288000200FDFBF16430A46002120335B42C8D029
:10289000C3F1200746EA064602FA07F74FEA164652
:1028A00046EA0706C3F1200722FA03F201FA07F706
:1028B00021FA03F14FF0000342EA0702B1E746EACA
:1028C000020646EA06464FEA164646EA0106BCBF3D
:1028D00046EA0646360C4FF000034FF000024FF078
:1028E00000019EE72DE9C048934630B491E83800D6
:1028F00007C831EA400C48BF34EA430C03D5FFF760
:10290000F2FDFFF78CFFF0BCBDE800882DE9C04860
:10291000934630B491E8380007C810F0804F08BFE4
:1029200013F0804F03D100F005F8FFF778FFF0BCFB
:10293000BDE8008820F07F4780EA030023F07F4C49
:1029400007EB0C03A3F57C5300F00040A3F1FE035A
:1029500092F0000F00F0B38095F0000F00F0778048
:102960002DE901494FEA11404FEA144621EA004897
:1029700000FB06FC24EA064708FB06F607FB08F8FE
:1029800000FB07F718EB06484CEB164C4FEA124BCE
:1029900018EB07484FEA15464CEB174022EA0B4E5E
:1029A0000BFB06FC25EA06470EFB06F607FB0EFEB0
:1029B0000BFB07F71EEB064E4CEB164C4FF00006D8
:1029C0001EEB074E4CEB174B18EB0B0840F10000C9
:1029D00018EB0E0B58EB000840F100008F1A4FF077
:1029E00000013CBFC943661B14BFB5EB040C0021BA
:1029F0003CBFC943F61B4FEA17444EEA8E0E27EA46
:102A000004454FEA1C4704FB07622CEA074C05FB10
:102A100007F70CFB05F604FB0CFC16EB074642EB34
:102A2000174216EB0C4642EB1C421BEB060658EB1A
:102A30000202414146EA9E0601D5BDE80189B61968
:102A4000524141EB0101A3F10103BDE801894FEAC5
:102A500014454FEA114724EA054621EA074C05FBD5
:102A600007F406FB07F70CFB06F105FB0CFC11EB6A
:102A7000074144EB17444FEA124711EB0C4144EB7A
:102A80001C4422EA074C05FB07F206FB07F70CFB88
:102A900006F605FB0CFC16EB074642EB174216EB5D
:102AA0000C4642EB1C456A1854F1000148BF7047C0
:102AB000B619524141EB0101A3F10103704795F0B2
:102AC000000F37D04FEA11424FEA144721EA02467D
:102AD00024EA074C02FB07F106FB07F70CFB06F4A0
:102AE00002FB0CFC14EB074441EB17414FEA15477E
:102AF00014EB0C4441EB1C4125EA074C02FB07F5A3
:102B000006FB07F70CFB06F602FB0CFC16EB074670
:102B100045EB174516EB0C4645EB1C42121951F1DB
:102B2000000148BF7047B619524141EB0101A3F1C2
:102B3000010370474FEA14454FEA114724EA05465E
:102B400021EA074C05FB07F106FB07F70CFB06F231
:102B50004FF0000605FB0CFC12EB074241EB17415E
:102B600012EB0C4251EB1C4148BF7047921841EBED
:102B70000101A3F101037047490050EAC12018BFC9
:102B800004204A0D18BF40F0010040F2FF72B2EB82
:102B9000515F08BF40F00200012808BF05207047C0
:102BA00010B500290AD00878002807D005487844D5
:102BB000FFF7E0FB002801D0002010BD0248784458
:102BC00010BD0000A61200009E120000FFF73EB9E3
:102BD00000000000000000000000000000000000F5
:102BE00000000000000000000000000000000000E5
:102BF00000000000000000000000000000000000D5
:102C0000000080018001800180018001800180013D
:102C100080018001800180018001800100000000AE
:102C200080018001000000000000000000000000A2
:102C300000000000CC00CC00CC00CC00CC00CC00CC
:102C40000000000000000000000000000000000084
:102C50000000000000000000000000000000000074
:102C6000000000000000000000000000600C600C8C
:102C7000600C30063006FE1FFE1F300638071803B2
:102C8000FE1FFE1F180318038C018C018C0100002D
:102C900000008000E003F80F9C0E8C1C8C188C0048
:102CA0009800F801E007800E801C8C188C189C1886
:102CB000B80CF00FE003800080000000000000006E
:102CC0000000000000000E181B0C110C110611066C
:102CD000110311039B018E01C038C06C6044604435
:102CE000304430441844186C0C38000000000000D8
:102CF0000000E001F0033807180618063003F00161
:102D0000F000F8009C310E33061E061C061C063F20
:102D1000FC73F02100000000000000000000000033
:102D2000000000000C000C000C000C000C000C005B
:102D30000000000000000000000000000000000093
:102D40000000000000000000000000000000000083
:102D50000000000200038001C000C00060006000AD
:102D600030003000300030003000300030003000E3
:102D700060006000C000C00080010003000200008D
:102D8000000020006000C0008001800100030003FB
:102D90000006000600060006000600060006000603
:102DA0000003000380018001C000600020000000DB
:102DB000000000000000000000000000C000C00093
:102DC000D806F807E00130033807000000000000D3
:102DD00000000000000000000000000000000000F3
:102DE00000000000000000000000000080018001E1
:102DF000800180018001FC3FFC3F80018001800157
:102E000080018001000000000000000000000000C0
:102E100000000000000000000000000000000000B2
:102E200000000000000000000000000000000000A2
:102E3000000080018001000100018000000000000E
:102E40000000000000000000000000000000000082
:102E50000000000000000000E007E00700000000A4
:102E60000000000000000000000000000000000062
:102E70000000000000000000000000000000000052
:102E80000000000000000000000000000000000042
:102E90000000C000C00000000000000000000000B2
:102EA0000000000C000C00060006000600030003F2
:102EB00000038003800180018001C000C000C000C9
:102EC0006000600000000000000000000000000042
:102ED0000000E003F007380E180C0C180C180C1842
:102EE0000C180C180C180C180C180C18180C380EA0
:102EF000F007E003000000000000000000000000F8
:102F0000000000018001C001F001980188018001EA
:102F100080018001800180018001800180018001A9
:102F2000800180010000000000000000000000009F
:102F30000000E003F80F180C0C180C18001800180B
:102F4000000C000600038001C00060003000180083
:102F5000FC1FFC1F0000000000000000000000003B
:102F60000000E001F807180E0C0C0C0C000C000619
:102F7000C003C007000C001800180C180C18180C1F
:102F8000F807E0030000000000000000000000005F
:102F90000000000C000E000F000F800DC00C600C34
:102FA000600C300C180C0C0CFC3FFC3F000C000CAF
:102FB000000C000C000000000000000000000000F9
:102FC0000000F80FF80F180018000C00EC03FC07C5
:102FD0001C0E001C0018001800180C181C0C180EF1
:102FE000F807E003000000000000000000000000FF
:102FF0000000C007F00F381C181818000C00CC0394
:10300000EC0F3C0E1C1C0C180C180C18181C380E5D
:10301000F007E003000000000000000000000000D6
:103020000000FC1FFC1F000C0006000600038003CC
:103030008001C001C000E00060006000700030004E
:103040003000300000000000000000000000000020
:103050000000E003F007380E180C180C180C3806A6
:10306000F007F007180C0C180C180C180C18380C7A
:10307000F80FE00300000000000000000000000066
:103080000000E003F007380E1C0C0C180C180C188C
:103090001C1C381EF81BE0190018000C000C1C0E3C
:1030A000F807F00100000000000000000000000030
:1030B000000000000000000000000000800180010E
:1030C0000000000000000000000000000000000000
:1030D00080018001000000000000000000000000EE
:1030E00000000000000000000000000080018001DE
:1030F00000000000000000000000000000000000D0
:10310000800180010001000180000000000000003B
:1031100000000000000000000000000000000000AF
:103120000010001C800FE003F8001800F800E00316
:10313000800F001C001000000000000000000000D4
:10314000000000000000000000000000000000007F
:10315000F81F000000000000F81F00000000000041
:10316000000000000000000000000000000000005F
:10317000000000000000000000000000000000004F
:1031800008003800F001C007001F0018001FC0072A
:10319000F0013800080000000000000000000000FE
:1031A0000000E003F80F180C0C180C180018000CA5
:1031B000000600038001C000C000C0000000000045
:1031C000C000C0000000000000000000000000007F
:1031D00000000000E00718180420C229224A114408
:1031E00009440944094409221113E20C0240042055
:1031F0001818E007000000000000000000000000B8
:10320000000080038003C006C006C006600C600C8E
:10321000301830183018F83FF83F1C700C600C6004
:1032200006C006C000000000000000000000000012
:103230000000FC03FC0F0C0C0C180C180C180C0CE8
:10324000FC07FC0F0C180C300C300C300C300C1838
:10325000FC1FFC0700000000000000000000000050
:103260000000C007F01F38381C300C7006600600E4
:103270000600060006000600060006600C701C3002
:10328000F01FE00700000000000000000000000048
:103290000000FE03FE0F060E061806180630063064
:1032A0000630063006300630063006180618060EC0
:1032B000FE0FFE0300000000000000000000000000
:1032C0000000FC3FFC3F0C000C000C000C000C004C
:1032D000FC1FFC1F0C000C000C000C000C000C0070
:1032E000FC3FFC3F00000000000000000000000068
:1032F0000000F83FF83F18001800180018001800E8
:10330000F81FF81F180018001800180018001800FF
:10331000180018000000000000000000000000007D
:103320000000E00FF83F3C780E6006E007C00300A5
:10333000030003FE03FE03C007C006C00EC03CF03E
:10334000F83FE00F00000000000000000000000057
:1033500000000C300C300C300C300C300C300C30C9
:10336000FC3FFC3F0C300C300C300C300C300C307F
:103370000C300C30000000000000000000000000D5
:1033800000008001800180018001800180018001B6
:103390008001800180018001800180018001800125
:1033A000800180010000000000000000000000001B
:1033B00000000006000600060006000600060006E3
:1033C0000006000600060006000618061806380764
:1033D000F003E00100000000000000000000000019
:1033E000000006300618060C060606038601C60015
:1033F00066007600DE008E0106030606060C06183F
:103400000630066000000000000000000000000020
:103410000000180018001800180018001800180004
:1034200018001800180018001800180018001800DC
:10343000F81FF81F0000000000000000000000005E
:1034400000000EE01EF01EF01EF036D836D836D83A
:1034500036D866CC66CC66CCC6C6C6C6C6C6C6C698
:1034600086C386C3000000000000000000000000CA
:1034700000000C301C303C303C306C306C30CC30B8
:10348000CC308C310C330C330C360C360C3C0C3CF1
:103490000C380C30000000000000000000000000AC
:1034A0000000E007F81F1C380E70066003C003C060
:1034B00003C003C003C003C003C006600E701C3805
:1034C000F81FE007000000000000000000000000FE
:1034D0000000FC0FFC1F0C380C300C300C300C3092
:1034E0000C18FC1FFC070C000C000C000C000C005E
:1034F0000C000C00000000000000000000000000B4
:103500000000E007F81F1C380E70066003E003C0DF
:1035100003C003C003C003C007E006630E3F1C3CAA
:10352000F83FE0F700C000000000000000000000CD
:103530000000FE0FFE1F0638063006300630063843
:10354000FE1FFE0706030606060C061806180630C0
:1035500006300660000000000000000000000000CF
:103560000000E003F80F1C0C0C180C180C001C00D9
:10357000F803E00F001E0038063006300E301C1C29
:10358000F80FE0070000000000000000000000004D
:103590000000FE7FFE7F80018001800180018001AC
:1035A0008001800180018001800180018001800113
:1035B0008001800100000000000000000000000009
:1035C00000000C300C300C300C300C300C300C3057
:1035D0000C300C300C300C300C300C300C30181817
:1035E000F81FE007000000000000000000000000DD
:1035F000000003600630063006300C180C180C185A
:10360000180C180C380E3006300670076003600383
:10361000C001C00100000000000000000000000028
:1036200000000360C361C361C36166336633663300
:103630006633663366336C1B6C1B6C1B2C1A3C1E8A
:10364000380E380E000000000000000000000000EE
:1036500000000FE00C7018303018700C600EC007BE
:1036600080038003C003E006700C301C18180C3077
:103670000E6007E0000000000000000000000000F5
:10368000000003C006600C301C383818300C60068F
:10369000E007C0038001800180018001800180017A
:1036A0008001800100000000000000000000000018
:1036B0000000FC7FFC7F006000300018000C00065A
:1036C00000038001C0006000300018000C000600FC
:1036D000FE7FFE7F000000000000000000000000F0
:1036E0000000E003E0036000600060006000600034
:1036F00060006000600060006000600060006000CA
:1037000060006000600060006000E003E003000013
:10371000000030003000600060006000C000C000A9
:10372000C000C0018001800180010003000300038C
:10373000000600060000000000000000000000007D
:103740000000E003E00300030003000300030003A4
:103750000003000300030003000300030003000351
:1037600000030003000300030003E003E003000084
:1037700000000000C001C001600360036003300668
:103780003006180C180C00000000000000000000BB
:103790000000000000000000000000000000000029
:1037A0000000000000000000000000000000000019
:1037B0000000000000000000000000000000000009
:1037C0000000FFFFFFFF00000000000000000000FD
:1037D00000000C000C000C000C000C000C000000A1
:1037E00000000000000000000000000000000000D9
:1037F00000000000000000000000000000000000C9
:10380000000000000000000000000000F003F807C6
:103810001C0C0C0C000FF00FF80C0C0C0C0C1C0FFB
:10382000F80FF01800000000000000000000000089
:10383000000018001800180018001800D803F80F2E
:10384000380C181818181818181818181818380CD0
:10385000F80FD80300000000000000000000000086
:10386000000000000000000000000000C003F0079E
:10387000300E180C1800180018001800180C300E24
:10388000F007C0030000000000000000000000007E
:10389000000000180018001800180018C01BF01FC6
:1038A000301C181818181818181818181818301C60
:1038B000F01FC01B0000000000000000000000001E
:1038C000000000000000000000000000C003F00F36
:1038D000300C1818F81FF81F180018003818301C82
:1038E000F00FC00700000000000000000000000012
:1038F0000000800FC00FC000C000C000F007F0073C
:10390000C000C000C000C000C000C000C000C000B7
:10391000C000C00000000000000000000000000027
:10392000000000000000000000000000E00DF80FA3
:10393000180E0C0C0C0C0C0C0C0C0C0C0C0C180EAB
:10394000F80FE00D000C0C0C1C06F807F00100004D
:10395000000018001800180018001800D807F80F09
:10396000381C1818181818181818181818181818B3
:1039700018181818000000000000000000000000E7
:103980000000C000C000000000000000C000C00037
:10399000C000C000C000C000C000C000C000C00027
:1039A000C000C00000000000000000000000000097
:1039B0000000C000C000000000000000C000C00007
:1039C000C000C000C000C000C000C000C000C000F7
:1039D000C000C000C000C000C000F80078000000B7
:1039E00000000C000C000C000C000C000C0C0C0671
:1039F0000C038C01CC006C00FC009C018C030C03BC
:103A00000C060C0C0000000000000000000000008C
:103A10000000C000C000C000C000C000C000C00066
:103A2000C000C000C000C000C000C000C000C00096
:103A3000C000C00000000000000000000000000006
:103A40000000000000000000000000007C3CFF7E41
:103A5000C7E383C183C183C183C183C183C183C1E0
:103A600083C183C1000000000000000000000000CE
:103A70000000000000000000000000009807F80FA0
:103A8000381C181818181818181818181818181892
:103A900018181818000000000000000000000000C6
:103AA000000000000000000000000000C003F00F54
:103AB000300C181818181818181818181818300C6E
:103AC000F00FC00300000000000000000000000034
:103AD000000000000000000000000000D803F80F04
:103AE000380C181818181818181818181818380C2E
:103AF000F80FD8031800180018001800180000006C
:103B0000000000000000000000000000C01BF01FCB
:103B1000301C181818181818181818181818301CED
:103B2000F01FC01B00180018001800180018000033
:103B3000000000000000000000000000B007F003DB
:103B400070003000300030003000300030003000B5
:103B50003000300000000000000000000000000005
:103B6000000000000000000000000000E003F0037F
:103B7000380E180C3800F003C007000C180C380E73
:103B8000F007E0030000000000000000000000005B
:103B9000000000008000C000C000C000F007F00777
:103BA000C000C000C000C000C000C000C000C00015
:103BB000C0078007000000000000000000000000B7
:103BC0000000000000000000000000001818181895
:103BD0001818181818181818181818181818381C41
:103BE000F01FE019000000000000000000000000CD
:103BF0000000000000000000000000000C18180C7D
:103C0000180C180C300630063006600360036003A1
:103C1000C001C00100000000000000000000000022
:103C2000000000000000000000000000C141C14190
:103C3000C3616363636363633636363636361C1C92
:103C40001C1C1C1C00000000000000000000000004
:103C50000000000000000000000000001C38381CBC
:103C6000300C600660036003600360036006300C84
:103C7000381C1C380000000000000000000000009C
:103C800000000000000000000000000018303018A4
:103C900030187018600C600CE00CC006C006800381
:103CA0008003800380018001C001F00070000000EB
:103CB000000000000000000000000000FC1FFC1FCE
:103CC000000C000600038001C000600030001800F6
:103CD000FC1FFC1F000000000000000000000000AE
:103CE000000000038001C000C000C000C000C00090
:103CF000C00060006000300060004000C000C000F4
:103D0000C000C000C000C00080010003000000002F
:103D1000000080018001800180018001800180011C
:103D2000800180018001800180018001800180018B
:103D300080018001800180018001800180010000FC
:103D400000006000C000C00180018001800180018E
:103D500080010003000300060003000180018001D0
:103D60008001800180018001C0006000000000002F
:103D70000000000000000000000000000000000043
:103D8000F010F81F080F0000000000000000000005
:103D90000000000000000000000000000000000023
:103DA00002400000000000A00000000005400000EC
:103DB000000000C8000000000C4000000000409C13
:103DC00000000000194000000020BCBE0000000000
:103DD00034400000BFC91B8E00000004B540000045
:103DE000504BCFD06607E2CF010000006C410000CD
:103DF0003E8251AADFEEA73401000000D942000044
:103E0000DCB5A0E23A301F97FFFFFFFFB44500008A
:103E1000FD25A0C8E9A3C14FFFFFFFFFFF3F000042
:103E20000000008000000000FF3F00000000008054
:103E300000000000703E0008000000203400000078
:103E400028010008A43E000834000020AC06000051
:103E5000440100081C00000043000000F8FFFFFFC1
:103E60000C0000000E0000000F0000002E000000FB
:103E700000A24A0400000000000000000102030448
:103E80000607080900000000010203040102030400
:103E900006070809020406080000FFFF00000000F2
:043EA000000000001E
:04000005080000ED02
:00000001FF
