:020000040800F2
:100000000807002091010008412C0008432C00083B
:10001000472C00084B2C00084F2C00080000000063
:10002000000000000000000000000000552C000847
:10003000532C000800000000572C0008592C000821
:10004000AB010008AB010008AB010008C732000893
:10005000AB010008AB010008AB010008AB010008D0
:10006000AB010008AB010008AB010008AB010008C0
:10007000AB010008AB010008AB010008AB010008B0
:10008000AB010008AB010008AB010008AB010008A0
:10009000AB010008AB010008AB010008AB01000890
:1000A000AB010008AB010008AB010008AB01000880
:1000B000293600083B380008BD2B0008AB010008BA
:1000C000AB010008AB010008AB010008AB01000860
:1000D000AB010008AB010008AB010008AB01000850
:1000E000AB010008AB010008AB01000800F002F80A
:1000F00000F03FF80AA090E8000C82448344AAF183
:100100000107DA4501D100F034F8AFF2090EBAE880
:100110000F0013F0010F18BFFB1A43F0010318473B
:100120005051000070510000103A24BF78C878C1C7
:10013000FAD8520724BF30C830C144BF04680C60ED
:10014000704700000023002400250026103A28BF35
:1001500078C1FBD8520728BF30C148BF0B60704739
:10016000642903F04984002070471FB51FBD10B5F6
:1001700010BD03F080FD1146FFF7F7FF02F0B0FC61
:1001800003F09EFD03B4FFF7F2FF03BC03F0A2FDF2
:100190000948804709480047FEE7FEE7FEE7FEE71B
:1001A000FEE7FEE7FEE7FEE7FEE7FEE70448054957
:1001B000054A064B70470000AD020008ED0000083C
:1001C0000801002008070020080300200803002081
:1001D0000CB50020019000906B48006840F480301E
:1001E0006949086000BF6848006800F4003000906A
:1001F0000198401C0190009818B90198B0F5A06FC3
:10020000F1D16148006810F4003F02D00120009055
:1002100001E0002000900098012842D15B4800686E
:1002200040F01000594908600846006820F00300BB
:1002300008600846006840F00200086052484068C4
:10024000514948600846406848600846406840F4A4
:10025000806048600846406820F47C10486008468A
:10026000406840F4E81048600846006840F080703C
:10027000086000BF4448006810F0007FFAD0424890
:10028000406820F00300404948600846406840F05C
:100290000200486000BF3C48406800F00C0008289D
:1002A000F9D10CBD10B5FFF793FF10BD10B536485E
:1002B000006840F00100344908600846406834494D
:1002C00008403149486008460068324908402E49D4
:1002D00008600846006820F48020086008464068EE
:1002E00020F4FE0048604FF41F008860FFF7DAFF3B
:1002F0004FF000602849086010BD10B500210020B3
:100300000022214B5B6803F00C0121B1042906D0C7
:10031000082928D107E0214B214C236027E01F4BFF
:100320001F4C236023E0184B5B6803F47010164BDE
:100330005B6803F48032022303EB904022B9194B2F
:100340004343174C23600DE00F4B5B6813F4003FF1
:1003500004D0144B4343124C236003E00F4B434340
:100360000F4C236003E00D4B0D4C236000BF00BF1A
:10037000054B5B68C3F303130B4CE15C084B1B6834
:10038000CB40074C236010BD00100240002002400B
:100390000000FFF8FFFFF6FE08ED00E000127A0013
:1003A0000000002000093D000400002010B50446B4
:1003B000CA48844208D10121042000F027FB002113
:1003C000042000F023FB46E0C548844208D1012107
:1003D000082000F01BFB0021082000F017FB3AE08A
:1003E000C048844208D10121102000F00FFB0021F9
:1003F000102000F00BFB2EE0BB48844208D1012105
:10040000202000F003FB0021202000F0FFFA22E072
:10041000B648844208D10121402000F0F7FA0021BB
:10042000402000F0F3FA16E0B148844208D10121DF
:10043000802000F0EBFA0021802000F0E7FA0AE0CB
:10044000AC48844207D10121801500F0DFFA002179
:10045000A01500F0DBFA10BD10B50121084600F030
:10046000D5FA0021012000F0D1FA10BD2DE9F041AC
:10047000024600250026002000230024002791F8D2
:1004800003C00CF00F0591F803C01CF0100F03D04F
:1004900091F802C04CEA050591F800C0BCF1000FCC
:1004A00031D0146800202BE04FF0010C0CFA00F35F
:1004B000B1F800C00CEA03069E4220D183004FF041
:1004C0000F0C0CFA03F7BC4305FA03FC4CEA0404D6
:1004D00091F803C0BCF1280F06D14FF0010C0CFAC3
:1004E00000FCC2F814C00AE091F803C0BCF1480F48
:1004F00005D14FF0010C0CFA00FCC2F810C0401CF2
:100500000828D1D31460B1F800C0BCF1FF0F34DD6E
:10051000546800202EE000F1080C4FF0010808FAA2
:100520000CF3B1F800C00CEA03069E4221D183000F
:100530004FF00F0C0CFA03F7BC4305FA03FC4CEA2E
:10054000040491F803C0BCF1280F05D100F1080C98
:1005500008FA0CF8C2F8148091F803C0BCF1480FF7
:1005600007D100F1080C4FF0010808FA0CF8C2F8A6
:100570001080401C0828CED35460BDE8F0814FF6AF
:10058000FF710180022181700421C1707047024611
:10059000002093680B4201D0012000E0002070474A
:1005A0000146886880B2704702460020D3680B423B
:1005B00001D0012000E0002070470146C86880B2E9
:1005C000704701617047416170470AB1016100E005
:1005D00041617047C16070474FF480320A438261C5
:1005E0008161826182698269704702460020424BC4
:1005F00018684FF68073184040EA021008433E4BDB
:10060000186070473D49C8617047F0B50A4600233D
:1006100000240021002500F00046B6F1004F02D171
:10062000354EF16901E0344E7168C0F3034583B281
:1006300000F44016B6F5401F08D121F070612E4E2F
:10064000766826F070662C4F7E6012E000F480160B
:10065000B6F5801F06D1032606FA05F4A14341F042
:10066000706106E0460D360103FA06F6B14341F02B
:10067000706122B1460D360103FA06F6314300F0EF
:100680000046B6F1004F02D11B4EF16101E01A4E57
:100690007160F0BD30B500228B071C0F0F2303FAE9
:1006A00004F2154B08338C1053F824309343124C4A
:1006B00008348D1044F8253023468C1053F824302C
:1006C0008C07240F00FA04F423430B4C08348D10DC
:1006D00044F8253030BD0A490860704700080140E1
:1006E000000C0140001001400014014000180140BE
:1006F000001C014000200140000001400000204299
:10070000DC002042DD48006840F00100DB49086061
:1007100008464068DA490840D849486008460068F9
:10072000D8490840D54908600846006820F4802070
:1007300008600846406820F4FE0048604FF41F003F
:1007400088607047CD49096821F48031CB4A116037
:100750001146096821F480211160B0F5803F03D073
:10076000B0F5802F0ED106E0C449096841F480310C
:10077000C24A116007E0C149096841F4A021BF4A9B
:10078000116000E000BF00BF704710B501460022B5
:10079000002300204A11012A02D1B84C236806E048
:1007A000022A02D1B54C236A01E0B44C636A01F01D
:1007B0001F02012494401C4201D0012000E00020CF
:1007C00010BD38B5002000900024002500BF312066
:1007D000FFF7DBFF05460098401C00900098B0F53D
:1007E000A06F01D0002DF2D03120FFF7CEFF08B16D
:1007F000012400E00024204638BD014600209F4A25
:10080000106820F0F80040EAC100106070479E496F
:100810000860704702460020984B586820F47C100E
:1008200042EA01031843954B5860704796490866A1
:10083000704701460020914A506820F003000843A9
:10084000506070478D48406800F00C0070470146CA
:1008500000208A4A506820F0F0000843506070473A
:1008600001460020854A506820F4E060084350604B
:10087000704701460020814A506820F4605040EAE9
:10088000C1005060704729B17C4A527A02437B4BC9
:100890005A7204E0794A527A8243784B5A7270470E
:1008A0007A490860704701460020744A506820F475
:1008B00040400843506070470021754A11706F4AEC
:1008C00082F82010012802D0042808D103E0012179
:1008D0006F4A117004E005216D4A117000E000BFFD
:1008E00000BF70476B49086070476449096A01435B
:1008F000624A11627047674944390860704730B5F1
:1009000000210022002400235C4D6D6805F00C01DD
:1009100021B1042905D0082923D105E05E4D0560E9
:1009200022E05D4D05601FE0544D6D6805F47012C6
:10093000524D6D6805F48034022505EB92421CB9D6
:10094000564D554305600BE04C4D6D6815F4003F66
:1009500003D0524D5543056002E04F4D55430560AD
:1009600002E04D4D056000BF00BF444D6D6805F0CD
:10097000F00109094A4D6B5C0568DD4045603F4D5B
:100980006D6805F4E061090A454D6B5C4568DD4022
:1009900085603A4D6D6805F46051C90A404D6B5C45
:1009A0004568DD40C560354D6D6805F44041890BF3
:1009B0003C4D6B5CC568B5FBF3F5056130BD29B1F5
:1009C0002E4A526902432D4B5A6104E02B4A526968
:1009D00082432A4B5A61704729B1284A92690243DF
:1009E000264B9A6104E0254A92698243234B9A611F
:1009F000704729B1214AD2690243204BDA6104E0F1
:100A00001E4AD26982431D4BDA61704729B11B4AE5
:100A1000D2680243194BDA6004E0184AD268824374
:100A2000164BDA60704729B1144A12690243134B1E
:100A30001A6104E0114A12698243104B1A6170472F
:100A400014494039086070470F49C86470470B4922
:100A5000C87170470948406A40F080700749486291
:100A6000704701460020054A92680A4201D00120E1
:100A700000E0002070470149887270470010024072
:100A80000000FFF8FFFFF6FE00004242D80042429D
:100A9000201002408004424200127A0000093D000A
:100AA000140000202400002031490143314A116024
:100AB000704770B5002100230F22C4780CB32D4C71
:100AC000246804F4E064C4F5E064210AC1F104037D
:100AD000CA40447804FA03F18478144021430901A0
:100AE000254C0678A155047804F01F050124AC407C
:100AF00005786D114FF0E02606EB8505C5F800413D
:100B000009E0047804F01F050124AC401B4D067871
:100B1000761145F8264070BD194A0A400243154B2C
:100B20001B1F1A60704739B1124A121D1268024326
:100B3000104B1B1D1A6006E00E4A121D12688243FC
:100B40000C4B1B1D1A607047042808D14FF0E021A0
:100B5000096941F004014FF0E022116107E04FF014
:100B6000E021096921F004014FF0E0221161704792
:100B70000000FA050CED00E000E400E080E100E098
:100B800080FFFF1F10B50446FA48844208D10121B6
:100B90004015FFF73BFF00216015FFF737FF17E017
:100BA000F548844208D101210015FFF72FFF0021ED
:100BB0002015FFF72BFF0BE0F048844208D10121FC
:100BC000C803FFF723FF00214FF40040FFF71EFF8B
:100BD00010BD30B50246002000235068E84C20408C
:100BE0000D790C6844EA0524204350609068E54C78
:100BF0002040D1E902542C434D7944EA4504204376
:100C00009060D06A20F470000C7C641EE4B2234330
:100C100040EA0350D06230BD002101600171417192
:100C20008160C16001210174704721B1826842F086
:100C30000102826003E0826822F001028260704754
:100C400021B1826842F48072826003E0826822F4FB
:100C500080728260704710B50023CBB21AB144682D
:100C60001C43446002E044689C43446010BD8168BA
:100C700041F0080181607047014600208A6812F047
:100C8000080F01D0012000E000207047816841F08A
:100C9000040181607047014600208A6812F0040F49
:100CA00001D0012000E00020704721B1826842F4A9
:100CB000A002826003E0826822F4A0028260704792
:100CC000014600208A6812F4800F01D0012000E064
:100CD0000020704710B50A4600210023416821F426
:100CE0006041531E41EA4331416010BD21B1426869
:100CF00042F40062426003E0426822F40062426013
:100D00007047F0B504460D4600200021092D11DD85
:100D1000E068A5F10A0606EB4607072606FA07F182
:100D20008843A5F10A0606EB460603FA06F10843D6
:100D3000E0600CE0206905EB4507072606FA07F19D
:100D4000884305EB450603FA06F108432061072AAC
:100D50000FDA606B561E06EB86071F2606FA07F1B0
:100D60008843561E06EB860605FA06F108436063C3
:100D700022E00D2A0FDA206BD61F06EB86071F260E
:100D800006FA07F18843D61F06EB860605FA06F138
:100D90000843206310E0E06AA2F10D0606EB860727
:100DA0001F2606FA07F18843A2F10D0606EB860618
:100DB00005FA06F10843E062F0BD21B1826842F411
:100DC0008012826003E0826822F4801282607047A1
:100DD0000146C86C80B2704766484C300068704766
:100DE00021B1426842F48062426003E0426822F42A
:100DF00080624260704721B1426842F48052426092
:100E000003E0426822F48052426070470A460021A3
:100E1000816821F4E04111438160704721B182680B
:100E200042F40042826003E0826822F40042826061
:100E3000704721B1826842F40212826003E0826846
:100E400022F4021282607047014600208A6812F480
:100E5000001F01D0012000E000207047F0B50446DB
:100E60001546002000220026092911DDE068A1F1C5
:100E70000A0707EB470C072707FA0CF29043A1F18A
:100E80000A0707EB470703FA07F21043E0600CE09C
:100E9000206901EB410C072707FA0CF2904301EBA4
:100EA000410703FA07F210432061A06BC0F301561B
:100EB000EF1C06F1010CA7EB0C0707EB870C1F27B3
:100EC00007FA0CF29043EF1C06F1010CA7EB0C079C
:100ED00007EB870701FA07F21043A063F0BD10B5D6
:100EE0000A4600210023816B21F44011531E41EA80
:100EF0000351816310BD08B5002300930090009B4F
:100F00000B440093009B1A6008BD08B50246002000
:100F10000090009201F12800009B18440090009876
:100F2000006880B208BD0A4600214168164B19408E
:100F30001143416070474162826270470A46002156
:100F4000416821F01F0111434160704740B10949D8
:100F50000831096841F40001064A0832116007E0CF
:100F600004490831096821F40001024A083211607D
:100F7000704700000024014000280140003C01406F
:100F8000FFFEF0FFFDF7F1FFFFFD3FFF02460020EF
:100F900013680B4201D0012000E000207047CA43D3
:100FA0000260704770B502460020002300240B1237
:100FB0005568CEB205EA060415681D4202D00CB190
:100FC000012000E0002070BD00220A12D34303601C
:100FD0007047000010B50120FFF732FD0020FFF739
:100FE0002FFD10BD2A49086070472949091F086074
:100FF0007047274984310860704701460020254A20
:1010000010884FF67F4210400843224A10807047F4
:10101000014600201F4A10884FF680721040084396
:101020001C4A1080704708B500220092194A2C3AD9
:101030000092009A02440092009A116008BD08B51F
:1010400001460020009013482C3800900098084476
:1010500000900098008808BD0D489C300068C0B220
:1010600070470C480830008840F0010009490831F9
:10107000088070470648A0300068C0B27047054835
:101080000830008840F002000249083108807047AB
:1010900004860D422C6C004010B501210807FFF7B3
:1010A000C2FC00214FF08050FFF7BDFC10BD294964
:1010B0000862704727490861704701460020264AA8
:1010C000106820F0E0000843106070472349086072
:1010D000704710B5024600201F4B186820F003002F
:1010E000104318601E4B1B6843F004031C4C236024
:1010F000012901D130BF00E020BF194B1B6823F04C
:101100000403174C236010BD1348006840F004002E
:10111000114908600846006840F002000860104865
:10112000006840F004000E49086000BF00BF30BFF7
:10113000704701460020084A52680A4201D0012047
:1011400000E0002070470449096841EA8001024A32
:101150001160704700000E4200700040A0000E4277
:1011600010ED00E029B14F4A128802434D4B1A801E
:1011700004E04C4A128882434A4B1A80704749481F
:10118000001D008840F010004649091D0880704786
:101190004448001D00884FF6EF7108404149091D81
:1011A0000880704700213F481C300188001F0088DC
:1011B00041EA0040704700B50246FFF7E0FF100C1F
:1011C000384918310880091D0A80FFF7E1FF00BD8A
:1011D00000B50246FFF7D3FFC2F30340314908319F
:1011E0000880091D0A80FFF7D3FF00BD00B5024645
:1011F000FFF7C5FF100C2B4920310880091D0A801C
:10120000FFF7C6FF00BD00202649103109880907F5
:10121000080B2449143109880843704700BF21484E
:10122000001D008810F0200FF9D070471D48001DE8
:1012300000884FF6F77108401A49091D088000BF61
:101240001848001D008810F0080FF9D070470146BB
:101250000020144A121D12880A4201D0012000E029
:10126000002070470F49091D098881430D4A121D4E
:1012700011807047014600200A4A121D12880A4058
:10128000D0B2084A12880A4202D008B1012000E018
:10129000002070470349091D09888143014A121D36
:1012A000118070470028004010B50446FE48844273
:1012B00008D10121C014FFF7A9FB0021E014FFF7BA
:1012C000A5FBC4E0B4F1804F08D101210846FFF727
:1012D000AAFB00210120FFF7A6FBB8E0F3488442F7
:1012E00008D101210220FFF79EFB00210220FFF719
:1012F0009AFBACE0EE48844208D101210420FFF7BC
:1013000092FB00210420FFF78EFBA0E0E948844215
:1013100008D101210820FFF786FB00210820FFF7F4
:1013200082FB94E0E448844208D101211020FFF7B9
:101330007AFB00211020FFF776FB88E0DF4884422B
:1013400008D101212020FFF76EFB00212020FFF7AC
:101350006AFB7CE0DA48844208D101214014FFF79F
:1013600055FB00216014FFF751FB70E0D548844223
:1013700009D10121C804FFF749FB00214FF40020E7
:10138000FFF744FB63E0D048844209D101210805FE
:10139000FFF73CFB00214FF48010FFF737FB56E0CE
:1013A000CA48844209D101214805FFF72FFB0021DB
:1013B0004FF40010FFF72AFB49E0C548844208D1EA
:1013C00001214020FFF72FFB00214020FFF72BFBDE
:1013D0003DE0C048844208D101218020FFF723FB73
:1013E00000218020FFF71FFB31E0BB48844208D179
:1013F00001218015FFF717FB0021A015FFF713FB54
:1014000025E0B648844209D101210804FFF7FEFA1D
:1014100000214FF48030FFF7F9FA18E0B048844219
:1014200009D101214804FFF7F1FA00214FF40030FF
:10143000FFF7ECFA0BE0AB48844208D101218804A5
:10144000FFF7E4FA00214FF48020FFF7DFFA10BD28
:1014500000220288944B98420ED0994B98420BD0B0
:10146000B0F1804F08D0914B984205D0904B9842F4
:1014700002D0904B984204D14FF68F731A404B889C
:101480001A438D4B984207D08C4B984204D04FF6AC
:10149000FF431A40CB881A4302808B8883850B88D0
:1014A0000385814B98420BD0854B984208D08B4BDB
:1014B000984205D08A4B984202D08A4B984201D17B
:1014C0000B7A038601238382704770B500240022C3
:1014D0000023058C4FF6FE7635400584028C838808
:1014E000048B4FF68F752C40B51E2C400D882C4375
:1014F000751E2A400D892A434D882A436A4DA84209
:101500000BD06F4DA84208D0744DA84205D0744D41
:10151000A84202D0734DA84213D14FF6F7752A4066
:101520004D892A434FF6FB752A408D882A434FF692
:10153000FF652B404FF6FF552B408D892B43CD89FE
:101540002B4383800483CD888586028470BD70B56B
:10155000002400220023058C4FF6EF7635400584E9
:10156000028C8388048B48F6FF752C404FF6FF45AC
:101570002C400D884FF6FF7606EA05252C434FF6E2
:10158000DF752A400D8906EA05152A434D8806EACB
:1015900005152A43444DA84202D0494DA8421DD109
:1015A0004FF67F752A404D894FF6FF7606EA0515FE
:1015B0002A434FF6BF752A408D8806EA05152A434F
:1015C0004FF6FF352B404FF2FF752B408D8906EA11
:1015D00085052B43CD8906EA85052B43838004834B
:1015E000CD880587028470BD70B5002400220023D9
:1015F000058C4FF6FF6635400584028C8388848B0A
:101600004FF68F752C404FF6FC752C400D882C43FF
:101610004FF6FF552A400D894FF6FF7606EA05255D
:101620002A434D8806EA05252A431F4DA84202D0C9
:10163000234DA8421DD14FF2FF752A404D894FF628
:10164000FF7606EA05252A434FF6FF352A408D88A6
:1016500006EA05252A434EF6FF752B404DF6FF7529
:101660002B408D8906EA05152B43CD8906EA051521
:101670002B4383808483CD888587028470BD70B5B9
:10168000002200230024058C4EF6FF7635400584A9
:10169000038C8488828B48F6FF752A404FF6FF45FD
:1016A0002A400D8820E00000002C0140000400408A
:1016B00000080040000C00400010004000140040F2
:1016C00000340140004C01400050014000540140F2
:1016D00000180040001C0040002000400040014075
:1016E00000440140004801404FF6FF7606EA052518
:1016F0002A434DF6FF752B400D8906EA05352B432D
:101700004D8806EA05352B43FA4DA84202D0FA4D22
:10171000A84208D14BF6FF752C408D894FF6FF7615
:1017200006EA85152C4384808283CD88A0F840503A
:10173000038470BD828B4FF2FF331A408283828B09
:101740004FF6FF7303EA01231A4382837047F0B513
:101750000C461546002200210026078C4EF6FF7C21
:1017600007EA0C070784828B018C4FF6FF7707EAA4
:10177000043640F6FF473A404FF6FF7707EA052761
:101780003A434FF6FF7707EA03373A43D94FB84257
:101790000ED0D94FB8420BD0B0F1804F08D0D74F00
:1017A000B84205D0D64FB84202D0D64FB84206D183
:1017B0004DF6FF77394046F48057394305E047F648
:1017C000FF57394044F48057394382830184F0BD88
:1017D000828B4FF6F3731A408283828B0A43828393
:1017E0007047F0B50C461546002200210026078CF4
:1017F0004FF6FF6C07EA0C070784828B018C4FF6CB
:10180000FF7707EA04264FF60C773A404FF6FF774A
:1018100007EA03172F433A43B64FB8420ED0B64FEC
:10182000B8420BD0B0F1804F08D0B44FB84205D0C9
:10183000B34FB84202D0B34FB84206D14FF6FF576C
:10184000394046F48077394305E04FF2FF5739407D
:1018500044F48077394382830184F0BD028B4FF2D8
:10186000FF331A400283028B4FF6FF7303EA012312
:101870001A4302837047F0B50C461546002200213A
:101880000026078C4FF6EF7C07EA0C070784028BD3
:10189000018C4FF6FF7707EA041640F6FF473A40FF
:1018A0004FF6FF7707EA03373A434FF6FF7707EA29
:1018B00005273A438F4FB8420ED08F4FB8420BD016
:1018C000B0F1804F08D08D4FB84205D08C4FB84250
:1018D00002D08C4FB84206D14FF6DF77394046F040
:1018E0001007394305E04FF65F77394044F01007A1
:1018F000394302830184F0BD028B4FF6F3731A4023
:101900000283028B0A4302837047F0B50C461546EA
:1019100000220021068C4FF6FE773E400684028BA3
:10192000018C4FF60C7632407E1C06EA03162E43DD
:101930003243704EB0420ED06F4EB0420BD0B0F179
:10194000804F08D06D4EB04205D06D4EB04202D0EF
:101950006C4EB04206D14FF6FD76314044F00106A0
:10196000314305E04FF6F576314044F0010631434E
:1019700002830184F0BD70B505460C465D48854282
:101980000ED05D4885420BD0B5F1804F08D05B4842
:10199000854205D05A48854202D05A48854200D136
:1019A00000E000BF208850B92389A28861882846BA
:1019B000FFF7ABFFE1882846FFF79EFF25E0208870
:1019C00004280AD12389A28861882846FFF753FF9B
:1019D000E1882846FFF742FF17E0208808280AD14F
:1019E0002389A28861882846FFF7FBFEE188284604
:1019F000FFF7EEFE09E02389A28861882846FFF7F9
:101A0000A6FEE1882846FFF795FE70BD2DE9F0415E
:101A100005460C4600260127608808B9022600E02A
:101A20000026A088012801D1022700E00127208894
:101A3000A0B92389A28861882846FFF766FFE1885C
:101A40002846FFF759FF23893A4631462846FFF7D3
:101A500012FFE1882846FFF701FF13E02389A288DF
:101A600061882846FFF707FFE1882846FFF7F6FE62
:101A700023893A4631462846FFF747FFE188284642
:101A8000FFF73AFFBDE8F0810A884B881A438B883C
:101A90001A43CB881A430B891A434B891A438B8903
:101AA0001A43A0F8442070474FF6FF71818000214F
:101AB0000180C18041800172704700210180418016
:101AC0008180C180018141818181C1817047002174
:101AD00001804180012181800021C1800181704706
:101AE0000021018041808180C1800181418181810B
:101AF00070470000002C0140003401400004004009
:101B000000080040000C004021B1028842F00102B0
:101B1000028004E002884FF6FE731A40028070478C
:101B200031B1B0F8442042F40042A0F8442005E06E
:101B3000B0F84420C2F30E02A0F8442070471AB156
:101B400083890B43838102E083898B4383817047C0
:101B50008182704741EA0203A0F8483070471AB109
:101B600083890B43838102E083898B4383817047A0
:101B700001894FF6F8721140018170470A46002131
:101B800001894FF68F73194011430181704730B5B9
:101B900004460D4629462046FFF7F0FF208940F015
:101BA0000700208130BD2DE9F04104460D46164660
:101BB0001F46602D06D13B46012231462046FFF7E5
:101BC0005AFE05E03B46012231462046FFF79DFEC6
:101BD00029462046FFF7D2FF208940F007002081E8
:101BE000BDE8F08130B50C4600210189C9B24FF63D
:101BF000FF7505EA0325154325432943018130BDBF
:101C00002DE9F04105460E46174698460024434606
:101C10003A4631462846FFF7E5FF2C894FF6F87023
:101C2000044044F007044FF68F70044044F0700401
:101C30002C81BDE8F081F0B504460D4616461F46DE
:101C40003B46324629462046FFF7CCFF208940F428
:101C500080402081F0BD0185828270470A460021C4
:101C600001884FF68F731940114301807047F0B51A
:101C70000C4615461E460021002200230189028BD6
:101C8000038C4FF6F877394021434FF6FC473A4032
:101C900040F201173A434FF6DD773B404FF6FF77AE
:101CA00007EA06172F433B43018102830384F0BDFB
:101CB0000A460021018B4FF68F73194011430183AF
:101CC00070470A460021018B48F6FF7319404FF612
:101CD000FF7303EA02231943018370470A46002178
:101CE000818B4FF68F7319401143818370470A46E9
:101CF0000021818B48F6FF7319404FF6FF7303EA0A
:101D0000022319438183704721B1028842F0800287
:101D1000028004E002884FF67F731A400280704709
:101D200021B1828842F00402828004E082884FF66A
:101D3000FB731A408280704721B1828842F008020A
:101D4000828004E082884FF6F7731A4082807047E1
:101D500021B1828842F00102828004E082884FF63D
:101D6000FE731A40828070470A460021018B4FF6AD
:101D7000F77319401143018370470A460021018B14
:101D80004FF2FF7319404FF6FF7303EA0223194322
:101D9000018370470A460021818B4FF6F773194083
:101DA0001143818370470A460021818B4FF2FF73F4
:101DB00019404FF6FF7303EA0223194381837047EA
:101DC0000A460021018B4FF6FB7319401143018332
:101DD00070470A460021018B4FF6FF3319404FF63A
:101DE000FF7303EA02231943018370470A46002167
:101DF000818B4FF6FB7319401143818370470A466C
:101E00000021818B4FF6FF3319404FF6FF7303EA31
:101E100002231943818370470A460021018B4FF644
:101E20007F7319401143018370470A460021018BDB
:101E3000C1F30E014FF6FF7303EA02231943018336
:101E400070470A460021818B4FF67F73194011437A
:101E5000818370470A460021818BC1F30E014FF642
:101E6000FF7303EA02231943818370470A46002166
:101E7000018C4FF6FD7319401143018470470A46E7
:101E80000021018C4FF6F77319401143018470470C
:101E90000A460021018C4FF6DF7319404FF6FF739D
:101EA00003EA02131943018470470A460021018C9A
:101EB0004FF67F7319404FF6FF7303EA021319437D
:101EC000018470470A460021018C4FF6FF531940E8
:101ED0004FF6FF7303EA02231943018470470A4651
:101EE0000021018C4FF2FF7319404FF6FF7303EA94
:101EF00002231943018470470A460021018C4DF6E4
:101F0000FF7319404FF6FF7303EA0233194301844C
:101F1000704730B5002301248C40A3B2048C9C434D
:101F20000484048C02FA01F5ADB22C43048430BD64
:101F300030B5002304248C40A3B2048C9C43048459
:101F4000048C02FA01F5ADB22C43048430BD70B5A7
:101F50000346002000241846183001258D40ACB2FD
:101F60001D8CA5431D8409B1082909D100EB61002E
:101F7000056825F0700505600568154305600EE0ED
:101F80000D1FC5F34E052844056825F4E04505609E
:101F900005684FF6FF7606EA02263543056070BDF8
:101FA00021B1028842F00202028004E002884FF66A
:101FB000FD731A400280704721B1028842F004028A
:101FC000028004E002884FF6FB731A4002807047DB
:101FD00021B1828842F08002828004E082884FF63C
:101FE0007F731A408280704702884FF6F7731A4059
:101FF000028002880A430280704782884FF68F73FE
:102000001A40828082880A438280704702894FF694
:10201000F8731A40028102890A43028170470289DB
:102020004FF67F731A40028102890A43028170478A
:10203000818470478185704781867047018770472A
:1020400081877047A0F84010704702884FF6FF4321
:102050001A40028002880A43028070470146888E37
:1020600070470146088F70470146888F70470146C8
:10207000B1F8400070470146888C70470146088DD2
:10208000704702460020138A0B4201D0012000E075
:1020900000207047CA430282704730B502460020D4
:1020A00000230024158A05EA0103958905EA010445
:1020B00013B10CB1012000E0002030BDCA43028200
:1020C00070470000002109E0002201E0531C9AB291
:1020D00040F6B8339A42F9DB4B1C99B28142F3DBEC
:1020E000704710B5FD4BDB689AB24FF40073FC4C9F
:1020F00023605B1023602023241F2360F74BD860EC
:102100002023241D2360241F2360DB002360F34B66
:10211000D9602023241D2360241F2360DB0023605B
:10212000EE4BDA6010BD00B501210020FFF7D9FFAA
:102130004FF47A70FFF7C6FF00210120FFF7D1FFAF
:1021400041F290711020FFF7CCFF4FF41C5160203A
:10215000FFF7C7FF01216120FFF7C3FF02214620DF
:10216000FFF7BFFF48F210011320FFF7BAFF48F254
:10217000FE011220FFF7B5FF4FF4A0610220FFF728
:10218000B0FF41F230010320FFF7ABFF40F2033113
:102190003020FFF7A6FF40F203313120FFF7A1FF07
:1021A00040F203313220FFF79CFF4FF4407133209F
:1021B000FFF797FF03213420FFF793FF40F203312D
:1021C0003520FFF78EFF14213620FFF78AFF40F2FB
:1021D00003313720FFF785FF40F203313820FFF746
:1021E00080FF40F203313920FFF77BFF4FF440714D
:1021F0003A20FFF776FF03213B20FFF772FF40F202
:1022000003313C20FFF76DFF4FF4A0513D20FFF755
:1022100068FF4FF400719220FFF763FF40F2033133
:102220009320FFF75EFF40F60D019020FFF759FF66
:1022300041F218010320FFF754FF40F27311072009
:10224000FFF74FFF00BD00B543F20801E320FFF7A1
:1022500048FF1221E720FFF744FF41F23121EF2030
:10226000FFF73FFF00210120FFF73BFF4FF4E06144
:102270000220FFF736FF41F230010320FFF731FF64
:1022800000210420FFF72DFF40F207210820FFF76F
:1022900028FF00210920FFF724FF00210A20FFF773
:1022A00020FF00210C20FFF71CFF00210D20FFF76D
:1022B00018FF00210F20FFF714FF00211020FFF767
:1022C00010FF07211120FFF70CFF00211220FFF75C
:1022D00008FF00211320FFF704FF4FF47A70FFF787
:1022E000F1FE41F290611020FFF7FBFE40F2272142
:1022F0001120FFF7F6FE3220FFF7E4FE1D21122029
:10230000FFF7EFFE3220FFF7DDFE4FF400611320F0
:10231000FFF7E7FE14212920FFF7E3FE0B212B2016
:10232000FFF7DFFE3220FFF7CDFE00212020FFF770
:10233000D8FE00212120FFF7D4FE07213020FFF72F
:10234000D0FE40F207713120FFF7CBFE062132208C
:10235000FFF7C7FE40F204713520FFF7C2FE41F6D9
:1023600004713620FFF7BDFE04213720FFF7B9FEC8
:1023700000213820FFF7B5FE40F206713920FFF743
:10238000B0FE40F201713C20FFF7ABFE0F213D2073
:10239000FFF7A7FE00215020FFF7A3FEEF215120F9
:1023A000FFF79FFE00215220FFF79BFE40F23F11F6
:1023B0005320FFF796FE4FF41C516020FFF791FE6B
:1023C00001216120FFF78DFE00216A20FFF789FEC1
:1023D00000218020FFF785FE00218120FFF781FE8C
:1023E00000218220FFF77DFE00218320FFF779FE88
:1023F00000218420FFF775FE00218520FFF771FE84
:1024000010219020FFF76DFE00219220FFF769FE5A
:1024100003219320FFF765FE4FF488719520FFF7A5
:1024200060FE00219720FFF75CFE00219820FFF757
:1024300058FE41F218010320FFF753FE40F27311DA
:102440000720FFF74EFE00BD08B54FF6FF70ADF850
:10245000000003208DF8020010208DF8030069466B
:102460001E48FEF703F808BD08B54FF6FF70ADF83B
:10247000000003208DF8020048208DF80300694613
:102480001648FDF7F3FF08BD70B504464FF4007021
:1024900013490860401008602020091F08600F4899
:1024A000C4602020091D0860091F0860C000086082
:1024B000FFF7DAFF4FF48060094908600748806839
:1024C00085B20815091F0860FFF7BEFF4FF40070C2
:1024D0000349091F0860284670BD00000010014034
:1024E000140C014008B501211820FEF775FA0121EE
:1024F0002020FEF771FA4FF4E460ADF800000120EF
:102500008DF8020010208DF803006946F648FDF7AB
:10251000ADFFFFF799FFF4481030006840F4C46045
:10252000F1491031086008BD10B5FFF7DBFF00204E
:10253000FFF7AAFFED49088008460088A0F5024190
:10254000303902D1FFF7EFFD01E0FFF77CFE0020FC
:10255000FFF79AFFE549088010BD01B5BDF80000FE
:10256000E349088008BD01B5BDF80000E1490880D5
:1025700008BD30B504460D4621462020FFF7B1FDC9
:1025800029462120FFF7ADFD30BDDB4AD26891B26C
:102590004FF40072D44B14331A6052101B1F1A6090
:1025A00020221A60D44AD06020221B1D1A601B1FF3
:1025B0001A60D2001A6052001A60CF4AD160704788
:1025C000CD49C96888B24FF40071C74A143211600E
:1025D000491011602021121F11602221C64AD160CA
:1025E0002021C14A14321160121F1160C90011600C
:1025F00049001160C049C86070472DE9F0430646A4
:102600008946174600240025A046B0464946404664
:10261000FFF7AFFF00BF1EE0FFF7D2FF00250FE07E
:1026200037F814000121A940084204D1B1480088BC
:10263000FFF7ABFF03E0AE480088FFF7A6FF6D1C75
:10264000102DEDD308F1010000F0FF084946404687
:10265000FFF78FFF641C182CDED3BDE8F08370B544
:1026600005460E461446A4F12000C4B204EB440013
:10267000A24901EB001231462846FFF7BEFF70BDAC
:10268000F0B507460C46002540F23F1609E02278D7
:1026900031463846FFF7E3FFA6F1100086B2641C0E
:1026A0006D1C207808B1142DF1D3F0BD10B504468F
:1026B00093A12046FFF7E4FF10BD30B50546002486
:1026C00000210846FFF755FFFFF77AFF00BF03E040
:1026D0002846FFF75AFF641CB4F5963FF8D330BD87
:1026E000F0B504460D4616461F46B44206DBA01B55
:1026F000401C81B25020FFF7F4FC03E00021502081
:10270000FFF7EFFC21465120FFF7EBFCBD4206DB53
:10271000E81B401C81B25220FFF7E3FC03E00021DC
:102720005220FFF7DEFC29465320FFF7DAFC29464A
:102730002046FFF71EFFF0BD00B54FF4A073F02256
:10274000591EEF20FFF7CCFF41F218010320FFF7DD
:10275000C8FC00BD2DE9F0410646884615461F46D7
:10276000002441463046FFF704FF5FB9FFF728FF1A
:1027700000BF04E05E480088FFF707FF641CAC421E
:10278000F8D310E000240CE0FFF71AFF5848008847
:10279000FFF7FBFE701CC6B241463046FFF7E9FE6C
:1027A000641CAC42F0D3BDE8F081F0B505460E469E
:1027B00017461C460023224631462846FFF7CAFF2B
:1027C000E919C8B2002322463146FFF7C3FF0123AF
:1027D0003A4631462846FFF7BDFF301B401C81B208
:1027E00001233A462846FFF7B5FFF0BD2DE9F04337
:1027F00006460F4690460320A0EB480900244546B4
:102800006EE07A1991B23219D0B2FFF7B2FEFFF73B
:10281000D7FE37480088FFF7B8FE7A1B91B232190D
:10282000D0B2FFF7A6FEFFF7CBFE31480088FFF7D6
:10283000ACFE7A1991B2321BD0B2FFF79AFEFFF7C5
:10284000BFFE2B480088FFF7A0FE7A1B91B2321B17
:10285000D0B2FFF78EFEFFF7B3FE25480088FFF7E2
:1028600094FE3A1991B27219D0B2FFF782FEFFF7C7
:10287000A7FE1F480088FFF788FE3A1B91B2721925
:10288000D0B2FFF776FEFFF79BFE19480088FFF7EE
:102890007CFE3A1991B2721BD0B2FFF76AFEFFF7C5
:1028A0008FFE13480088FFF770FE3A1B91B2721B2F
:1028B000D0B2FFF75EFEFFF783FE0D480088FFF7FA
:1028C00064FEB9F1000F04DA062000EB84008144B5
:1028D00005E0601B0A2101EB800081446D1E641C31
:1028E000AC428ED9BDE8F083000C01402C000020E2
:1028F000280000202A000020001001409E4000080F
:1029000020202020202020202020202020202020C7
:10291000202020200000000070B50646002400257D
:1029200040F23F110020FFF724FEFFF749FE00BFF1
:1029300014E000250FE056F824000121A9400842C8
:1029400004D15F480088FFF720FE03E05D4800885F
:10295000FFF71BFE6D1C202DEDD3641CB4F5166F24
:10296000E7D370BD70B50446002500266688A088B0
:1029700046EA00466589A08945EA0045701B46087D
:102980002C4441F208010320FFF7ABFBFFF718FED0
:10299000002504E02088FFF7F8FDA41C6D1CB5425B
:1029A000F8D341F218010320FFF79BFB70BD10B56F
:1029B0004FF4007044490860401008602020091F4F
:1029C000086022204149C86020203F490860091F53
:1029D0000860C0000860FFF747FD4FF480603A4987
:1029E00008603A48806884B20815091F0860FFF73C
:1029F0002BFD4FF400703449091F0860204610BDBC
:102A000000B500211020FFF76CFB00211120FFF71B
:102A100068FB00211220FFF764FB00211320FFF761
:102A200060FB1420FFF74EFB41F2B0711020FFF75E
:102A300058FB40F237111120FFF753FB0520FFF739
:102A400041FB40F239111220FFF74BFB0520FFF745
:102A500039FB4FF4E8511320FFF743FB13212920E2
:102A6000FFF73FFB0520FFF72DFB40F27311072016
:102A7000FFF737FB00BD00B540F273110720FFF7E9
:102A800030FB00BD00B500210720FFF72AFB00BD89
:102A900030B5054600210846FFF76BFDFFF790FDB6
:102AA000002409E015F814206100491C695C42EA21
:102AB0000120FFF76AFD641CB4F5963FF2DB30BDE0
:102AC0002A00002028000020140C014000100140C2
:102AD0004749086000BF464909680029FBD1704793
:102AE000444800684FF47A72B0FBF2F1481EB0F12E
:102AF000807F00D31BE0481E4FF0E022506150174A
:102B00000F22002807DA13071D0E3B4B00F00F04BD
:102B1000241F1D5503E013071C0E384B1C5400BF27
:102B200000204FF0E02290610720106100BFC82014
:102B3000FFF7CEFFFFF7F8FC1F20FFF7BEFD1F20B9
:102B4000FFF711FD4FF6FF70FFF707FD00F0B0F83B
:102B500000F0D2F800F000F900F01AF900F098FA4D
:102B600000F0E0FA00F040FB00F0EFFC00F01CFE8B
:102B700023E04FF416602249088040102149088064
:102B80002148026821A1254800F0F8FE2349482089
:102B9000FFF776FD2248026822A1204800F0EEFEF1
:102BA0001E496020FFF76CFD2248007828B1002004
:102BB0002049087000F007F900BFDAE710B50121DD
:102BC0001D48FFF76AFA90B11C480088401C1B4959
:102BD000088001211848FFF771FA184800880A2870
:102BE00005D100201549088001201249087010BD48
:102BF000300000200000002018ED00E000E400E0BC
:102C0000520000205400002080000020543343482C
:102C1000315F467265713D202538640084000020D4
:102C20007000002054334348325F467265713D2086
:102C300025386400340000200008004036000020E1
:102C4000704700BFFEE700BFFEE700BFFEE700BF22
:102C5000FEE770477047704702480068401E014910
:102C6000086070473000002070B504460D467DB105
:102C70004FF6FF7000EA04211D48FDF7A4FC042173
:102C80001C48FDF79EFC04211A48FDF79CFC0EE051
:102C90004FF6FF7000EA04211548FDF792FC04216D
:102CA0001448FDF78EFC04211248FDF78CFC70BD22
:102CB00008B501213020FDF78FFE4FF47F40ADF8BD
:102CC000000003208DF8020010208DF803006946F3
:102CD0000748FDF7CBFB0420ADF800006946054826
:102CE000FDF7C4FB0021FF20FFF7BEFF08BD000079
:102CF00000100140001401401FB51E208DF8000097
:102D000000208DF8010002208DF8020001208DF8CE
:102D100003006846FDF7CDFE01210420FDF769FEA2
:102D200040F2E730ADF808004720ADF8040000207D
:102D3000ADF80A00ADF8060001A90648FEF788FBC9
:102D4000012211460348FEF7FAFE01210148FEF771
:102D5000DBFE1FBD0008004008B501210920FDF77A
:102D60003BFE01210848FDF750FC1020ADF80000A3
:102D700003208DF8020010208DF8030069460348F7
:102D8000FDF774FB08BD000000013000000C01409D
:102D900008B501210C20FDF71FFE04208DF803006B
:102DA00040F20110ADF8000003208DF802006946E2
:102DB0001848FDF75BFB0620ADF800006946164891
:102DC000FDF754FB08BD70B501211248FDF7DFFB8C
:102DD00005464FF480710F48FDF7D9FB45EA4005E1
:102DE00002210D48FDF7D3FB45EA800504210A487E
:102DF000FDF7CDFB45EAC00040F0F000C043C4B28F
:102E00000649097884EA0100204005490870034812
:102E1000047070BD00080140000C01403900002022
:102E20003800002008B58020ADF8000002208DF8A1
:102E3000020028208DF803006946B948FDF716FB0B
:102E400008BD08B58020ADF8000002208DF8020012
:102E500010208DF803006946B148FDF707FB08BD57
:102E600010B5044624B18021AD48FDF7AAFB03E06C
:102E70008021AB48FDF7A7FB10BD10B5044624B177
:102E80004021A748FDF79DFB03E04021A448FDF742
:102E90009AFB10BD10B58021A148FDF778FB10BD4D
:102EA000002100E0491C8142FCD3704710B501208D
:102EB000FFF7D6FF4FF4FA70FFF7F2FF0120FFF79C
:102EC000DCFF4FF4FA70FFF7EBFF0020FFF7C8FFBD
:102ED0004FF4FA70FFF7E4FF0020FFF7CEFF4FF446
:102EE000FA70FFF7DDFF10BD10B50020FFF7C5FF3A
:102EF0004FF4FA70FFF7D4FF0020FFF7B1FF4FF453
:102F0000FA70FFF7CDFF0120FFF7B7FF4FF4FA701B
:102F1000FFF7C6FF0120FFF7A3FF4FF4FA70FFF79A
:102F2000BFFF10BD10B50524FFF77CFF4FF4FA700A
:102F3000FFF7B6FF0120FFF7A0FF4FF4FA70FFF78D
:102F4000AFFF0CE0601E84B24FF4FA70FFF7A8FFE9
:102F50002CB9FFF776FFFFF7C7FF002010BDFFF782
:102F600099FF0028EED1FFF76CFF0020FFF785FFE7
:102F70004FF4FA70FFF794FF0120EFE710B500203F
:102F8000FFF76EFF4FF4FA70FFF78AFF4FF4FA7005
:102F9000FFF786FF0120FFF770FF4FF4FA70FFF78D
:102FA0007FFF0020FFF769FF4FF4FA70FFF778FF0B
:102FB00010BD10B50120FFF753FF4FF4FA70FFF773
:102FC0006FFF0120FFF759FF4FF4FA70FFF768FF1A
:102FD0000020FFF752FF4FF4FA70FFF761FF10BDBA
:102FE00070B5044608251BE00020FFF746FF4FF4AC
:102FF000FA70FFF755FF04F08000FFF731FF4FF440
:10300000FA70FFF74DFF6006040E4FF4FA70FFF7F9
:1030100047FF0120FFF731FF4FF4FA70FFF740FF41
:103020002800A5F10101CDB2DED1FFF726FF4FF454
:10303000FA70FFF735FF70BD70B508250024FFF763
:10304000F1FE16E06006040E0020FFF716FF4FF4B5
:10305000FA70FFF725FF4FF4FA70FFF721FF012008
:10306000FFF70BFF4FF4FA70FFF71AFFFFF712FF9D
:1030700004432800A5F10101CDB2E3D1FFF7FDFE25
:103080004FF4FA70FFF70CFFFFF7DBFE204670BD30
:1030900008B501210820FDF79FFCC020ADF8000015
:1030A00002208DF8020010208DF8030069461C48AC
:1030B000FDF7DCF908BD70B505460C46FFF7F6FED6
:1030C000A020FFF78DFFFFF72DFF2846FFF788FFB1
:1030D000FFF728FF2046FFF783FFFFF723FFFFF7E7
:1030E00003FF70BD70B50446FFF7E0FEA020FFF7B8
:1030F00077FFFFF717FF2046FFF772FFFFF712FF7A
:10310000FFF7D4FEA120FFF76BFFFFF70BFFFFF7E0
:1031100093FF0546FFF706FFFFF7E6FE284670BD62
:10312000000C014000B587B001214FF40270FDF79B
:1031300053FC0120ADF8040000208DF8070001A920
:103140001D48FDF793F90020029001208DF80C0036
:103150008DF80D004FF460200490002005900120B0
:103160008DF8180002A91548FDF733FD052301224B
:1031700008211248FDF7C5FD01211048FDF760FD4B
:1031800001210E48FDF751FD0C48FDF770FD00BF11
:103190000A48FDF771FD0028FAD10848FDF776FDD1
:1031A00000BF0648FDF777FD0028FAD1012103484A
:1031B000FDF77BFD07B000BD000C0140002401407D
:1031C00008B54FF4C060FDF76FFC03208DF80000D8
:1031D00000208DF8010001208DF802008DF8030019
:1031E0006846FDF766FC08BD10B501214FF0C050E0
:1031F000FDF7FFFB0120FDF75AFFFDF7EBFE012075
:10320000FDF770FB00BF6120FDF7BFFA0028FAD080
:103210004FF40070FDF769FB0120FDF76CFBFEF732
:1032200005F8FDF7FBFF01210846FDF79BFFFDF7C1
:10323000F5FF49F64040FDF7CBFFFDF7EFFF00201B
:10324000FDF7D3FEFFF7BCFF10BD70B504460D4679
:103250001646FDF7E3FF4FF461616143C5EB0512CC
:1032600001EB82018819FDF7A6FFFDF7D7FF70BDBE
:1032700010B50446FDF796FF1A49884204D1002094
:10328000FDF799FFFDF7CAFF4FF46160B4FBF0F062
:10329000154908604FF46160B4FBF0F100FB114088
:1032A0003C21B0FBF1F0114908604FF46160B4FBC0
:1032B000F0F100FB11403C21B0FBF1F201FB1200E8
:1032C0000B49086010BD10B50120FDF7D3FF38B1E0
:1032D0000120FDF7DFFF012006490860FDF79EFF92
:1032E00010BD00007F51010040000020440000207C
:1032F000480000203C00002030B589B000254FF484
:10330000FA7401210846FDF774FB01210520FDF741
:1033100063FB0620ADF8040018208DF80700032099
:103320008DF8060001A9FE48FDF7A0F8FD480068E9
:10333000FD49B0FBF1F0401E85B240F2E730ADF838
:103340001C00ADF818500020ADF81E00ADF81A00B2
:1033500006A92007FEF77CF86020ADF808000120E0
:10336000ADF80A00ADF80E400020ADF8100002A93B
:103370002007FEF7ECF80821C806FEF7FEFC6020E7
:10338000ADF808000120ADF80A00ADF80E400020AD
:10339000ADF8100002A92007FEF726F90821C8069B
:1033A000FEF7F8FC01218807FEF7AEFC0121880733
:1033B000FEF7AAFB09B030BD30B589B00025322434
:1033C00001210220FDF715FB01210520FDF704FB7B
:1033D000C020ADF8040018208DF8070003208DF8F8
:1033E000060001A9CE48FDF741F8CE480068CE4955
:1033F000B0FBF1F0401E85B26320ADF81C00ADF8C3
:1034000018500020ADF81E00ADF81A0006A9C748F4
:10341000FEF71EF86020ADF808000120ADF80A00A4
:10342000ADF80E400020ADF8100002A9BF48FEF72D
:103430004CF80821BD48FEF797FC6020ADF8080065
:103440000120ADF80A00ADF80E400020ADF81000E4
:1034500002A9B648FEF77BF80821B448FEF78DFCB8
:103460000121B248FEF750FC0121B048FEF74CFBA9
:1034700009B030BD10B58AB0002401210220FDF74B
:10348000B8FA01211D20FDF7A7FA1D208DF82400B0
:1034900000208DF825008DF8260001208DF82700EA
:1034A00009A8FDF706FBC020ADF8040018208DF830
:1034B000070003208DF8060001A99948FCF7D6FF04
:1034C000984800689A49B0FBF1F0401E84B24FF66C
:1034D000FF70ADF81C00ADF818400020ADF81E00DC
:1034E000ADF81A0006A99148FDF7B2FF3020ADF8FB
:1034F00008000120ADF80A008E480088ADF80E00E3
:103500000220ADF8100002A98848FDF7DEFF002177
:103510008648FEF729FC0120ADF80A00864800889D
:10352000ADF80E0002A98148FEF711F800217F488E
:10353000FEF723FC01217D48FEF7E6FA0122062171
:103540007A48FEF7FCFA0AB010BD10B58AB0002424
:1035500001210846FDF74DFA01211D20FDF73CFA37
:103560001C208DF8240000208DF8250001208DF806
:1035700026008DF8270009A8FDF79BFA0620ADF874
:10358000040018208DF8070003208DF8060001A91B
:103590006348FCF76BFF634800686549B0FBF1F0D6
:1035A000401E84B24FF6FF70ADF81C00ADF8184015
:1035B0000020ADF81E00ADF81A0006A94FF08040BB
:1035C000FDF746FF3020ADF808000120ADF80A00F5
:1035D0005A480088ADF80E000220ADF8100002A98C
:1035E0004007FDF7B4FF00214FF08040FEF7C5FB18
:1035F0000120ADF80A0052480088ADF80E0002A97B
:103600004FF08040FDF7F0FF00214FF08040FEF7C3
:10361000C1FB01218807FEF777FA01220C219007F0
:10362000FEF78DFA0AB010BD2DE9F041042108071C
:10363000FEF733FD002845D004210807FEF73EFDC4
:103640004FF08040FEF70DFD3E4908803E4800786F
:10365000012819D13948008800F0CCFB06463B48C8
:103660000168304600F0DAFB054600F0A3FB35495F
:103670000988084484B221464FF08040FEF7DEFC02
:103680000020314908701DE0304801684FF07E503D
:1036900000F090FC06462948008800F0ABFB074686
:1036A000314600F0BBFB054600F084FB2549098844
:1036B000084484B221464FF08040FEF7BFFC012051
:1036C000214908700821C806FEF7E7FC002861D0F0
:1036D0000821C806FEF7F2FC4FF08040FEF7C4FC5C
:1036E000184908801A480078012835D11448008804
:1036F00000F080FB064617480168304600F08EFB5C
:10370000054600F057FB0F490988084484B221465A
:103710004FF08040FEF794FC00200D49087039E01E
:10372000000801400000002040420F00000400405B
:1037300000366E014C0000204E0000205200002098
:103740005400002056000020580000205C0000209B
:1037500059000020600000200F4801684FF07E50A3
:1037600000F028FC06460D48008800F043FB0746A1
:10377000314600F053FB054600F01CFB0849098860
:10378000084484B221464FF08040FEF759FC0120E6
:1037900004490870BDE8F08160000020540000205A
:1037A000560000205900002000B585B001210220FC
:1037B000FDF71FF901210420FDF70EF91D208DF8FA
:1037C000100000208DF8110001208DF812008DF8F6
:1037D000130004A8FDF76DF9C020ADF80C0004201B
:1037E0008DF80F0003208DF80E0003A95648FCF752
:1037F0003DFE0420ADF800000020ADF802000120DD
:10380000ADF804000020ADF80600ADF808006946E8
:103810004E48FEF7B0F80020ADF8000069464B486E
:10382000FEF7A9F801214948FEF76EF901220621A9
:103830004648FEF784F905B000BD10B504214348A1
:10384000FEF72BFC01283BD104214048FEF736FC53
:103850003F48008840B93D48FEF703FC3D490880D9
:1038600001203B4908802BE039480088012827D1F6
:103870003648FEF7F6FB3849088008460088354987
:103880000988884207DD3448008832490988401A8F
:103890003249086009E02F4800884FF6FF71081A86
:1038A0002D49098808442D4908602D4800682B4996
:1038B0000968B0FBF1F02B4908600020244908801A
:1038C00002212248FEF7E9FB01283BD102211F48D3
:1038D000FEF7F4FB2448008840B91C48FEF7BEFB05
:1038E000224908800120204908802BE01E480088DA
:1038F000012827D11548FEF7B1FB1D49088008466D
:1039000000881A490988884207DD19480088174944
:103910000988401A1749086009E0144800884FF6E2
:10392000FF71081A124909880844124908600C48B6
:10393000006810490968B0FBF1F00F4908600020E9
:103940000949088010BD0000000801400004004043
:103950006800002064000020660000206C00002049
:10396000000000207000002078000020740000207B
:10397000760000207C000020800000200FB41CB5E1
:10398000074B06AA7B4469460090059800F05BF956
:103990000020694600F06AF91CBC5DF814FB0000C9
:1039A000E502000070B5044685690068C10601D5CE
:1039B000302600E02026C00708D070BDD4E90121E0
:1039C00030469047206A00F1010020626D1EF5D557
:1039D00070BD70B5044685690078C00708D170BD18
:1039E000D4E9012120209047206A00F101002062E3
:1039F0006D1EF5D570BD00002DE9F041064600248E
:103A000010687529314616A511D0AFF30080002843
:103A100003DAC0F1000013A507E031688A0701D579
:103A200011A502E0490704D510A5012401E0AFF378
:103A3000008000210A2306F1240707E0B0FBF3F21F
:103A400003FB1200303078541046491C0028F5D191
:103A500023462A463046BDE8F04100F093B8000006
:103A6000000000002D0000002B00000020000000DE
:103A70002DE9F0474FF0000A89460446C0F820A01F
:103A80002046E1688847002876D0252806D0D4E96A
:103A900001219047206A401C2062F1E7E16820463E
:103AA00000258847C4F81CA006460027C4F818A0C3
:103AB0002A2E09D0304600F014F938B304EB8708F9
:103AC000303EC8F8186019E059F8041B204604EB92
:103AD00087029161E1688847012F064618D1E069A5
:103AE000002820DA25F020051DE0D8F8180000EBAA
:103AF000800006EB40003038C8F818002046E16826
:103B00008847064600F0EDF80028EED1012F0AD0D4
:103B10002E2E08D12046E16888477F1C0646022FDA
:103B200045F02005C4DBA069002803DA404245F0D7
:103B30000105A061E80701D025F01005B6B1A6F196
:103B40004100192802D8203645F400654A4631461E
:103B5000204625604D46FCF703FB58B1012806D0EE
:103B6000ED1D25F0070000F1080989E704E005F1E3
:103B7000040985E730468AE7206ABDE8F087704788
:103B8000704770472DE9F0470D4699469246044626
:103B900000F124080168880604D5E06921F01001CD
:103BA000216000E00120A84202DDA0EB050700E053
:103BB0000027A16907EB050202EB0900A1EB000059
:103BC000A0612078C00602D42046FFF7EBFE002655
:103BD00008E0D4E901211AF806009047206A401C49
:103BE000761C20624E45F4DB2078C0060AD52046BC
:103BF000FFF7D8FE06E0D4E9012130209047206A83
:103C0000401C2062381EA7F10107F4DC07E0D4E96C
:103C1000012118F805009047206A401C2062281EE8
:103C2000A5F10105F3DC2046FFF7D3FE207800065E
:103C300002D50220BDE8F0870120FBE701694A1C9C
:103C400002610878704700B58FB0CDE901310021DD
:103C5000059105497944CDE9031011466846FFF7FF
:103C600007FF0FB000BD0000E5FFFFFF0A6802F884
:103C7000010B0A607047754600F028F8AE46050053
:103C80006946534620F00700854618B020B5FCF77A
:103C90008DFABDE820404FF000064FF000074FF0CE
:103CA00000084FF0000B21F00701AC46ACE8C0095A
:103CB000ACE8C009ACE8C009ACE8C0098D46704763
:103CC0000446AFF300802046FCF75CFA00487047DA
:103CD000A400002001491820ABBEFEE72600020028
:103CE000704730380A2801D2012070470020704701
:103CF00090EA010F48BF81F0004100F16281421A51
:103D00003CBF801A89184FEAD0524FF07F4C1CEA12
:103D1000410FA2EBD15318BF9CEA026F00F03B8029
:103D20004FF0004C4CEA00204CEA012121FA03FC40
:103D300010EB0C0C1ED202F1FF325FEA1C2040EBAC
:103D4000C25038BF70471CF07F0F4FEA400C18BFBD
:103D5000BCF17F4F38BF7047C3F12003994008BFC3
:103D600020F00100BCF17F4F38BF7047A0F1C04088
:103D700000F01BB94FEA3C00000A40EBC25028BFDC
:103D80001CF0FF0F4FEA400CE6D018BFBCF17F4F8C
:103D900038BF7047EAE79CEA026F05D010EA5C0F73
:103DA00008BF00F00040704710B500F0B8F800BF41
:103DB00064FBBE3EC10DD1F19E0206DB4FEA00233B
:103DC00043F0004323FA02F07047004207D54FEA60
:103DD0004001B1F1FE4F02D24FF00000704710B524
:103DE00000F09DF849922480002070476FEA20007F
:103DF00070470000B0FA80F310FA03F2C3F19D039C
:103E00000AD0D90501EB1220530638BF704700F1E4
:103E1000010008BF20F00100704700004FF47F0C44
:103E20001CEAD0121EBF1CEAD11392EA0C0F93EACF
:103E30000C0F00F0478090EA010F48BF42F48072F7
:103E40004FF0004C4CEA00204CEA012102EB030247
:103E5000A0FB0113A2F50002002918BF43F00103E3
:103E60005B0028BF4FEA330342EB22425FEA132C88
:103E70004CEBC2502EBFBCEB436FB2F57C0F7047CA
:103E80004FEA036CBCF1004F08BF20F00100B2F50F
:103E90007C0F38BF70470BD582F0FF0212F5803FD0
:103EA000C8BF704700F1C040D8BF00F00040704765
:103EB00000F5000C5FEA4C0C48BF7047B0F1C04001
:103EC00000F073B890EA010F0CEAD11348BF42F436
:103ED0008072624538BF634504D280EA010000F079
:103EE0000040704710B500F01AF800BF8900013E8D
:103EF00000F007B800F009B85FEA410C5FEA1C6CFB
:103F000008D080EA010000F050B85FEA400C5FEA98
:103F10001C6CF6D14FF00040A0F5800070470EF108
:103F2000020E2EF0030E5EF8044B244204D44FEA36
:103F30004102B2F17F4F11D84FEA4003B3F17F4FF6
:103F40000CD80ED14FEAD07CB2F17F4F0CEB4C0C69
:103F50000CF1020C08BF4CEBD17C04E04FF0080CD4
:103F600001E04FEAD17C0CEB4C0324FA03F404F09B
:103F70000704B4F1040C06D20EEB840CBDE810402B
:103F80004CF0010C6047DFE80CF0070802024FF02C
:103F90000040A0F5800010BD0846420018BFD2F1D5
:103FA000807288BF00F0004010BDFF2141EAD05070
:103FB000C005704790EA010F48BF81F000413FF50E
:103FC0009EAE421A04D882F00042A0EB02001144D7
:103FD0004FEAD0524FF07F4C1CEA410FA2EBD15375
:103FE00018BF9CEA026F4AD04FF0004C4CEA002008
:103FF0004CEA012121FA03FCB0EB0C0C0FD412F0B7
:10400000FE0F36D05FEA4C001DD5001240EBC250C7
:1040100038BF70471CF03F0F18BF70470BE0A2F18C
:1040200001025FEA1C2040EBC25038BF70471CF011
:104030007F0F18BF7047C3F12003994014BF401E83
:1040400020F00100704780084FEA122308BF704734
:10405000B0FA80FCA2EB0C02CCF1280C60FA0CF058
:1040600093EA122F04BF00EBC25070474FEAC370AF
:104070007047130A5FEADC1008BF7047F6E79CEA56
:10408000026F04D010EA5C0F08BF0020704710B523
:10409000FFF745FF40DFF63E81F00040704700002B
:1040A0000000000000000000000000000000000010
:1040B0000000000000000000000000000000000000
:1040C00000000000000000000000000000000000F0
:1040D00080018001800180018001800180018001D8
:1040E00080018001800180018001000000008001CA
:1040F000800100000000000000000000000000003F
:104100000000CC00CC00CC00CC00CC00CC000000E7
:10411000000000000000000000000000000000009F
:10412000000000000000000000000000000000008F
:1041300000000000000000000000600C600C600C3B
:1041400030063006FE1FFE1F300638071803FE1F1C
:10415000FE1F180318038C018C018C010000000065
:104160008000E003F80F9C0E8C1C8C188C009800CB
:10417000F801E007800E801C8C188C189C18B80C75
:10418000F00FE0038000800000000000000000004D
:10419000000000000E181B0C110C11061106110373
:1041A00011039B018E01C038C06C604460443044F0
:1041B00030441844186C0C38000000000000000067
:1041C000E001F0033807180618063003F001F0008C
:1041D000F8009C310E33061E061C061C063FFC73BD
:1041E000F0210000000000000000000000000000BE
:1041F00000000C000C000C000C000C000C00000077
:1042000000000000000000000000000000000000AE
:10421000000000000000000000000000000000009E
:10422000000200038001C000C00060006000300098
:1042300030003000300030003000300030006000CE
:104240006000C000C0008001000300020000000008
:1042500020006000C0008001800100030003000610
:104260000006000600060006000600060006000321
:10427000000380018001C0006000200000000000F9
:1042800000000000000000000000C000C000D806D0
:10429000F807E001300338070000000000000000CC
:1042A000000000000000000000000000000000000E
:1042B000000000000000000000008001800180017B
:1042C00080018001FC3FFC3F800180018001800172
:1042D000800100000000000000000000000000005D
:1042E00000000000000000000000000000000000CE
:1042F00000000000000000000000000000000000BE
:104300008001800100010001800000000000000029
:10431000000000000000000000000000000000009D
:10432000000000000000E007E007000000000000BF
:10433000000000000000000000000000000000007D
:10434000000000000000000000000000000000006D
:10435000000000000000000000000000000000005D
:10436000C000C000000000000000000000000000CD
:10437000000C000C0006000600060003000300030A
:104380008003800180018001C000C000C000600087
:1043900060000000000000000000000000000000BD
:1043A000E003F007380E180C0C180C180C180C1839
:1043B0000C180C180C180C180C18180C380EF007E8
:1043C000E00300000000000000000000000000000A
:1043D00000018001C001F001980188018001800185
:1043E00080018001800180018001800180018001C5
:1043F000800100000000000000000000000000003C
:10440000E003F80F180C0C180C1800180018000C1A
:10441000000600038001C000600030001800FC1F8F
:10442000FC1F000000000000000000000000000071
:10443000E001F807180E0C0C0C0C000C0006C00371
:10444000C007000C001800180C180C18180CF807FE
:10445000E003000000000000000000000000000079
:10446000000C000E000F000F800DC00C600C600CE3
:10447000300C180C0C0CFC3FFC3F000C000C000C2A
:10448000000C000000000000000000000000000020
:10449000F80FF80F180018000C00EC03FC071C0EB6
:1044A000001C0018001800180C181C0C180EF80737
:1044B000E003000000000000000000000000000019
:1044C000C007F00F381C181818000C00CC03EC0FB4
:1044D0003C0E1C1C0C180C180C18181C380EF0077D
:1044E000E0030000000000000000000000000000E9
:1044F000FC1FFC1F000C0006000600038003800167
:10450000C001C000E00060006000700030003000BA
:10451000300000000000000000000000000000006B
:10452000E003F007380E180C180C180C3806F007CA
:10453000F007180C0C180C180C180C18380CF80F85
:10454000E003000000000000000000000000000088
:10455000E003F007380E1C0C0C180C180C181C1C6F
:10456000381EF81BE0190018000C000C1C0EF80790
:10457000F00100000000000000000000000000004A
:104580000000000000000000000080018001000029
:10459000000000000000000000000000000080019A
:1045A000800100000000000000000000000000008A
:1045B00000000000000000000000800180010000F9
:1045C000000000000000000000000000000080016A
:1045D00080010001000180000000000000000000D8
:1045E00000000000000000000000000000000010BB
:1045F000001C800FE003F8001800F800E003800FB3
:10460000001C00100000000000000000000000007E
:104610000000000000000000000000000000F81F83
:10462000000000000000F81F000000000000000073
:10463000000000000000000000000000000000007A
:104640000000000000000000000000000000080062
:104650003800F001C007001F0018001FC007F0015C
:10466000380008000000000000000000000000000A
:10467000E003F80F180C0C180C180018000C0006BA
:1046800000038001C000C000C00000000000C000A6
:10469000C00000000000000000000000000000005A
:1046A0000000E00718180420C229224A11440944D6
:1046B0000944094409221113E20C0240042018188D
:1046C000E007000000000000000000000000000003
:1046D00080038003C006C006C006600C600C301862
:1046E00030183018F83FF83F1C700C600C6006C0A2
:1046F00006C00000000000000000000000000000F4
:10470000FC03FC0F0C0C0C180C180C180C0CFC0700
:10471000FC0F0C180C300C300C300C300C18FC1F3B
:10472000FC07000000000000000000000000000086
:10473000C007F01F38381C300C70066006000600F9
:10474000060006000600060006600C701C30F01F14
:10475000E007000000000000000000000000000072
:10476000FE03FE0F060E0618061806300630063049
:10477000063006300630063006180618060EFE0F04
:10478000FE03000000000000000000000000000028
:10479000FC3FFC3F0C000C000C000C000C00FC1F4C
:1047A000FC1F0C000C000C000C000C000C00FC3F6B
:1047B000FC3F0000000000000000000000000000BE
:1047C000F83FF83F18001800180018001800F81FEC
:1047D000F81F18001800180018001800180018001A
:1047E00018000000000000000000000000000000B1
:1047F000E00FF83F3C780E6006E007C003000300BE
:1048000003FE03FE03C007C006C00EC03CF0F83F25
:10481000E00F0000000000000000000000000000A9
:104820000C300C300C300C300C300C300C30FC3FA9
:10483000FC3F0C300C300C300C300C300C300C3099
:104840000C3000000000000000000000000000002C
:104850008001800180018001800180018001800150
:104860008001800180018001800180018001800140
:1048700080010000000000000000000000000000B7
:1048800000060006000600060006000600060006F8
:104890000006000600060006180618063807F00392
:1048A000E001000000000000000000000000000027
:1048B00006300618060C060606038601C6006600CA
:1048C0007600DE008E0106030606060C061806308A
:1048D0000660000000000000000000000000000072
:1048E0001800180018001800180018001800180008
:1048F0001800180018001800180018001800F81FF9
:10490000F81F000000000000000000000000000090
:104910000EE01EF01EF01EF036D836D836D836D847
:1049200066CC66CC66CCC6C6C6C6C6C6C6C686C378
:1049300086C300000000000000000000000000002E
:104940000C301C303C303C306C306C30CC30CC30D7
:104950008C310C330C330C360C360C3C0C3C0C38C4
:104960000C3000000000000000000000000000000B
:10497000E007F81F1C380E70066003C003C003C0B8
:1049800003C003C003C003C006600E701C38F81FCC
:10499000E007000000000000000000000000000030
:1049A000FC0FFC1F0C380C300C300C300C300C1889
:1049B000FC1FFC070C000C000C000C000C000C0091
:1049C0000C000000000000000000000000000000DB
:1049D000E007F81F1C380E70066003E003C003C038
:1049E00003C003C003C007E006630E3F1C3CF83F52
:1049F000E0F700C000000000000000000000000020
:104A0000FE0FFE1F06380630063006300638FE1F41
:104A1000FE0706030606060C0618061806300630C2
:104A20000660000000000000000000000000000020
:104A3000E003F80F1C0C0C180C180C001C00F803F9
:104A4000E00F001E0038063006300E301C1CF80F38
:104A5000E00700000000000000000000000000006F
:104A6000FE7FFE7F80018001800180018001800146
:104A7000800180018001800180018001800180012E
:104A800080010000000000000000000000000000A5
:104A90000C300C300C300C300C300C300C300C3036
:104AA0000C300C300C300C300C300C301818F81F57
:104AB000E00700000000000000000000000000000F
:104AC00003600630063006300C180C180C18180C51
:104AD000180C380E30063006700760036003C00102
:104AE000C001000000000000000000000000000005
:104AF0000360C361C361C361663366336633663383
:104B0000663366336C1B6C1B6C1B2C1A3C1E380EF8
:104B1000380E00000000000000000000000000004F
:104B20000FE00C7018303018700C600EC007800356
:104B30008003C003E006700C301C18180C300E60A7
:104B400007E000000000000000000000000000007E
:104B500003C006600C301C383818300C6006E007C3
:104B6000C0038001800180018001800180018001FB
:104B700080010000000000000000000000000000B4
:104B8000FC7FFC7F006000300018000C0006000372
:104B90008001C0006000300018000C000600FE7F9D
:104BA000FE7F000000000000000000000000000088
:104BB000E003E003600060006000600060006000EF
:104BC00060006000600060006000600060006000E5
:104BD0006000600060006000E003E003000000008F
:104BE00030003000600060006000C000C000C00005
:104BF000C001800180018001000300030003000662
:104C0000000600000000000000000000000000009E
:104C1000E003E003000300030003000300030003BC
:104C2000000300030003000300030003000300036C
:104C30000003000300030003E003E00300000000A2
:104C40000000C001C001600360036003300630064D
:104C5000180C180C0000000000000000000000000C
:104C60000000000000000000000000000000000044
:104C70000000000000000000000000000000000034
:104C80000000000000000000000000000000000024
:104C9000FFFFFFFF00000000000000000000000018
:104CA0000C000C000C000C000C000C0000000000BC
:104CB00000000000000000000000000000000000F4
:104CC00000000000000000000000000000000000E4
:104CD00000000000000000000000F003F8071C0CBA
:104CE0000C0C000FF00FF80C0C0C0C0C1C0FF80F38
:104CF000F0180000000000000000000000000000AC
:104D000018001800180018001800D803F80F380C05
:104D1000181818181818181818181818380CF80F28
:104D2000D8030000000000000000000000000000A8
:104D300000000000000000000000C003F007300E7B
:104D4000180C1800180018001800180C300EF00786
:104D5000C003000000000000000000000000000090
:104D600000180018001800180018C01BF01F301C95
:104D7000181818181818181818181818301CF01FB8
:104D8000C01B000000000000000000000000000048
:104D900000000000000000000000C003F00F300C15
:104DA0001818F81FF81F180018003818301CF00FDA
:104DB000C00700000000000000000000000000002C
:104DC000800FC00FC000C000C000F007F007C00097
:104DD000C000C000C000C000C000C000C000C000D3
:104DE000C000000000000000000000000000000003
:104DF00000000000000000000000E00DF80F180E99
:104E00000C0C0C0C0C0C0C0C0C0C0C0C180EF80FE5
:104E1000E00D000C0C0C1C06F807F001000000006F
:104E200018001800180018001800D807F80F381CD0
:104E300018181818181818181818181818181818F2
:104E40001818000000000000000000000000000032
:104E5000C000C000000000000000C000C000C00092
:104E6000C000C000C000C000C000C000C000C00042
:104E7000C000000000000000000000000000000072
:104E8000C000C000000000000000C000C000C00062
:104E9000C000C000C000C000C000C000C000C00012
:104EA000C000C000C000C000F80078000000000092
:104EB0000C000C000C000C000C000C0C0C060C037D
:104EC0008C01CC006C00FC009C018C030C030C06D4
:104ED0000C0C0000000000000000000000000000BA
:104EE000C000C000C000C000C000C000C000C000C2
:104EF000C000C000C000C000C000C000C000C000B2
:104F0000C0000000000000000000000000000000E1
:104F1000000000000000000000007C3CFF7EC7E3B2
:104F200083C183C183C183C183C183C183C183C161
:104F300083C100000000000000000000000000002D
:104F4000000000000000000000009807F80F381C67
:104F500018181818181818181818181818181818D1
:104F60001818000000000000000000000000000011
:104F700000000000000000000000C003F00F300C33
:104F8000181818181818181818181818300CF00FC6
:104F9000C00300000000000000000000000000004E
:104FA00000000000000000000000D803F80F380CDB
:104FB000181818181818181818181818380CF80F86
:104FC000D80318001800180018001800000000008E
:104FD00000000000000000000000C01BF01F301C9B
:104FE000181818181818181818181818301CF01F46
:104FF000C01B00180018001800180018000000005E
:1050000000000000000000000000B007F003700086
:105010003000300030003000300030003000300010
:105020003000000000000000000000000000000050
:1050300000000000000000000000E003F003380E54
:10504000180C3800F003C007000C180C380EF007DD
:10505000E00300000000000000000000000000006D
:1050600000008000C000C000C000F007F007C000D2
:10507000C000C000C000C000C000C000C000C00729
:105080008007000000000000000000000000000099
:105090000000000000000000000018181818181880
:1050A000181818181818181818181818381CF01F7D
:1050B000E0190000000000000000000000000000F7
:1050C000000000000000000000000C18180C180C74
:1050D000180C300630063006600360036003C00120
:1050E000C0010000000000000000000000000000FF
:1050F00000000000000000000000C141C141C36188
:105100006363636363633636363636361C1C1C1C99
:105110001C1C000000000000000000000000000057
:10512000000000000000000000001C38381C300C9B
:10513000600660036003600360036006300C381C87
:105140001C3800000000000000000000000000000B
:105150000000000000000000000018303018301877
:105160007018600C600CE00CC006C0068003800361
:10517000800380018001C001F00070000000000089
:1051800000000000000000000000FC1FFC1F000CDD
:10519000000600038001C000600030001800FC1F02
:1051A000FC1F0000000000000000000000000000E4
:1051B00000038001C000C000C000C000C000C000EB
:1051C00060006000300060004000C000C000C0000F
:1051D000C000C000C000800100030000000000000B
:1051E00080018001800180018001800180018001B7
:1051F00080018001800180018001800180018001A7
:105200008001800180018001800180010000000098
:105210006000C000C0018001800180018001800128
:1052200000030003000600030001800180018001EB
:10523000800180018001C0006000000000000000CB
:105240000000000000000000000000000000F0105E
:10525000F81F080F00000000000000000000000020
:10526000000000000000000000000000000000003E
:10527000905200080000002084000000280100086F
:105280001453000884000020840600004401000834
:1052900000A24A0400000000000000000102030414
:1052A00006070809000000000102030401020304CC
:1052B00006070809020406080000FFFF00000000BE
:1052C00000000000000000000000000000000000DE
:1052D000000000000000000000000000008000400E
:1052E0000000002000100000000000009A99993E84
:1052F0003333333F000000000000000000000000D6
:10530000000000000000000000000000000000009D
:045310000000000099
:04000005080000ED02
:00000001FF
